00010010001000990000000000000000000000000000000000000000000000000000000000000000000000000000000000000          REGISTERED VOTERS - TOTAL                               REGISTERED VOTERS - TOTAL             Solomon #1                                             00 
00010010002001482000000000000000000000000000000000000000000000000000000000000000000000000000000000000          REGISTERED VOTERS - TOTAL                               REGISTERED VOTERS - TOTAL             Safford #2                                             00 
00010010003000668000000000000000000000000000000000000000000000000000000000000000000000000000000000000          REGISTERED VOTERS - TOTAL                               REGISTERED VOTERS - TOTAL             Safford #3                                             00 
00010010004000513000000000000000000000000000000000000000000000000000000000000000000000000000000000000          REGISTERED VOTERS - TOTAL                               REGISTERED VOTERS - TOTAL             Layton #4                                              00 
00010010005001278000000000000000000000000000000000000000000000000000000000000000000000000000000000000          REGISTERED VOTERS - TOTAL                               REGISTERED VOTERS - TOTAL             Layton #5                                              00 
00010010006000763000000000000000000000000000000000000000000000000000000000000000000000000000000000000          REGISTERED VOTERS - TOTAL                               REGISTERED VOTERS - TOTAL             Thatcher #6                                            00 
00010010007001625000000000000000000000000000000000000000000000000000000000000000000000000000000000000          REGISTERED VOTERS - TOTAL                               REGISTERED VOTERS - TOTAL             Thatcher #7                                            00 
00010010008000552000000000000000000000000000000000000000000000000000000000000000000000000000000000000          REGISTERED VOTERS - TOTAL                               REGISTERED VOTERS - TOTAL             Central #8                                             00 
00010010009002159000000000000000000000000000000000000000000000000000000000000000000000000000000000000          REGISTERED VOTERS - TOTAL                               REGISTERED VOTERS - TOTAL             Pima #9                                                00 
00010010010000250000000000000000000000000000000000000000000000000000000000000000000000000000000000000          REGISTERED VOTERS - TOTAL                               REGISTERED VOTERS - TOTAL             Ft Thomas #10                                          00 
00010010011001250000000000000000000000000000000000000000000000000000000000000000000000000000000000000          REGISTERED VOTERS - TOTAL                               REGISTERED VOTERS - TOTAL             Bylas #11                                              00 
00010010012000057000000000000000000000000000000000000000000000000000000000000000000000000000000000000          REGISTERED VOTERS - TOTAL                               REGISTERED VOTERS - TOTAL             Klondyke #12                                           00 
00010010013000146000000000000000000000000000000000000000000000000000000000000000000000000000000000000          REGISTERED VOTERS - TOTAL                               REGISTERED VOTERS - TOTAL             Bonita #13                                             00 
00010010014000327000000000000000000000000000000000000000000000000000000000000000000000000000000000000          REGISTERED VOTERS - TOTAL                               REGISTERED VOTERS - TOTAL             Thunderbird #14                                        00 
00010010015001527000000000000000000000000000000000000000000000000000000000000000000000000000000000000          REGISTERED VOTERS - TOTAL                               REGISTERED VOTERS - TOTAL             Safford #15                                            00 
00010010016000989000000000000000000000000000000000000000000000000000000000000000000000000000000000000          REGISTERED VOTERS - TOTAL                               REGISTERED VOTERS - TOTAL             Peridot #16                                            00 
00010010017000213000000000000000000000000000000000000000000000000000000000000000000000000000000000000          REGISTERED VOTERS - TOTAL                               REGISTERED VOTERS - TOTAL             Cactus #17                                             00 
00010010018001093000000000000000000000000000000000000000000000000000000000000000000000000000000000000          REGISTERED VOTERS - TOTAL                               REGISTERED VOTERS - TOTAL             Jackson #18                                            00 
00010010019001101000000000000000000000000000000000000000000000000000000000000000000000000000000000000          REGISTERED VOTERS - TOTAL                               REGISTERED VOTERS - TOTAL             Desert Hills #19                                       00 
00010010020000701000000000000000000000000000000000000000000000000000000000000000000000000000000000000          REGISTERED VOTERS - TOTAL                               REGISTERED VOTERS - TOTAL             Artesia #20                                            00 
00010010021000088000000000000000000000000000000000000000000000000000000000000000000000000000000000000          REGISTERED VOTERS - TOTAL                               REGISTERED VOTERS - TOTAL             Quatro Cerros #21                                      00 
00010010022000034000000000000000000000000000000000000000000000000000000000000000000000000000000000000          REGISTERED VOTERS - TOTAL                               REGISTERED VOTERS - TOTAL             Gila River #22                                         00 
00020010001000705000226000474000005000000000000000000000000000000000000000000000000000000000000000000          BALLOTS CAST - TOTAL                                    BALLOTS CAST - TOTAL                  Solomon #1                                             00 
00020010002000953000321000610000022000000000000000000000000000000000000000000000000000000000000000000          BALLOTS CAST - TOTAL                                    BALLOTS CAST - TOTAL                  Safford #2                                             00 
00020010003000489000122000363000004000000000000000000000000000000000000000000000000000000000000000000          BALLOTS CAST - TOTAL                                    BALLOTS CAST - TOTAL                  Safford #3                                             00 
00020010004000386000103000280000003000000000000000000000000000000000000000000000000000000000000000000          BALLOTS CAST - TOTAL                                    BALLOTS CAST - TOTAL                  Layton #4                                              00 
00020010005000930000267000648000015000000000000000000000000000000000000000000000000000000000000000000          BALLOTS CAST - TOTAL                                    BALLOTS CAST - TOTAL                  Layton #5                                              00 
00020010006000584000197000379000008000000000000000000000000000000000000000000000000000000000000000000          BALLOTS CAST - TOTAL                                    BALLOTS CAST - TOTAL                  Thatcher #6                                            00 
00020010007001214000385000806000023000000000000000000000000000000000000000000000000000000000000000000          BALLOTS CAST - TOTAL                                    BALLOTS CAST - TOTAL                  Thatcher #7                                            00 
00020010008000451000167000282000002000000000000000000000000000000000000000000000000000000000000000000          BALLOTS CAST - TOTAL                                    BALLOTS CAST - TOTAL                  Central #8                                             00 
00020010009001615000643000943000029000000000000000000000000000000000000000000000000000000000000000000          BALLOTS CAST - TOTAL                                    BALLOTS CAST - TOTAL                  Pima #9                                                00 
00020010010000195000075000120000000000000000000000000000000000000000000000000000000000000000000000000          BALLOTS CAST - TOTAL                                    BALLOTS CAST - TOTAL                  Ft Thomas #10                                          00 
00020010011000714000562000150000002000000000000000000000000000000000000000000000000000000000000000000          BALLOTS CAST - TOTAL                                    BALLOTS CAST - TOTAL                  Bylas #11                                              00 
00020010012000044000002000042000000000000000000000000000000000000000000000000000000000000000000000000          BALLOTS CAST - TOTAL                                    BALLOTS CAST - TOTAL                  Klondyke #12                                           00 
00020010013000121000051000067000003000000000000000000000000000000000000000000000000000000000000000000          BALLOTS CAST - TOTAL                                    BALLOTS CAST - TOTAL                  Bonita #13                                             00 
00020010014000245000081000161000003000000000000000000000000000000000000000000000000000000000000000000          BALLOTS CAST - TOTAL                                    BALLOTS CAST - TOTAL                  Thunderbird #14                                        00 
00020010015001079000270000793000016000000000000000000000000000000000000000000000000000000000000000000          BALLOTS CAST - TOTAL                                    BALLOTS CAST - TOTAL                  Safford #15                                            00 
00020010016000421000350000071000000000000000000000000000000000000000000000000000000000000000000000000          BALLOTS CAST - TOTAL                                    BALLOTS CAST - TOTAL                  Peridot #16                                            00 
00020010017000156000041000113000002000000000000000000000000000000000000000000000000000000000000000000          BALLOTS CAST - TOTAL                                    BALLOTS CAST - TOTAL                  Cactus #17                                             00 
00020010018000847000292000544000011000000000000000000000000000000000000000000000000000000000000000000          BALLOTS CAST - TOTAL                                    BALLOTS CAST - TOTAL                  Jackson #18                                            00 
00020010019000783000236000534000013000000000000000000000000000000000000000000000000000000000000000000          BALLOTS CAST - TOTAL                                    BALLOTS CAST - TOTAL                  Desert Hills #19                                       00 
00020010020000517000178000331000008000000000000000000000000000000000000000000000000000000000000000000          BALLOTS CAST - TOTAL                                    BALLOTS CAST - TOTAL                  Artesia #20                                            00 
00020010021000065000014000051000000000000000000000000000000000000000000000000000000000000000000000000          BALLOTS CAST - TOTAL                                    BALLOTS CAST - TOTAL                  Quatro Cerros #21                                      00 
00020010022000021000004000017000000000000000000000000000000000000000000000000000000000000000000000000          BALLOTS CAST - TOTAL                                    BALLOTS CAST - TOTAL                  Gila River #22                                         00 
00030010001000000000000000000000000000000000000000000000000000000000000000000000000000000000000000000          BALLOTS CAST - BLANK                                    BALLOTS CAST - BLANK                  Solomon #1                                             00 
00030010002000000000000000000000000000000000000000000000000000000000000000000000000000000000000000000          BALLOTS CAST - BLANK                                    BALLOTS CAST - BLANK                  Safford #2                                             00 
00030010003000000000000000000000000000000000000000000000000000000000000000000000000000000000000000000          BALLOTS CAST - BLANK                                    BALLOTS CAST - BLANK                  Safford #3                                             00 
00030010004000000000000000000000000000000000000000000000000000000000000000000000000000000000000000000          BALLOTS CAST - BLANK                                    BALLOTS CAST - BLANK                  Layton #4                                              00 
00030010005000000000000000000000000000000000000000000000000000000000000000000000000000000000000000000          BALLOTS CAST - BLANK                                    BALLOTS CAST - BLANK                  Layton #5                                              00 
00030010006000000000000000000000000000000000000000000000000000000000000000000000000000000000000000000          BALLOTS CAST - BLANK                                    BALLOTS CAST - BLANK                  Thatcher #6                                            00 
00030010007000000000000000000000000000000000000000000000000000000000000000000000000000000000000000000          BALLOTS CAST - BLANK                                    BALLOTS CAST - BLANK                  Thatcher #7                                            00 
00030010008000000000000000000000000000000000000000000000000000000000000000000000000000000000000000000          BALLOTS CAST - BLANK                                    BALLOTS CAST - BLANK                  Central #8                                             00 
00030010009000000000000000000000000000000000000000000000000000000000000000000000000000000000000000000          BALLOTS CAST - BLANK                                    BALLOTS CAST - BLANK                  Pima #9                                                00 
00030010010000000000000000000000000000000000000000000000000000000000000000000000000000000000000000000          BALLOTS CAST - BLANK                                    BALLOTS CAST - BLANK                  Ft Thomas #10                                          00 
00030010011000000000000000000000000000000000000000000000000000000000000000000000000000000000000000000          BALLOTS CAST - BLANK                                    BALLOTS CAST - BLANK                  Bylas #11                                              00 
00030010012000000000000000000000000000000000000000000000000000000000000000000000000000000000000000000          BALLOTS CAST - BLANK                                    BALLOTS CAST - BLANK                  Klondyke #12                                           00 
00030010013000000000000000000000000000000000000000000000000000000000000000000000000000000000000000000          BALLOTS CAST - BLANK                                    BALLOTS CAST - BLANK                  Bonita #13                                             00 
00030010014000000000000000000000000000000000000000000000000000000000000000000000000000000000000000000          BALLOTS CAST - BLANK                                    BALLOTS CAST - BLANK                  Thunderbird #14                                        00 
00030010015000000000000000000000000000000000000000000000000000000000000000000000000000000000000000000          BALLOTS CAST - BLANK                                    BALLOTS CAST - BLANK                  Safford #15                                            00 
00030010016000000000000000000000000000000000000000000000000000000000000000000000000000000000000000000          BALLOTS CAST - BLANK                                    BALLOTS CAST - BLANK                  Peridot #16                                            00 
00030010017000000000000000000000000000000000000000000000000000000000000000000000000000000000000000000          BALLOTS CAST - BLANK                                    BALLOTS CAST - BLANK                  Cactus #17                                             00 
00030010018000000000000000000000000000000000000000000000000000000000000000000000000000000000000000000          BALLOTS CAST - BLANK                                    BALLOTS CAST - BLANK                  Jackson #18                                            00 
00030010019000000000000000000000000000000000000000000000000000000000000000000000000000000000000000000          BALLOTS CAST - BLANK                                    BALLOTS CAST - BLANK                  Desert Hills #19                                       00 
00030010020000000000000000000000000000000000000000000000000000000000000000000000000000000000000000000          BALLOTS CAST - BLANK                                    BALLOTS CAST - BLANK                  Artesia #20                                            00 
00030010021000000000000000000000000000000000000000000000000000000000000000000000000000000000000000000          BALLOTS CAST - BLANK                                    BALLOTS CAST - BLANK                  Quatro Cerros #21                                      00 
00030010022000000000000000000000000000000000000000000000000000000000000000000000000000000000000000000          BALLOTS CAST - BLANK                                    BALLOTS CAST - BLANK                  Gila River #22                                         00 
03020010001000428000141000285000002000000000000000000000000000000000000000000000000000000000000000000REP       Presidential Electors                                   TRUMP, PENCE                          Solomon #1                                             01 
03020010002000565000205000344000016000000000000000000000000000000000000000000000000000000000000000000REP       Presidential Electors                                   TRUMP, PENCE                          Safford #2                                             01 
03020010003000334000087000244000003000000000000000000000000000000000000000000000000000000000000000000REP       Presidential Electors                                   TRUMP, PENCE                          Safford #3                                             01 
03020010004000207000072000133000002000000000000000000000000000000000000000000000000000000000000000000REP       Presidential Electors                                   TRUMP, PENCE                          Layton #4                                              01 
03020010005000587000174000403000010000000000000000000000000000000000000000000000000000000000000000000REP       Presidential Electors                                   TRUMP, PENCE                          Layton #5                                              01 
03020010006000451000160000285000006000000000000000000000000000000000000000000000000000000000000000000REP       Presidential Electors                                   TRUMP, PENCE                          Thatcher #6                                            01 
03020010007000847000289000541000017000000000000000000000000000000000000000000000000000000000000000000REP       Presidential Electors                                   TRUMP, PENCE                          Thatcher #7                                            01 
03020010008000374000143000230000001000000000000000000000000000000000000000000000000000000000000000000REP       Presidential Electors                                   TRUMP, PENCE                          Central #8                                             01 
03020010009001239000509000706000024000000000000000000000000000000000000000000000000000000000000000000REP       Presidential Electors                                   TRUMP, PENCE                          Pima #9                                                01 
03020010010000159000068000091000000000000000000000000000000000000000000000000000000000000000000000000REP       Presidential Electors                                   TRUMP, PENCE                          Ft Thomas #10                                          01 
03020010011000042000027000014000001000000000000000000000000000000000000000000000000000000000000000000REP       Presidential Electors                                   TRUMP, PENCE                          Bylas #11                                              01 
03020010012000028000001000027000000000000000000000000000000000000000000000000000000000000000000000000REP       Presidential Electors                                   TRUMP, PENCE                          Klondyke #12                                           01 
03020010013000105000044000058000003000000000000000000000000000000000000000000000000000000000000000000REP       Presidential Electors                                   TRUMP, PENCE                          Bonita #13                                             01 
03020010014000186000055000128000003000000000000000000000000000000000000000000000000000000000000000000REP       Presidential Electors                                   TRUMP, PENCE                          Thunderbird #14                                        01 
03020010015000620000163000447000010000000000000000000000000000000000000000000000000000000000000000000REP       Presidential Electors                                   TRUMP, PENCE                          Safford #15                                            01 
03020010016000040000031000009000000000000000000000000000000000000000000000000000000000000000000000000REP       Presidential Electors                                   TRUMP, PENCE                          Peridot #16                                            01 
03020010017000109000033000074000002000000000000000000000000000000000000000000000000000000000000000000REP       Presidential Electors                                   TRUMP, PENCE                          Cactus #17                                             01 
03020010018000635000231000394000010000000000000000000000000000000000000000000000000000000000000000000REP       Presidential Electors                                   TRUMP, PENCE                          Jackson #18                                            01 
03020010019000606000202000394000010000000000000000000000000000000000000000000000000000000000000000000REP       Presidential Electors                                   TRUMP, PENCE                          Desert Hills #19                                       01 
03020010020000400000146000248000006000000000000000000000000000000000000000000000000000000000000000000REP       Presidential Electors                                   TRUMP, PENCE                          Artesia #20                                            01 
03020010021000052000012000040000000000000000000000000000000000000000000000000000000000000000000000000REP       Presidential Electors                                   TRUMP, PENCE                          Quatro Cerros #21                                      01 
03020010022000011000003000008000000000000000000000000000000000000000000000000000000000000000000000000REP       Presidential Electors                                   TRUMP, PENCE                          Gila River #22                                         01 
03020020001000205000061000142000002000000000000000000000000000000000000000000000000000000000000000000DEM       Presidential Electors                                   CLINTON, KAINE                        Solomon #1                                             01 
03020020002000302000085000212000005000000000000000000000000000000000000000000000000000000000000000000DEM       Presidential Electors                                   CLINTON, KAINE                        Safford #2                                             01 
03020020003000113000028000084000001000000000000000000000000000000000000000000000000000000000000000000DEM       Presidential Electors                                   CLINTON, KAINE                        Safford #3                                             01 
03020020004000136000022000113000001000000000000000000000000000000000000000000000000000000000000000000DEM       Presidential Electors                                   CLINTON, KAINE                        Layton #4                                              01 
03020020005000248000065000180000003000000000000000000000000000000000000000000000000000000000000000000DEM       Presidential Electors                                   CLINTON, KAINE                        Layton #5                                              01 
03020020006000061000015000045000001000000000000000000000000000000000000000000000000000000000000000000DEM       Presidential Electors                                   CLINTON, KAINE                        Thatcher #6                                            01 
03020020007000223000052000168000003000000000000000000000000000000000000000000000000000000000000000000DEM       Presidential Electors                                   CLINTON, KAINE                        Thatcher #7                                            01 
03020020008000033000008000025000000000000000000000000000000000000000000000000000000000000000000000000DEM       Presidential Electors                                   CLINTON, KAINE                        Central #8                                             01 
03020020009000225000083000138000004000000000000000000000000000000000000000000000000000000000000000000DEM       Presidential Electors                                   CLINTON, KAINE                        Pima #9                                                01 
03020020010000022000005000017000000000000000000000000000000000000000000000000000000000000000000000000DEM       Presidential Electors                                   CLINTON, KAINE                        Ft Thomas #10                                          01 
03020020011000605000491000113000001000000000000000000000000000000000000000000000000000000000000000000DEM       Presidential Electors                                   CLINTON, KAINE                        Bylas #11                                              01 
03020020012000015000001000014000000000000000000000000000000000000000000000000000000000000000000000000DEM       Presidential Electors                                   CLINTON, KAINE                        Klondyke #12                                           01 
03020020013000013000006000007000000000000000000000000000000000000000000000000000000000000000000000000DEM       Presidential Electors                                   CLINTON, KAINE                        Bonita #13                                             01 
03020020014000040000018000022000000000000000000000000000000000000000000000000000000000000000000000000DEM       Presidential Electors                                   CLINTON, KAINE                        Thunderbird #14                                        01 
03020020015000349000075000270000004000000000000000000000000000000000000000000000000000000000000000000DEM       Presidential Electors                                   CLINTON, KAINE                        Safford #15                                            01 
03020020016000349000291000058000000000000000000000000000000000000000000000000000000000000000000000000DEM       Presidential Electors                                   CLINTON, KAINE                        Peridot #16                                            01 
03020020017000037000005000032000000000000000000000000000000000000000000000000000000000000000000000000DEM       Presidential Electors                                   CLINTON, KAINE                        Cactus #17                                             01 
03020020018000117000032000085000000000000000000000000000000000000000000000000000000000000000000000000DEM       Presidential Electors                                   CLINTON, KAINE                        Jackson #18                                            01 
03020020019000108000021000086000001000000000000000000000000000000000000000000000000000000000000000000DEM       Presidential Electors                                   CLINTON, KAINE                        Desert Hills #19                                       01 
03020020020000080000024000055000001000000000000000000000000000000000000000000000000000000000000000000DEM       Presidential Electors                                   CLINTON, KAINE                        Artesia #20                                            01 
03020020021000010000001000009000000000000000000000000000000000000000000000000000000000000000000000000DEM       Presidential Electors                                   CLINTON, KAINE                        Quatro Cerros #21                                      01 
03020020022000010000001000009000000000000000000000000000000000000000000000000000000000000000000000000DEM       Presidential Electors                                   CLINTON, KAINE                        Gila River #22                                         01 
03020030001000029000012000016000001000000000000000000000000000000000000000000000000000000000000000000LBT       Presidential Electors                                   JOHNSON, WELD                         Solomon #1                                             01 
03020030002000037000017000020000000000000000000000000000000000000000000000000000000000000000000000000LBT       Presidential Electors                                   JOHNSON, WELD                         Safford #2                                             01 
03020030003000023000005000018000000000000000000000000000000000000000000000000000000000000000000000000LBT       Presidential Electors                                   JOHNSON, WELD                         Safford #3                                             01 
03020030004000019000004000015000000000000000000000000000000000000000000000000000000000000000000000000LBT       Presidential Electors                                   JOHNSON, WELD                         Layton #4                                              01 
03020030005000043000014000028000001000000000000000000000000000000000000000000000000000000000000000000LBT       Presidential Electors                                   JOHNSON, WELD                         Layton #5                                              01 
03020030006000027000006000020000001000000000000000000000000000000000000000000000000000000000000000000LBT       Presidential Electors                                   JOHNSON, WELD                         Thatcher #6                                            01 
03020030007000056000019000036000001000000000000000000000000000000000000000000000000000000000000000000LBT       Presidential Electors                                   JOHNSON, WELD                         Thatcher #7                                            01 
03020030008000017000007000010000000000000000000000000000000000000000000000000000000000000000000000000LBT       Presidential Electors                                   JOHNSON, WELD                         Central #8                                             01 
03020030009000047000019000028000000000000000000000000000000000000000000000000000000000000000000000000LBT       Presidential Electors                                   JOHNSON, WELD                         Pima #9                                                01 
03020030010000005000000000005000000000000000000000000000000000000000000000000000000000000000000000000LBT       Presidential Electors                                   JOHNSON, WELD                         Ft Thomas #10                                          01 
03020030011000018000011000007000000000000000000000000000000000000000000000000000000000000000000000000LBT       Presidential Electors                                   JOHNSON, WELD                         Bylas #11                                              01 
03020030012000001000000000001000000000000000000000000000000000000000000000000000000000000000000000000LBT       Presidential Electors                                   JOHNSON, WELD                         Klondyke #12                                           01 
03020030013000002000001000001000000000000000000000000000000000000000000000000000000000000000000000000LBT       Presidential Electors                                   JOHNSON, WELD                         Bonita #13                                             01 
03020030014000012000005000007000000000000000000000000000000000000000000000000000000000000000000000000LBT       Presidential Electors                                   JOHNSON, WELD                         Thunderbird #14                                        01 
03020030015000060000019000039000002000000000000000000000000000000000000000000000000000000000000000000LBT       Presidential Electors                                   JOHNSON, WELD                         Safford #15                                            01 
03020030016000008000008000000000000000000000000000000000000000000000000000000000000000000000000000000LBT       Presidential Electors                                   JOHNSON, WELD                         Peridot #16                                            01 
03020030017000006000002000004000000000000000000000000000000000000000000000000000000000000000000000000LBT       Presidential Electors                                   JOHNSON, WELD                         Cactus #17                                             01 
03020030018000038000013000024000001000000000000000000000000000000000000000000000000000000000000000000LBT       Presidential Electors                                   JOHNSON, WELD                         Jackson #18                                            01 
03020030019000026000004000020000002000000000000000000000000000000000000000000000000000000000000000000LBT       Presidential Electors                                   JOHNSON, WELD                         Desert Hills #19                                       01 
03020030020000021000006000015000000000000000000000000000000000000000000000000000000000000000000000000LBT       Presidential Electors                                   JOHNSON, WELD                         Artesia #20                                            01 
03020030021000002000001000001000000000000000000000000000000000000000000000000000000000000000000000000LBT       Presidential Electors                                   JOHNSON, WELD                         Quatro Cerros #21                                      01 
03020030022000000000000000000000000000000000000000000000000000000000000000000000000000000000000000000LBT       Presidential Electors                                   JOHNSON, WELD                         Gila River #22                                         01 
03020040001000005000002000003000000000000000000000000000000000000000000000000000000000000000000000000GRN       Presidential Electors                                   STEIN, BARAKA                         Solomon #1                                             01 
03020040002000012000001000011000000000000000000000000000000000000000000000000000000000000000000000000GRN       Presidential Electors                                   STEIN, BARAKA                         Safford #2                                             01 
03020040003000003000001000002000000000000000000000000000000000000000000000000000000000000000000000000GRN       Presidential Electors                                   STEIN, BARAKA                         Safford #3                                             01 
03020040004000004000003000001000000000000000000000000000000000000000000000000000000000000000000000000GRN       Presidential Electors                                   STEIN, BARAKA                         Layton #4                                              01 
03020040005000010000003000007000000000000000000000000000000000000000000000000000000000000000000000000GRN       Presidential Electors                                   STEIN, BARAKA                         Layton #5                                              01 
03020040006000003000001000002000000000000000000000000000000000000000000000000000000000000000000000000GRN       Presidential Electors                                   STEIN, BARAKA                         Thatcher #6                                            01 
03020040007000010000003000006000001000000000000000000000000000000000000000000000000000000000000000000GRN       Presidential Electors                                   STEIN, BARAKA                         Thatcher #7                                            01 
03020040008000003000002000001000000000000000000000000000000000000000000000000000000000000000000000000GRN       Presidential Electors                                   STEIN, BARAKA                         Central #8                                             01 
03020040009000016000006000010000000000000000000000000000000000000000000000000000000000000000000000000GRN       Presidential Electors                                   STEIN, BARAKA                         Pima #9                                                01 
03020040010000002000000000002000000000000000000000000000000000000000000000000000000000000000000000000GRN       Presidential Electors                                   STEIN, BARAKA                         Ft Thomas #10                                          01 
03020040011000006000005000001000000000000000000000000000000000000000000000000000000000000000000000000GRN       Presidential Electors                                   STEIN, BARAKA                         Bylas #11                                              01 
03020040012000000000000000000000000000000000000000000000000000000000000000000000000000000000000000000GRN       Presidential Electors                                   STEIN, BARAKA                         Klondyke #12                                           01 
03020040013000000000000000000000000000000000000000000000000000000000000000000000000000000000000000000GRN       Presidential Electors                                   STEIN, BARAKA                         Bonita #13                                             01 
03020040014000001000001000000000000000000000000000000000000000000000000000000000000000000000000000000GRN       Presidential Electors                                   STEIN, BARAKA                         Thunderbird #14                                        01 
03020040015000013000004000009000000000000000000000000000000000000000000000000000000000000000000000000GRN       Presidential Electors                                   STEIN, BARAKA                         Safford #15                                            01 
03020040016000008000006000002000000000000000000000000000000000000000000000000000000000000000000000000GRN       Presidential Electors                                   STEIN, BARAKA                         Peridot #16                                            01 
03020040017000001000001000000000000000000000000000000000000000000000000000000000000000000000000000000GRN       Presidential Electors                                   STEIN, BARAKA                         Cactus #17                                             01 
03020040018000008000004000004000000000000000000000000000000000000000000000000000000000000000000000000GRN       Presidential Electors                                   STEIN, BARAKA                         Jackson #18                                            01 
03020040019000008000002000006000000000000000000000000000000000000000000000000000000000000000000000000GRN       Presidential Electors                                   STEIN, BARAKA                         Desert Hills #19                                       01 
03020040020000003000002000001000000000000000000000000000000000000000000000000000000000000000000000000GRN       Presidential Electors                                   STEIN, BARAKA                         Artesia #20                                            01 
03020040021000000000000000000000000000000000000000000000000000000000000000000000000000000000000000000GRN       Presidential Electors                                   STEIN, BARAKA                         Quatro Cerros #21                                      01 
03020040022000000000000000000000000000000000000000000000000000000000000000000000000000000000000000000GRN       Presidential Electors                                   STEIN, BARAKA                         Gila River #22                                         01 
03020050001000016000003000013000000000000000000000000000000000000000000000000000000000000000000000000NON       Presidential Electors                                   WRITE-IN                              Solomon #1                                             01 
03020050002000017000009000008000000000000000000000000000000000000000000000000000000000000000000000000NON       Presidential Electors                                   WRITE-IN                              Safford #2                                             01 
03020050003000006000001000005000000000000000000000000000000000000000000000000000000000000000000000000NON       Presidential Electors                                   WRITE-IN                              Safford #3                                             01 
03020050004000012000001000011000000000000000000000000000000000000000000000000000000000000000000000000NON       Presidential Electors                                   WRITE-IN                              Layton #4                                              01 
03020050005000025000008000016000001000000000000000000000000000000000000000000000000000000000000000000NON       Presidential Electors                                   WRITE-IN                              Layton #5                                              01 
03020050006000032000012000020000000000000000000000000000000000000000000000000000000000000000000000000NON       Presidential Electors                                   WRITE-IN                              Thatcher #6                                            01 
03020050007000050000014000035000001000000000000000000000000000000000000000000000000000000000000000000NON       Presidential Electors                                   WRITE-IN                              Thatcher #7                                            01 
03020050008000018000006000011000001000000000000000000000000000000000000000000000000000000000000000000NON       Presidential Electors                                   WRITE-IN                              Central #8                                             01 
03020050009000053000018000034000001000000000000000000000000000000000000000000000000000000000000000000NON       Presidential Electors                                   WRITE-IN                              Pima #9                                                01 
03020050010000001000001000000000000000000000000000000000000000000000000000000000000000000000000000000NON       Presidential Electors                                   WRITE-IN                              Ft Thomas #10                                          01 
03020050011000019000015000004000000000000000000000000000000000000000000000000000000000000000000000000NON       Presidential Electors                                   WRITE-IN                              Bylas #11                                              01 
03020050012000000000000000000000000000000000000000000000000000000000000000000000000000000000000000000NON       Presidential Electors                                   WRITE-IN                              Klondyke #12                                           01 
03020050013000000000000000000000000000000000000000000000000000000000000000000000000000000000000000000NON       Presidential Electors                                   WRITE-IN                              Bonita #13                                             01 
03020050014000004000001000003000000000000000000000000000000000000000000000000000000000000000000000000NON       Presidential Electors                                   WRITE-IN                              Thunderbird #14                                        01 
03020050015000013000004000009000000000000000000000000000000000000000000000000000000000000000000000000NON       Presidential Electors                                   WRITE-IN                              Safford #15                                            01 
03020050016000003000002000001000000000000000000000000000000000000000000000000000000000000000000000000NON       Presidential Electors                                   WRITE-IN                              Peridot #16                                            01 
03020050017000003000000000003000000000000000000000000000000000000000000000000000000000000000000000000NON       Presidential Electors                                   WRITE-IN                              Cactus #17                                             01 
03020050018000037000008000029000000000000000000000000000000000000000000000000000000000000000000000000NON       Presidential Electors                                   WRITE-IN                              Jackson #18                                            01 
03020050019000021000004000017000000000000000000000000000000000000000000000000000000000000000000000000NON       Presidential Electors                                   WRITE-IN                              Desert Hills #19                                       01 
03020050020000011000000000010000001000000000000000000000000000000000000000000000000000000000000000000NON       Presidential Electors                                   WRITE-IN                              Artesia #20                                            01 
03020050021000001000000000001000000000000000000000000000000000000000000000000000000000000000000000000NON       Presidential Electors                                   WRITE-IN                              Quatro Cerros #21                                      01 
03020050022000000000000000000000000000000000000000000000000000000000000000000000000000000000000000000NON       Presidential Electors                                   WRITE-IN                              Gila River #22                                         01 
03020060001000001000001000000000000000000000000000000000000000000000000000000000000000000000000000000          Presidential Electors                                   OVER VOTES                            Solomon #1                                             01 
03020060002000006000000000006000000000000000000000000000000000000000000000000000000000000000000000000          Presidential Electors                                   OVER VOTES                            Safford #2                                             01 
03020060003000001000000000001000000000000000000000000000000000000000000000000000000000000000000000000          Presidential Electors                                   OVER VOTES                            Safford #3                                             01 
03020060004000000000000000000000000000000000000000000000000000000000000000000000000000000000000000000          Presidential Electors                                   OVER VOTES                            Layton #4                                              01 
03020060005000006000000000006000000000000000000000000000000000000000000000000000000000000000000000000          Presidential Electors                                   OVER VOTES                            Layton #5                                              01 
03020060006000003000001000002000000000000000000000000000000000000000000000000000000000000000000000000          Presidential Electors                                   OVER VOTES                            Thatcher #6                                            01 
03020060007000003000001000002000000000000000000000000000000000000000000000000000000000000000000000000          Presidential Electors                                   OVER VOTES                            Thatcher #7                                            01 
03020060008000001000001000000000000000000000000000000000000000000000000000000000000000000000000000000          Presidential Electors                                   OVER VOTES                            Central #8                                             01 
03020060009000003000001000002000000000000000000000000000000000000000000000000000000000000000000000000          Presidential Electors                                   OVER VOTES                            Pima #9                                                01 
03020060010000000000000000000000000000000000000000000000000000000000000000000000000000000000000000000          Presidential Electors                                   OVER VOTES                            Ft Thomas #10                                          01 
03020060011000006000003000003000000000000000000000000000000000000000000000000000000000000000000000000          Presidential Electors                                   OVER VOTES                            Bylas #11                                              01 
03020060012000000000000000000000000000000000000000000000000000000000000000000000000000000000000000000          Presidential Electors                                   OVER VOTES                            Klondyke #12                                           01 
03020060013000000000000000000000000000000000000000000000000000000000000000000000000000000000000000000          Presidential Electors                                   OVER VOTES                            Bonita #13                                             01 
03020060014000000000000000000000000000000000000000000000000000000000000000000000000000000000000000000          Presidential Electors                                   OVER VOTES                            Thunderbird #14                                        01 
03020060015000005000001000004000000000000000000000000000000000000000000000000000000000000000000000000          Presidential Electors                                   OVER VOTES                            Safford #15                                            01 
03020060016000005000005000000000000000000000000000000000000000000000000000000000000000000000000000000          Presidential Electors                                   OVER VOTES                            Peridot #16                                            01 
03020060017000000000000000000000000000000000000000000000000000000000000000000000000000000000000000000          Presidential Electors                                   OVER VOTES                            Cactus #17                                             01 
03020060018000002000000000002000000000000000000000000000000000000000000000000000000000000000000000000          Presidential Electors                                   OVER VOTES                            Jackson #18                                            01 
03020060019000003000000000003000000000000000000000000000000000000000000000000000000000000000000000000          Presidential Electors                                   OVER VOTES                            Desert Hills #19                                       01 
03020060020000002000000000002000000000000000000000000000000000000000000000000000000000000000000000000          Presidential Electors                                   OVER VOTES                            Artesia #20                                            01 
03020060021000000000000000000000000000000000000000000000000000000000000000000000000000000000000000000          Presidential Electors                                   OVER VOTES                            Quatro Cerros #21                                      01 
03020060022000000000000000000000000000000000000000000000000000000000000000000000000000000000000000000          Presidential Electors                                   OVER VOTES                            Gila River #22                                         01 
03020070001000021000006000015000000000000000000000000000000000000000000000000000000000000000000000000          Presidential Electors                                   UNDER VOTES                           Solomon #1                                             01 
03020070002000014000004000009000001000000000000000000000000000000000000000000000000000000000000000000          Presidential Electors                                   UNDER VOTES                           Safford #2                                             01 
03020070003000009000000000009000000000000000000000000000000000000000000000000000000000000000000000000          Presidential Electors                                   UNDER VOTES                           Safford #3                                             01 
03020070004000008000001000007000000000000000000000000000000000000000000000000000000000000000000000000          Presidential Electors                                   UNDER VOTES                           Layton #4                                              01 
03020070005000011000003000008000000000000000000000000000000000000000000000000000000000000000000000000          Presidential Electors                                   UNDER VOTES                           Layton #5                                              01 
03020070006000007000002000005000000000000000000000000000000000000000000000000000000000000000000000000          Presidential Electors                                   UNDER VOTES                           Thatcher #6                                            01 
03020070007000025000007000018000000000000000000000000000000000000000000000000000000000000000000000000          Presidential Electors                                   UNDER VOTES                           Thatcher #7                                            01 
03020070008000005000000000005000000000000000000000000000000000000000000000000000000000000000000000000          Presidential Electors                                   UNDER VOTES                           Central #8                                             01 
03020070009000032000007000025000000000000000000000000000000000000000000000000000000000000000000000000          Presidential Electors                                   UNDER VOTES                           Pima #9                                                01 
03020070010000006000001000005000000000000000000000000000000000000000000000000000000000000000000000000          Presidential Electors                                   UNDER VOTES                           Ft Thomas #10                                          01 
03020070011000018000010000008000000000000000000000000000000000000000000000000000000000000000000000000          Presidential Electors                                   UNDER VOTES                           Bylas #11                                              01 
03020070012000000000000000000000000000000000000000000000000000000000000000000000000000000000000000000          Presidential Electors                                   UNDER VOTES                           Klondyke #12                                           01 
03020070013000001000000000001000000000000000000000000000000000000000000000000000000000000000000000000          Presidential Electors                                   UNDER VOTES                           Bonita #13                                             01 
03020070014000002000001000001000000000000000000000000000000000000000000000000000000000000000000000000          Presidential Electors                                   UNDER VOTES                           Thunderbird #14                                        01 
03020070015000019000004000015000000000000000000000000000000000000000000000000000000000000000000000000          Presidential Electors                                   UNDER VOTES                           Safford #15                                            01 
03020070016000008000007000001000000000000000000000000000000000000000000000000000000000000000000000000          Presidential Electors                                   UNDER VOTES                           Peridot #16                                            01 
03020070017000000000000000000000000000000000000000000000000000000000000000000000000000000000000000000          Presidential Electors                                   UNDER VOTES                           Cactus #17                                             01 
03020070018000010000004000006000000000000000000000000000000000000000000000000000000000000000000000000          Presidential Electors                                   UNDER VOTES                           Jackson #18                                            01 
03020070019000011000003000008000000000000000000000000000000000000000000000000000000000000000000000000          Presidential Electors                                   UNDER VOTES                           Desert Hills #19                                       01 
03020070020000000000000000000000000000000000000000000000000000000000000000000000000000000000000000000          Presidential Electors                                   UNDER VOTES                           Artesia #20                                            01 
03020070021000000000000000000000000000000000000000000000000000000000000000000000000000000000000000000          Presidential Electors                                   UNDER VOTES                           Quatro Cerros #21                                      01 
03020070022000000000000000000000000000000000000000000000000000000000000000000000000000000000000000000          Presidential Electors                                   UNDER VOTES                           Gila River #22                                         01 
03030010001000394000128000264000002000000000000000000000000000000000000000000000000000000000000000000REP       United States Senator                                   MCCAIN, JOHN                          Solomon #1                                             01 
03030010002000558000211000331000016000000000000000000000000000000000000000000000000000000000000000000REP       United States Senator                                   MCCAIN, JOHN                          Safford #2                                             01 
03030010003000319000081000235000003000000000000000000000000000000000000000000000000000000000000000000REP       United States Senator                                   MCCAIN, JOHN                          Safford #3                                             01 
03030010004000226000062000162000002000000000000000000000000000000000000000000000000000000000000000000REP       United States Senator                                   MCCAIN, JOHN                          Layton #4                                              01 
03030010005000590000169000411000010000000000000000000000000000000000000000000000000000000000000000000REP       United States Senator                                   MCCAIN, JOHN                          Layton #5                                              01 
03030010006000442000158000277000007000000000000000000000000000000000000000000000000000000000000000000REP       United States Senator                                   MCCAIN, JOHN                          Thatcher #6                                            01 
03030010007000837000281000538000018000000000000000000000000000000000000000000000000000000000000000000REP       United States Senator                                   MCCAIN, JOHN                          Thatcher #7                                            01 
03030010008000370000134000234000002000000000000000000000000000000000000000000000000000000000000000000REP       United States Senator                                   MCCAIN, JOHN                          Central #8                                             01 
03030010009001122000464000639000019000000000000000000000000000000000000000000000000000000000000000000REP       United States Senator                                   MCCAIN, JOHN                          Pima #9                                                01 
03030010010000131000054000077000000000000000000000000000000000000000000000000000000000000000000000000REP       United States Senator                                   MCCAIN, JOHN                          Ft Thomas #10                                          01 
03030010011000133000107000025000001000000000000000000000000000000000000000000000000000000000000000000REP       United States Senator                                   MCCAIN, JOHN                          Bylas #11                                              01 
03030010012000019000001000018000000000000000000000000000000000000000000000000000000000000000000000000REP       United States Senator                                   MCCAIN, JOHN                          Klondyke #12                                           01 
03030010013000090000042000045000003000000000000000000000000000000000000000000000000000000000000000000REP       United States Senator                                   MCCAIN, JOHN                          Bonita #13                                             01 
03030010014000159000051000105000003000000000000000000000000000000000000000000000000000000000000000000REP       United States Senator                                   MCCAIN, JOHN                          Thunderbird #14                                        01 
03030010015000633000165000457000011000000000000000000000000000000000000000000000000000000000000000000REP       United States Senator                                   MCCAIN, JOHN                          Safford #15                                            01 
03030010016000075000066000009000000000000000000000000000000000000000000000000000000000000000000000000REP       United States Senator                                   MCCAIN, JOHN                          Peridot #16                                            01 
03030010017000102000028000072000002000000000000000000000000000000000000000000000000000000000000000000REP       United States Senator                                   MCCAIN, JOHN                          Cactus #17                                             01 
03030010018000633000228000394000011000000000000000000000000000000000000000000000000000000000000000000REP       United States Senator                                   MCCAIN, JOHN                          Jackson #18                                            01 
03030010019000508000159000340000009000000000000000000000000000000000000000000000000000000000000000000REP       United States Senator                                   MCCAIN, JOHN                          Desert Hills #19                                       01 
03030010020000341000126000210000005000000000000000000000000000000000000000000000000000000000000000000REP       United States Senator                                   MCCAIN, JOHN                          Artesia #20                                            01 
03030010021000037000006000031000000000000000000000000000000000000000000000000000000000000000000000000REP       United States Senator                                   MCCAIN, JOHN                          Quatro Cerros #21                                      01 
03030010022000009000003000006000000000000000000000000000000000000000000000000000000000000000000000000REP       United States Senator                                   MCCAIN, JOHN                          Gila River #22                                         01 
03030020001000217000061000153000003000000000000000000000000000000000000000000000000000000000000000000DEM       United States Senator                                   KIRKPATRICK, ANN                      Solomon #1                                             01 
03030020002000303000089000211000003000000000000000000000000000000000000000000000000000000000000000000DEM       United States Senator                                   KIRKPATRICK, ANN                      Safford #2                                             01 
03030020003000113000031000081000001000000000000000000000000000000000000000000000000000000000000000000DEM       United States Senator                                   KIRKPATRICK, ANN                      Safford #3                                             01 
03030020004000120000026000093000001000000000000000000000000000000000000000000000000000000000000000000DEM       United States Senator                                   KIRKPATRICK, ANN                      Layton #4                                              01 
03030020005000246000073000171000002000000000000000000000000000000000000000000000000000000000000000000DEM       United States Senator                                   KIRKPATRICK, ANN                      Layton #5                                              01 
03030020006000066000017000049000000000000000000000000000000000000000000000000000000000000000000000000DEM       United States Senator                                   KIRKPATRICK, ANN                      Thatcher #6                                            01 
03030020007000247000070000172000005000000000000000000000000000000000000000000000000000000000000000000DEM       United States Senator                                   KIRKPATRICK, ANN                      Thatcher #7                                            01 
03030020008000048000020000028000000000000000000000000000000000000000000000000000000000000000000000000DEM       United States Senator                                   KIRKPATRICK, ANN                      Central #8                                             01 
03030020009000258000107000146000005000000000000000000000000000000000000000000000000000000000000000000DEM       United States Senator                                   KIRKPATRICK, ANN                      Pima #9                                                01 
03030020010000026000008000018000000000000000000000000000000000000000000000000000000000000000000000000DEM       United States Senator                                   KIRKPATRICK, ANN                      Ft Thomas #10                                          01 
03030020011000503000395000107000001000000000000000000000000000000000000000000000000000000000000000000DEM       United States Senator                                   KIRKPATRICK, ANN                      Bylas #11                                              01 
03030020012000021000001000020000000000000000000000000000000000000000000000000000000000000000000000000DEM       United States Senator                                   KIRKPATRICK, ANN                      Klondyke #12                                           01 
03030020013000017000008000009000000000000000000000000000000000000000000000000000000000000000000000000DEM       United States Senator                                   KIRKPATRICK, ANN                      Bonita #13                                             01 
03030020014000049000021000028000000000000000000000000000000000000000000000000000000000000000000000000DEM       United States Senator                                   KIRKPATRICK, ANN                      Thunderbird #14                                        01 
03030020015000318000076000237000005000000000000000000000000000000000000000000000000000000000000000000DEM       United States Senator                                   KIRKPATRICK, ANN                      Safford #15                                            01 
03030020016000290000246000044000000000000000000000000000000000000000000000000000000000000000000000000DEM       United States Senator                                   KIRKPATRICK, ANN                      Peridot #16                                            01 
03030020017000036000011000025000000000000000000000000000000000000000000000000000000000000000000000000DEM       United States Senator                                   KIRKPATRICK, ANN                      Cactus #17                                             01 
03030020018000138000040000098000000000000000000000000000000000000000000000000000000000000000000000000DEM       United States Senator                                   KIRKPATRICK, ANN                      Jackson #18                                            01 
03030020019000157000037000119000001000000000000000000000000000000000000000000000000000000000000000000DEM       United States Senator                                   KIRKPATRICK, ANN                      Desert Hills #19                                       01 
03030020020000085000023000061000001000000000000000000000000000000000000000000000000000000000000000000DEM       United States Senator                                   KIRKPATRICK, ANN                      Artesia #20                                            01 
03030020021000014000005000009000000000000000000000000000000000000000000000000000000000000000000000000DEM       United States Senator                                   KIRKPATRICK, ANN                      Quatro Cerros #21                                      01 
03030020022000008000001000007000000000000000000000000000000000000000000000000000000000000000000000000DEM       United States Senator                                   KIRKPATRICK, ANN                      Gila River #22                                         01 
03030030001000052000025000027000000000000000000000000000000000000000000000000000000000000000000000000GRN       United States Senator                                   SWING, GARY                           Solomon #1                                             01 
03030030002000051000012000037000002000000000000000000000000000000000000000000000000000000000000000000GRN       United States Senator                                   SWING, GARY                           Safford #2                                             01 
03030030003000028000006000022000000000000000000000000000000000000000000000000000000000000000000000000GRN       United States Senator                                   SWING, GARY                           Safford #3                                             01 
03030030004000021000009000012000000000000000000000000000000000000000000000000000000000000000000000000GRN       United States Senator                                   SWING, GARY                           Layton #4                                              01 
03030030005000054000011000040000003000000000000000000000000000000000000000000000000000000000000000000GRN       United States Senator                                   SWING, GARY                           Layton #5                                              01 
03030030006000043000016000026000001000000000000000000000000000000000000000000000000000000000000000000GRN       United States Senator                                   SWING, GARY                           Thatcher #6                                            01 
03030030007000078000024000054000000000000000000000000000000000000000000000000000000000000000000000000GRN       United States Senator                                   SWING, GARY                           Thatcher #7                                            01 
03030030008000018000010000008000000000000000000000000000000000000000000000000000000000000000000000000GRN       United States Senator                                   SWING, GARY                           Central #8                                             01 
03030030009000122000036000083000003000000000000000000000000000000000000000000000000000000000000000000GRN       United States Senator                                   SWING, GARY                           Pima #9                                                01 
03030030010000024000009000015000000000000000000000000000000000000000000000000000000000000000000000000GRN       United States Senator                                   SWING, GARY                           Ft Thomas #10                                          01 
03030030011000046000036000010000000000000000000000000000000000000000000000000000000000000000000000000GRN       United States Senator                                   SWING, GARY                           Bylas #11                                              01 
03030030012000002000000000002000000000000000000000000000000000000000000000000000000000000000000000000GRN       United States Senator                                   SWING, GARY                           Klondyke #12                                           01 
03030030013000003000001000002000000000000000000000000000000000000000000000000000000000000000000000000GRN       United States Senator                                   SWING, GARY                           Bonita #13                                             01 
03030030014000011000003000008000000000000000000000000000000000000000000000000000000000000000000000000GRN       United States Senator                                   SWING, GARY                           Thunderbird #14                                        01 
03030030015000068000024000044000000000000000000000000000000000000000000000000000000000000000000000000GRN       United States Senator                                   SWING, GARY                           Safford #15                                            01 
03030030016000047000031000016000000000000000000000000000000000000000000000000000000000000000000000000GRN       United States Senator                                   SWING, GARY                           Peridot #16                                            01 
03030030017000010000002000008000000000000000000000000000000000000000000000000000000000000000000000000GRN       United States Senator                                   SWING, GARY                           Cactus #17                                             01 
03030030018000044000016000028000000000000000000000000000000000000000000000000000000000000000000000000GRN       United States Senator                                   SWING, GARY                           Jackson #18                                            01 
03030030019000072000022000049000001000000000000000000000000000000000000000000000000000000000000000000GRN       United States Senator                                   SWING, GARY                           Desert Hills #19                                       01 
03030030020000062000020000040000002000000000000000000000000000000000000000000000000000000000000000000GRN       United States Senator                                   SWING, GARY                           Artesia #20                                            01 
03030030021000012000003000009000000000000000000000000000000000000000000000000000000000000000000000000GRN       United States Senator                                   SWING, GARY                           Quatro Cerros #21                                      01 
03030030022000003000000000003000000000000000000000000000000000000000000000000000000000000000000000000GRN       United States Senator                                   SWING, GARY                           Gila River #22                                         01 
03030040001000010000004000006000000000000000000000000000000000000000000000000000000000000000000000000NON       United States Senator                                   WRITE-IN                              Solomon #1                                             01 
03030040002000011000003000008000000000000000000000000000000000000000000000000000000000000000000000000NON       United States Senator                                   WRITE-IN                              Safford #2                                             01 
03030040003000004000000000004000000000000000000000000000000000000000000000000000000000000000000000000NON       United States Senator                                   WRITE-IN                              Safford #3                                             01 
03030040004000002000001000001000000000000000000000000000000000000000000000000000000000000000000000000NON       United States Senator                                   WRITE-IN                              Layton #4                                              01 
03030040005000006000005000001000000000000000000000000000000000000000000000000000000000000000000000000NON       United States Senator                                   WRITE-IN                              Layton #5                                              01 
03030040006000007000002000005000000000000000000000000000000000000000000000000000000000000000000000000NON       United States Senator                                   WRITE-IN                              Thatcher #6                                            01 
03030040007000008000001000007000000000000000000000000000000000000000000000000000000000000000000000000NON       United States Senator                                   WRITE-IN                              Thatcher #7                                            01 
03030040008000001000000000001000000000000000000000000000000000000000000000000000000000000000000000000NON       United States Senator                                   WRITE-IN                              Central #8                                             01 
03030040009000026000007000018000001000000000000000000000000000000000000000000000000000000000000000000NON       United States Senator                                   WRITE-IN                              Pima #9                                                01 
03030040010000003000001000002000000000000000000000000000000000000000000000000000000000000000000000000NON       United States Senator                                   WRITE-IN                              Ft Thomas #10                                          01 
03030040011000001000001000000000000000000000000000000000000000000000000000000000000000000000000000000NON       United States Senator                                   WRITE-IN                              Bylas #11                                              01 
03030040012000000000000000000000000000000000000000000000000000000000000000000000000000000000000000000NON       United States Senator                                   WRITE-IN                              Klondyke #12                                           01 
03030040013000004000000000004000000000000000000000000000000000000000000000000000000000000000000000000NON       United States Senator                                   WRITE-IN                              Bonita #13                                             01 
03030040014000003000003000000000000000000000000000000000000000000000000000000000000000000000000000000NON       United States Senator                                   WRITE-IN                              Thunderbird #14                                        01 
03030040015000005000000000005000000000000000000000000000000000000000000000000000000000000000000000000NON       United States Senator                                   WRITE-IN                              Safford #15                                            01 
03030040016000000000000000000000000000000000000000000000000000000000000000000000000000000000000000000NON       United States Senator                                   WRITE-IN                              Peridot #16                                            01 
03030040017000000000000000000000000000000000000000000000000000000000000000000000000000000000000000000NON       United States Senator                                   WRITE-IN                              Cactus #17                                             01 
03030040018000002000001000001000000000000000000000000000000000000000000000000000000000000000000000000NON       United States Senator                                   WRITE-IN                              Jackson #18                                            01 
03030040019000006000005000001000000000000000000000000000000000000000000000000000000000000000000000000NON       United States Senator                                   WRITE-IN                              Desert Hills #19                                       01 
03030040020000008000003000005000000000000000000000000000000000000000000000000000000000000000000000000NON       United States Senator                                   WRITE-IN                              Artesia #20                                            01 
03030040021000000000000000000000000000000000000000000000000000000000000000000000000000000000000000000NON       United States Senator                                   WRITE-IN                              Quatro Cerros #21                                      01 
03030040022000000000000000000000000000000000000000000000000000000000000000000000000000000000000000000NON       United States Senator                                   WRITE-IN                              Gila River #22                                         01 
03030050001000001000000000001000000000000000000000000000000000000000000000000000000000000000000000000          United States Senator                                   OVER VOTES                            Solomon #1                                             01 
03030050002000003000001000002000000000000000000000000000000000000000000000000000000000000000000000000          United States Senator                                   OVER VOTES                            Safford #2                                             01 
03030050003000000000000000000000000000000000000000000000000000000000000000000000000000000000000000000          United States Senator                                   OVER VOTES                            Safford #3                                             01 
03030050004000000000000000000000000000000000000000000000000000000000000000000000000000000000000000000          United States Senator                                   OVER VOTES                            Layton #4                                              01 
03030050005000001000000000001000000000000000000000000000000000000000000000000000000000000000000000000          United States Senator                                   OVER VOTES                            Layton #5                                              01 
03030050006000001000000000001000000000000000000000000000000000000000000000000000000000000000000000000          United States Senator                                   OVER VOTES                            Thatcher #6                                            01 
03030050007000000000000000000000000000000000000000000000000000000000000000000000000000000000000000000          United States Senator                                   OVER VOTES                            Thatcher #7                                            01 
03030050008000000000000000000000000000000000000000000000000000000000000000000000000000000000000000000          United States Senator                                   OVER VOTES                            Central #8                                             01 
03030050009000006000002000004000000000000000000000000000000000000000000000000000000000000000000000000          United States Senator                                   OVER VOTES                            Pima #9                                                01 
03030050010000000000000000000000000000000000000000000000000000000000000000000000000000000000000000000          United States Senator                                   OVER VOTES                            Ft Thomas #10                                          01 
03030050011000000000000000000000000000000000000000000000000000000000000000000000000000000000000000000          United States Senator                                   OVER VOTES                            Bylas #11                                              01 
03030050012000000000000000000000000000000000000000000000000000000000000000000000000000000000000000000          United States Senator                                   OVER VOTES                            Klondyke #12                                           01 
03030050013000000000000000000000000000000000000000000000000000000000000000000000000000000000000000000          United States Senator                                   OVER VOTES                            Bonita #13                                             01 
03030050014000001000000000001000000000000000000000000000000000000000000000000000000000000000000000000          United States Senator                                   OVER VOTES                            Thunderbird #14                                        01 
03030050015000001000000000001000000000000000000000000000000000000000000000000000000000000000000000000          United States Senator                                   OVER VOTES                            Safford #15                                            01 
03030050016000000000000000000000000000000000000000000000000000000000000000000000000000000000000000000          United States Senator                                   OVER VOTES                            Peridot #16                                            01 
03030050017000000000000000000000000000000000000000000000000000000000000000000000000000000000000000000          United States Senator                                   OVER VOTES                            Cactus #17                                             01 
03030050018000001000000000001000000000000000000000000000000000000000000000000000000000000000000000000          United States Senator                                   OVER VOTES                            Jackson #18                                            01 
03030050019000000000000000000000000000000000000000000000000000000000000000000000000000000000000000000          United States Senator                                   OVER VOTES                            Desert Hills #19                                       01 
03030050020000000000000000000000000000000000000000000000000000000000000000000000000000000000000000000          United States Senator                                   OVER VOTES                            Artesia #20                                            01 
03030050021000000000000000000000000000000000000000000000000000000000000000000000000000000000000000000          United States Senator                                   OVER VOTES                            Quatro Cerros #21                                      01 
03030050022000000000000000000000000000000000000000000000000000000000000000000000000000000000000000000          United States Senator                                   OVER VOTES                            Gila River #22                                         01 
03030060001000031000008000023000000000000000000000000000000000000000000000000000000000000000000000000          United States Senator                                   UNDER VOTES                           Solomon #1                                             01 
03030060002000027000005000021000001000000000000000000000000000000000000000000000000000000000000000000          United States Senator                                   UNDER VOTES                           Safford #2                                             01 
03030060003000025000004000021000000000000000000000000000000000000000000000000000000000000000000000000          United States Senator                                   UNDER VOTES                           Safford #3                                             01 
03030060004000017000005000012000000000000000000000000000000000000000000000000000000000000000000000000          United States Senator                                   UNDER VOTES                           Layton #4                                              01 
03030060005000033000009000024000000000000000000000000000000000000000000000000000000000000000000000000          United States Senator                                   UNDER VOTES                           Layton #5                                              01 
03030060006000025000004000021000000000000000000000000000000000000000000000000000000000000000000000000          United States Senator                                   UNDER VOTES                           Thatcher #6                                            01 
03030060007000044000009000035000000000000000000000000000000000000000000000000000000000000000000000000          United States Senator                                   UNDER VOTES                           Thatcher #7                                            01 
03030060008000014000003000011000000000000000000000000000000000000000000000000000000000000000000000000          United States Senator                                   UNDER VOTES                           Central #8                                             01 
03030060009000081000027000053000001000000000000000000000000000000000000000000000000000000000000000000          United States Senator                                   UNDER VOTES                           Pima #9                                                01 
03030060010000011000003000008000000000000000000000000000000000000000000000000000000000000000000000000          United States Senator                                   UNDER VOTES                           Ft Thomas #10                                          01 
03030060011000031000023000008000000000000000000000000000000000000000000000000000000000000000000000000          United States Senator                                   UNDER VOTES                           Bylas #11                                              01 
03030060012000002000000000002000000000000000000000000000000000000000000000000000000000000000000000000          United States Senator                                   UNDER VOTES                           Klondyke #12                                           01 
03030060013000007000000000007000000000000000000000000000000000000000000000000000000000000000000000000          United States Senator                                   UNDER VOTES                           Bonita #13                                             01 
03030060014000022000003000019000000000000000000000000000000000000000000000000000000000000000000000000          United States Senator                                   UNDER VOTES                           Thunderbird #14                                        01 
03030060015000054000005000049000000000000000000000000000000000000000000000000000000000000000000000000          United States Senator                                   UNDER VOTES                           Safford #15                                            01 
03030060016000009000007000002000000000000000000000000000000000000000000000000000000000000000000000000          United States Senator                                   UNDER VOTES                           Peridot #16                                            01 
03030060017000008000000000008000000000000000000000000000000000000000000000000000000000000000000000000          United States Senator                                   UNDER VOTES                           Cactus #17                                             01 
03030060018000029000007000022000000000000000000000000000000000000000000000000000000000000000000000000          United States Senator                                   UNDER VOTES                           Jackson #18                                            01 
03030060019000040000013000025000002000000000000000000000000000000000000000000000000000000000000000000          United States Senator                                   UNDER VOTES                           Desert Hills #19                                       01 
03030060020000021000006000015000000000000000000000000000000000000000000000000000000000000000000000000          United States Senator                                   UNDER VOTES                           Artesia #20                                            01 
03030060021000002000000000002000000000000000000000000000000000000000000000000000000000000000000000000          United States Senator                                   UNDER VOTES                           Quatro Cerros #21                                      01 
03030060022000001000000000001000000000000000000000000000000000000000000000000000000000000000000000000          United States Senator                                   UNDER VOTES                           Gila River #22                                         01 
03040010001000357000118000235000004000000000000000000000000000000000000000000000000000000000000000000REP       U.S. Rep in Congress Dist 1                             BABEU, PAUL                           Solomon #1                                             01 
03040010002000464000162000290000012000000000000000000000000000000000000000000000000000000000000000000REP       U.S. Rep in Congress Dist 1                             BABEU, PAUL                           Safford #2                                             01 
03040010003000285000072000210000003000000000000000000000000000000000000000000000000000000000000000000REP       U.S. Rep in Congress Dist 1                             BABEU, PAUL                           Safford #3                                             01 
03040010004000178000059000117000002000000000000000000000000000000000000000000000000000000000000000000REP       U.S. Rep in Congress Dist 1                             BABEU, PAUL                           Layton #4                                              01 
03040010005000491000145000337000009000000000000000000000000000000000000000000000000000000000000000000REP       U.S. Rep in Congress Dist 1                             BABEU, PAUL                           Layton #5                                              01 
03040010006000406000147000252000007000000000000000000000000000000000000000000000000000000000000000000REP       U.S. Rep in Congress Dist 1                             BABEU, PAUL                           Thatcher #6                                            01 
03040010007000695000240000440000015000000000000000000000000000000000000000000000000000000000000000000REP       U.S. Rep in Congress Dist 1                             BABEU, PAUL                           Thatcher #7                                            01 
03040010008000308000127000179000002000000000000000000000000000000000000000000000000000000000000000000REP       U.S. Rep in Congress Dist 1                             BABEU, PAUL                           Central #8                                             01 
03040010009001029000426000586000017000000000000000000000000000000000000000000000000000000000000000000REP       U.S. Rep in Congress Dist 1                             BABEU, PAUL                           Pima #9                                                01 
03040010010000124000055000069000000000000000000000000000000000000000000000000000000000000000000000000REP       U.S. Rep in Congress Dist 1                             BABEU, PAUL                           Ft Thomas #10                                          01 
03040010011000110000092000018000000000000000000000000000000000000000000000000000000000000000000000000REP       U.S. Rep in Congress Dist 1                             BABEU, PAUL                           Bylas #11                                              01 
03040010012000019000001000018000000000000000000000000000000000000000000000000000000000000000000000000REP       U.S. Rep in Congress Dist 1                             BABEU, PAUL                           Klondyke #12                                           01 
03040010013000088000034000053000001000000000000000000000000000000000000000000000000000000000000000000REP       U.S. Rep in Congress Dist 1                             BABEU, PAUL                           Bonita #13                                             01 
03040010014000146000045000099000002000000000000000000000000000000000000000000000000000000000000000000REP       U.S. Rep in Congress Dist 1                             BABEU, PAUL                           Thunderbird #14                                        01 
03040010015000489000139000338000012000000000000000000000000000000000000000000000000000000000000000000REP       U.S. Rep in Congress Dist 1                             BABEU, PAUL                           Safford #15                                            01 
03040010016000060000049000011000000000000000000000000000000000000000000000000000000000000000000000000REP       U.S. Rep in Congress Dist 1                             BABEU, PAUL                           Peridot #16                                            01 
03040010017000080000024000054000002000000000000000000000000000000000000000000000000000000000000000000REP       U.S. Rep in Congress Dist 1                             BABEU, PAUL                           Cactus #17                                             01 
03040010018000554000202000344000008000000000000000000000000000000000000000000000000000000000000000000REP       U.S. Rep in Congress Dist 1                             BABEU, PAUL                           Jackson #18                                            01 
03040010019000486000173000304000009000000000000000000000000000000000000000000000000000000000000000000REP       U.S. Rep in Congress Dist 1                             BABEU, PAUL                           Desert Hills #19                                       01 
03040010020000308000115000186000007000000000000000000000000000000000000000000000000000000000000000000REP       U.S. Rep in Congress Dist 1                             BABEU, PAUL                           Artesia #20                                            01 
03040010021000032000006000026000000000000000000000000000000000000000000000000000000000000000000000000REP       U.S. Rep in Congress Dist 1                             BABEU, PAUL                           Quatro Cerros #21                                      01 
03040010022000006000002000004000000000000000000000000000000000000000000000000000000000000000000000000REP       U.S. Rep in Congress Dist 1                             BABEU, PAUL                           Gila River #22                                         01 
03040020001000250000078000172000000000000000000000000000000000000000000000000000000000000000000000000DEM       U.S. Rep in Congress Dist 1                             O'HALLERAN, TOM                       Solomon #1                                             01 
03040020002000380000124000251000005000000000000000000000000000000000000000000000000000000000000000000DEM       U.S. Rep in Congress Dist 1                             O'HALLERAN, TOM                       Safford #2                                             01 
03040020003000153000040000112000001000000000000000000000000000000000000000000000000000000000000000000DEM       U.S. Rep in Congress Dist 1                             O'HALLERAN, TOM                       Safford #3                                             01 
