00010010001000019000000000000000000000000000000000000000000000000000000000000000000000000000000000000          REGISTERED VOTERS - TOTAL                               REGISTERED VOTERS - TOTAL             001 Eagle                                              00 
00010010002000037000000000000000000000000000000000000000000000000000000000000000000000000000000000000          REGISTERED VOTERS - TOTAL                               REGISTERED VOTERS - TOTAL             002 Blue                                               00 
00010010003000908000000000000000000000000000000000000000000000000000000000000000000000000000000000000          REGISTERED VOTERS - TOTAL                               REGISTERED VOTERS - TOTAL             003 Clifton 1                                          00 
00010010004000570000000000000000000000000000000000000000000000000000000000000000000000000000000000000          REGISTERED VOTERS - TOTAL                               REGISTERED VOTERS - TOTAL             004 Clifton 2                                          00 
00010010005001168000000000000000000000000000000000000000000000000000000000000000000000000000000000000          REGISTERED VOTERS - TOTAL                               REGISTERED VOTERS - TOTAL             005 Morenci                                            00 
00010010006000368000000000000000000000000000000000000000000000000000000000000000000000000000000000000          REGISTERED VOTERS - TOTAL                               REGISTERED VOTERS - TOTAL             006 East Plantsite                                     00 
00010010007000699000000000000000000000000000000000000000000000000000000000000000000000000000000000000          REGISTERED VOTERS - TOTAL                               REGISTERED VOTERS - TOTAL             007 York/Sheldon                                       00 
00010010008000933000000000000000000000000000000000000000000000000000000000000000000000000000000000000          REGISTERED VOTERS - TOTAL                               REGISTERED VOTERS - TOTAL             008 Duncan                                             00 
00020010001000016000001000015000000000000000000000000000000000000000000000000000000000000000000000000          BALLOTS CAST - TOTAL                                    BALLOTS CAST - TOTAL                  001 Eagle                                              00 
00020010002000029000012000017000000000000000000000000000000000000000000000000000000000000000000000000          BALLOTS CAST - TOTAL                                    BALLOTS CAST - TOTAL                  002 Blue                                               00 
00020010003000626000129000476000021000000000000000000000000000000000000000000000000000000000000000000          BALLOTS CAST - TOTAL                                    BALLOTS CAST - TOTAL                  003 Clifton 1                                          00 
00020010004000427000092000324000011000000000000000000000000000000000000000000000000000000000000000000          BALLOTS CAST - TOTAL                                    BALLOTS CAST - TOTAL                  004 Clifton 2                                          00 
00020010005000783000262000466000055000000000000000000000000000000000000000000000000000000000000000000          BALLOTS CAST - TOTAL                                    BALLOTS CAST - TOTAL                  005 Morenci                                            00 
00020010006000236000088000133000015000000000000000000000000000000000000000000000000000000000000000000          BALLOTS CAST - TOTAL                                    BALLOTS CAST - TOTAL                  006 East Plantsite                                     00 
00020010007000547000142000387000018000000000000000000000000000000000000000000000000000000000000000000          BALLOTS CAST - TOTAL                                    BALLOTS CAST - TOTAL                  007 York/Sheldon                                       00 
00020010008000712000192000492000028000000000000000000000000000000000000000000000000000000000000000000          BALLOTS CAST - TOTAL                                    BALLOTS CAST - TOTAL                  008 Duncan                                             00 
00030010001000000000000000000000000000000000000000000000000000000000000000000000000000000000000000000          BALLOTS CAST - BLANK                                    BALLOTS CAST - BLANK                  001 Eagle                                              00 
00030010002000000000000000000000000000000000000000000000000000000000000000000000000000000000000000000          BALLOTS CAST - BLANK                                    BALLOTS CAST - BLANK                  002 Blue                                               00 
00030010003000001000000000001000000000000000000000000000000000000000000000000000000000000000000000000          BALLOTS CAST - BLANK                                    BALLOTS CAST - BLANK                  003 Clifton 1                                          00 
00030010004000000000000000000000000000000000000000000000000000000000000000000000000000000000000000000          BALLOTS CAST - BLANK                                    BALLOTS CAST - BLANK                  004 Clifton 2                                          00 
00030010005000000000000000000000000000000000000000000000000000000000000000000000000000000000000000000          BALLOTS CAST - BLANK                                    BALLOTS CAST - BLANK                  005 Morenci                                            00 
00030010006000000000000000000000000000000000000000000000000000000000000000000000000000000000000000000          BALLOTS CAST - BLANK                                    BALLOTS CAST - BLANK                  006 East Plantsite                                     00 
00030010007000000000000000000000000000000000000000000000000000000000000000000000000000000000000000000          BALLOTS CAST - BLANK                                    BALLOTS CAST - BLANK                  007 York/Sheldon                                       00 
00030010008000000000000000000000000000000000000000000000000000000000000000000000000000000000000000000          BALLOTS CAST - BLANK                                    BALLOTS CAST - BLANK                  008 Duncan                                             00 
01020010001000013000000000013000000000000000000000000000000000000000000000000000000000000000000000000REP       Presidential Electors                                   TRUMP, PENCE                          001 Eagle                                              01 
01020010002000025000010000015000000000000000000000000000000000000000000000000000000000000000000000000REP       Presidential Electors                                   TRUMP, PENCE                          002 Blue                                               01 
01020010003000226000067000150000009000000000000000000000000000000000000000000000000000000000000000000REP       Presidential Electors                                   TRUMP, PENCE                          003 Clifton 1                                          01 
01020010004000204000050000147000007000000000000000000000000000000000000000000000000000000000000000000REP       Presidential Electors                                   TRUMP, PENCE                          004 Clifton 2                                          01 
01020010005000461000161000261000039000000000000000000000000000000000000000000000000000000000000000000REP       Presidential Electors                                   TRUMP, PENCE                          005 Morenci                                            01 
01020010006000145000056000080000009000000000000000000000000000000000000000000000000000000000000000000REP       Presidential Electors                                   TRUMP, PENCE                          006 East Plantsite                                     01 
01020010007000330000083000233000014000000000000000000000000000000000000000000000000000000000000000000REP       Presidential Electors                                   TRUMP, PENCE                          007 York/Sheldon                                       01 
01020010008000488000138000328000022000000000000000000000000000000000000000000000000000000000000000000REP       Presidential Electors                                   TRUMP, PENCE                          008 Duncan                                             01 
01020020001000002000001000001000000000000000000000000000000000000000000000000000000000000000000000000DEM       Presidential Electors                                   CLINTON, KAINE                        001 Eagle                                              01 
01020020002000001000000000001000000000000000000000000000000000000000000000000000000000000000000000000DEM       Presidential Electors                                   CLINTON, KAINE                        002 Blue                                               01 
01020020003000326000051000269000006000000000000000000000000000000000000000000000000000000000000000000DEM       Presidential Electors                                   CLINTON, KAINE                        003 Clifton 1                                          01 
01020020004000192000035000155000002000000000000000000000000000000000000000000000000000000000000000000DEM       Presidential Electors                                   CLINTON, KAINE                        004 Clifton 2                                          01 
01020020005000222000067000146000009000000000000000000000000000000000000000000000000000000000000000000DEM       Presidential Electors                                   CLINTON, KAINE                        005 Morenci                                            01 
01020020006000062000020000038000004000000000000000000000000000000000000000000000000000000000000000000DEM       Presidential Electors                                   CLINTON, KAINE                        006 East Plantsite                                     01 
01020020007000152000036000115000001000000000000000000000000000000000000000000000000000000000000000000DEM       Presidential Electors                                   CLINTON, KAINE                        007 York/Sheldon                                       01 
01020020008000135000024000108000003000000000000000000000000000000000000000000000000000000000000000000DEM       Presidential Electors                                   CLINTON, KAINE                        008 Duncan                                             01 
01020030001000001000000000001000000000000000000000000000000000000000000000000000000000000000000000000LBT       Presidential Electors                                   JOHNSON, WELD                         001 Eagle                                              01 
01020030002000001000001000000000000000000000000000000000000000000000000000000000000000000000000000000LBT       Presidential Electors                                   JOHNSON, WELD                         002 Blue                                               01 
01020030003000038000007000026000005000000000000000000000000000000000000000000000000000000000000000000LBT       Presidential Electors                                   JOHNSON, WELD                         003 Clifton 1                                          01 
01020030004000013000001000010000002000000000000000000000000000000000000000000000000000000000000000000LBT       Presidential Electors                                   JOHNSON, WELD                         004 Clifton 2                                          01 
01020030005000054000022000030000002000000000000000000000000000000000000000000000000000000000000000000LBT       Presidential Electors                                   JOHNSON, WELD                         005 Morenci                                            01 
01020030006000023000009000013000001000000000000000000000000000000000000000000000000000000000000000000LBT       Presidential Electors                                   JOHNSON, WELD                         006 East Plantsite                                     01 
01020030007000023000008000014000001000000000000000000000000000000000000000000000000000000000000000000LBT       Presidential Electors                                   JOHNSON, WELD                         007 York/Sheldon                                       01 
01020030008000047000012000033000002000000000000000000000000000000000000000000000000000000000000000000LBT       Presidential Electors                                   JOHNSON, WELD                         008 Duncan                                             01 
01020040001000000000000000000000000000000000000000000000000000000000000000000000000000000000000000000GRN       Presidential Electors                                   STEIN, BARAKA                         001 Eagle                                              01 
01020040002000000000000000000000000000000000000000000000000000000000000000000000000000000000000000000GRN       Presidential Electors                                   STEIN, BARAKA                         002 Blue                                               01 
01020040003000009000003000005000001000000000000000000000000000000000000000000000000000000000000000000GRN       Presidential Electors                                   STEIN, BARAKA                         003 Clifton 1                                          01 
01020040004000007000002000005000000000000000000000000000000000000000000000000000000000000000000000000GRN       Presidential Electors                                   STEIN, BARAKA                         004 Clifton 2                                          01 
01020040005000018000004000010000004000000000000000000000000000000000000000000000000000000000000000000GRN       Presidential Electors                                   STEIN, BARAKA                         005 Morenci                                            01 
01020040006000002000002000000000000000000000000000000000000000000000000000000000000000000000000000000GRN       Presidential Electors                                   STEIN, BARAKA                         006 East Plantsite                                     01 
01020040007000012000004000006000002000000000000000000000000000000000000000000000000000000000000000000GRN       Presidential Electors                                   STEIN, BARAKA                         007 York/Sheldon                                       01 
01020040008000011000009000002000000000000000000000000000000000000000000000000000000000000000000000000GRN       Presidential Electors                                   STEIN, BARAKA                         008 Duncan                                             01 
01020050001000000000000000000000000000000000000000000000000000000000000000000000000000000000000000000NON       Presidential Electors                                   WRITE-IN                              001 Eagle                                              01 
01020050002000001000000000001000000000000000000000000000000000000000000000000000000000000000000000000NON       Presidential Electors                                   WRITE-IN                              002 Blue                                               01 
01020050003000005000000000005000000000000000000000000000000000000000000000000000000000000000000000000NON       Presidential Electors                                   WRITE-IN                              003 Clifton 1                                          01 
01020050004000002000001000001000000000000000000000000000000000000000000000000000000000000000000000000NON       Presidential Electors                                   WRITE-IN                              004 Clifton 2                                          01 
01020050005000016000007000008000001000000000000000000000000000000000000000000000000000000000000000000NON       Presidential Electors                                   WRITE-IN                              005 Morenci                                            01 
01020050006000003000001000001000001000000000000000000000000000000000000000000000000000000000000000000NON       Presidential Electors                                   WRITE-IN                              006 East Plantsite                                     01 
01020050007000011000002000009000000000000000000000000000000000000000000000000000000000000000000000000NON       Presidential Electors                                   WRITE-IN                              007 York/Sheldon                                       01 
01020050008000019000006000012000001000000000000000000000000000000000000000000000000000000000000000000NON       Presidential Electors                                   WRITE-IN                              008 Duncan                                             01 
01020060001000000000000000000000000000000000000000000000000000000000000000000000000000000000000000000          Presidential Electors                                   OVER VOTES                            001 Eagle                                              01 
01020060002000000000000000000000000000000000000000000000000000000000000000000000000000000000000000000          Presidential Electors                                   OVER VOTES                            002 Blue                                               01 
01020060003000003000000000003000000000000000000000000000000000000000000000000000000000000000000000000          Presidential Electors                                   OVER VOTES                            003 Clifton 1                                          01 
01020060004000000000000000000000000000000000000000000000000000000000000000000000000000000000000000000          Presidential Electors                                   OVER VOTES                            004 Clifton 2                                          01 
01020060005000001000000000001000000000000000000000000000000000000000000000000000000000000000000000000          Presidential Electors                                   OVER VOTES                            005 Morenci                                            01 
01020060006000000000000000000000000000000000000000000000000000000000000000000000000000000000000000000          Presidential Electors                                   OVER VOTES                            006 East Plantsite                                     01 
01020060007000001000000000001000000000000000000000000000000000000000000000000000000000000000000000000          Presidential Electors                                   OVER VOTES                            007 York/Sheldon                                       01 
01020060008000000000000000000000000000000000000000000000000000000000000000000000000000000000000000000          Presidential Electors                                   OVER VOTES                            008 Duncan                                             01 
01020070001000000000000000000000000000000000000000000000000000000000000000000000000000000000000000000          Presidential Electors                                   UNDER VOTES                           001 Eagle                                              01 
01020070002000001000001000000000000000000000000000000000000000000000000000000000000000000000000000000          Presidential Electors                                   UNDER VOTES                           002 Blue                                               01 
01020070003000019000001000018000000000000000000000000000000000000000000000000000000000000000000000000          Presidential Electors                                   UNDER VOTES                           003 Clifton 1                                          01 
01020070004000009000003000006000000000000000000000000000000000000000000000000000000000000000000000000          Presidential Electors                                   UNDER VOTES                           004 Clifton 2                                          01 
01020070005000011000001000010000000000000000000000000000000000000000000000000000000000000000000000000          Presidential Electors                                   UNDER VOTES                           005 Morenci                                            01 
01020070006000001000000000001000000000000000000000000000000000000000000000000000000000000000000000000          Presidential Electors                                   UNDER VOTES                           006 East Plantsite                                     01 
01020070007000018000009000009000000000000000000000000000000000000000000000000000000000000000000000000          Presidential Electors                                   UNDER VOTES                           007 York/Sheldon                                       01 
01020070008000012000003000009000000000000000000000000000000000000000000000000000000000000000000000000          Presidential Electors                                   UNDER VOTES                           008 Duncan                                             01 
01030010001000015000001000014000000000000000000000000000000000000000000000000000000000000000000000000REP       United States Senator                                   MCCAIN, JOHN                          001 Eagle                                              01 
01030010002000025000012000013000000000000000000000000000000000000000000000000000000000000000000000000REP       United States Senator                                   MCCAIN, JOHN                          002 Blue                                               01 
01030010003000221000058000152000011000000000000000000000000000000000000000000000000000000000000000000REP       United States Senator                                   MCCAIN, JOHN                          003 Clifton 1                                          01 
01030010004000183000040000137000006000000000000000000000000000000000000000000000000000000000000000000REP       United States Senator                                   MCCAIN, JOHN                          004 Clifton 2                                          01 
01030010005000457000173000254000030000000000000000000000000000000000000000000000000000000000000000000REP       United States Senator                                   MCCAIN, JOHN                          005 Morenci                                            01 
01030010006000145000053000081000011000000000000000000000000000000000000000000000000000000000000000000REP       United States Senator                                   MCCAIN, JOHN                          006 East Plantsite                                     01 
01030010007000297000079000206000012000000000000000000000000000000000000000000000000000000000000000000REP       United States Senator                                   MCCAIN, JOHN                          007 York/Sheldon                                       01 
01030010008000441000120000300000021000000000000000000000000000000000000000000000000000000000000000000REP       United States Senator                                   MCCAIN, JOHN                          008 Duncan                                             01 
01030020001000001000000000001000000000000000000000000000000000000000000000000000000000000000000000000DEM       United States Senator                                   KIRKPATRICK, ANN                      001 Eagle                                              01 
01030020002000001000000000001000000000000000000000000000000000000000000000000000000000000000000000000DEM       United States Senator                                   KIRKPATRICK, ANN                      002 Blue                                               01 
01030020003000342000056000278000008000000000000000000000000000000000000000000000000000000000000000000DEM       United States Senator                                   KIRKPATRICK, ANN                      003 Clifton 1                                          01 
01030020004000190000038000148000004000000000000000000000000000000000000000000000000000000000000000000DEM       United States Senator                                   KIRKPATRICK, ANN                      004 Clifton 2                                          01 
01030020005000250000074000158000018000000000000000000000000000000000000000000000000000000000000000000DEM       United States Senator                                   KIRKPATRICK, ANN                      005 Morenci                                            01 
01030020006000062000022000037000003000000000000000000000000000000000000000000000000000000000000000000DEM       United States Senator                                   KIRKPATRICK, ANN                      006 East Plantsite                                     01 
01030020007000176000044000128000004000000000000000000000000000000000000000000000000000000000000000000DEM       United States Senator                                   KIRKPATRICK, ANN                      007 York/Sheldon                                       01 
01030020008000167000041000122000004000000000000000000000000000000000000000000000000000000000000000000DEM       United States Senator                                   KIRKPATRICK, ANN                      008 Duncan                                             01 
01030030001000000000000000000000000000000000000000000000000000000000000000000000000000000000000000000GRN       United States Senator                                   SWING, GARY                           001 Eagle                                              01 
01030030002000001000000000001000000000000000000000000000000000000000000000000000000000000000000000000GRN       United States Senator                                   SWING, GARY                           002 Blue                                               01 
01030030003000044000010000033000001000000000000000000000000000000000000000000000000000000000000000000GRN       United States Senator                                   SWING, GARY                           003 Clifton 1                                          01 
01030030004000030000009000020000001000000000000000000000000000000000000000000000000000000000000000000GRN       United States Senator                                   SWING, GARY                           004 Clifton 2                                          01 
01030030005000049000011000032000006000000000000000000000000000000000000000000000000000000000000000000GRN       United States Senator                                   SWING, GARY                           005 Morenci                                            01 
01030030006000022000011000010000001000000000000000000000000000000000000000000000000000000000000000000GRN       United States Senator                                   SWING, GARY                           006 East Plantsite                                     01 
01030030007000048000013000034000001000000000000000000000000000000000000000000000000000000000000000000GRN       United States Senator                                   SWING, GARY                           007 York/Sheldon                                       01 
01030030008000074000020000052000002000000000000000000000000000000000000000000000000000000000000000000GRN       United States Senator                                   SWING, GARY                           008 Duncan                                             01 
01030040001000000000000000000000000000000000000000000000000000000000000000000000000000000000000000000NON       United States Senator                                   WRITE-IN                              001 Eagle                                              01 
01030040002000000000000000000000000000000000000000000000000000000000000000000000000000000000000000000NON       United States Senator                                   WRITE-IN                              002 Blue                                               01 
01030040003000004000002000002000000000000000000000000000000000000000000000000000000000000000000000000NON       United States Senator                                   WRITE-IN                              003 Clifton 1                                          01 
01030040004000004000002000002000000000000000000000000000000000000000000000000000000000000000000000000NON       United States Senator                                   WRITE-IN                              004 Clifton 2                                          01 
01030040005000008000002000006000000000000000000000000000000000000000000000000000000000000000000000000NON       United States Senator                                   WRITE-IN                              005 Morenci                                            01 
01030040006000002000000000002000000000000000000000000000000000000000000000000000000000000000000000000NON       United States Senator                                   WRITE-IN                              006 East Plantsite                                     01 
01030040007000007000001000006000000000000000000000000000000000000000000000000000000000000000000000000NON       United States Senator                                   WRITE-IN                              007 York/Sheldon                                       01 
01030040008000010000005000004000001000000000000000000000000000000000000000000000000000000000000000000NON       United States Senator                                   WRITE-IN                              008 Duncan                                             01 
01030050001000000000000000000000000000000000000000000000000000000000000000000000000000000000000000000          United States Senator                                   OVER VOTES                            001 Eagle                                              01 
01030050002000000000000000000000000000000000000000000000000000000000000000000000000000000000000000000          United States Senator                                   OVER VOTES                            002 Blue                                               01 
01030050003000000000000000000000000000000000000000000000000000000000000000000000000000000000000000000          United States Senator                                   OVER VOTES                            003 Clifton 1                                          01 
01030050004000000000000000000000000000000000000000000000000000000000000000000000000000000000000000000          United States Senator                                   OVER VOTES                            004 Clifton 2                                          01 
01030050005000000000000000000000000000000000000000000000000000000000000000000000000000000000000000000          United States Senator                                   OVER VOTES                            005 Morenci                                            01 
01030050006000000000000000000000000000000000000000000000000000000000000000000000000000000000000000000          United States Senator                                   OVER VOTES                            006 East Plantsite                                     01 
01030050007000000000000000000000000000000000000000000000000000000000000000000000000000000000000000000          United States Senator                                   OVER VOTES                            007 York/Sheldon                                       01 
01030050008000001000000000001000000000000000000000000000000000000000000000000000000000000000000000000          United States Senator                                   OVER VOTES                            008 Duncan                                             01 
01030060001000000000000000000000000000000000000000000000000000000000000000000000000000000000000000000          United States Senator                                   UNDER VOTES                           001 Eagle                                              01 
01030060002000002000000000002000000000000000000000000000000000000000000000000000000000000000000000000          United States Senator                                   UNDER VOTES                           002 Blue                                               01 
01030060003000015000003000011000001000000000000000000000000000000000000000000000000000000000000000000          United States Senator                                   UNDER VOTES                           003 Clifton 1                                          01 
01030060004000020000003000017000000000000000000000000000000000000000000000000000000000000000000000000          United States Senator                                   UNDER VOTES                           004 Clifton 2                                          01 
01030060005000019000002000016000001000000000000000000000000000000000000000000000000000000000000000000          United States Senator                                   UNDER VOTES                           005 Morenci                                            01 
01030060006000005000002000003000000000000000000000000000000000000000000000000000000000000000000000000          United States Senator                                   UNDER VOTES                           006 East Plantsite                                     01 
01030060007000019000005000013000001000000000000000000000000000000000000000000000000000000000000000000          United States Senator                                   UNDER VOTES                           007 York/Sheldon                                       01 
01030060008000019000006000013000000000000000000000000000000000000000000000000000000000000000000000000          United States Senator                                   UNDER VOTES                           008 Duncan                                             01 
01040010001000011000000000011000000000000000000000000000000000000000000000000000000000000000000000000REP       U.S. Rep in Congress Dist. 1                            BABEU, PAUL                           001 Eagle                                              01 
01040010002000024000009000015000000000000000000000000000000000000000000000000000000000000000000000000REP       U.S. Rep in Congress Dist. 1                            BABEU, PAUL                           002 Blue                                               01 
01040010003000168000050000110000008000000000000000000000000000000000000000000000000000000000000000000REP       U.S. Rep in Congress Dist. 1                            BABEU, PAUL                           003 Clifton 1                                          01 
01040010004000159000035000117000007000000000000000000000000000000000000000000000000000000000000000000REP       U.S. Rep in Congress Dist. 1                            BABEU, PAUL                           004 Clifton 2                                          01 
01040010005000400000148000228000024000000000000000000000000000000000000000000000000000000000000000000REP       U.S. Rep in Congress Dist. 1                            BABEU, PAUL                           005 Morenci                                            01 
01040010006000136000048000078000010000000000000000000000000000000000000000000000000000000000000000000REP       U.S. Rep in Congress Dist. 1                            BABEU, PAUL                           006 East Plantsite                                     01 
01040010007000226000062000154000010000000000000000000000000000000000000000000000000000000000000000000REP       U.S. Rep in Congress Dist. 1                            BABEU, PAUL                           007 York/Sheldon                                       01 
01040010008000373000110000245000018000000000000000000000000000000000000000000000000000000000000000000REP       U.S. Rep in Congress Dist. 1                            BABEU, PAUL                           008 Duncan                                             01 
01040020001000002000001000001000000000000000000000000000000000000000000000000000000000000000000000000DEM       U.S. Rep in Congress Dist. 1                            O'HALLERAN, TOM                       001 Eagle                                              01 
01040020002000005000003000002000000000000000000000000000000000000000000000000000000000000000000000000DEM       U.S. Rep in Congress Dist. 1                            O'HALLERAN, TOM                       002 Blue                                               01 
01040020003000384000061000311000012000000000000000000000000000000000000000000000000000000000000000000DEM       U.S. Rep in Congress Dist. 1                            O'HALLERAN, TOM                       003 Clifton 1                                          01 
01040020004000215000048000164000003000000000000000000000000000000000000000000000000000000000000000000DEM       U.S. Rep in Congress Dist. 1                            O'HALLERAN, TOM                       004 Clifton 2                                          01 
01040020005000282000085000176000021000000000000000000000000000000000000000000000000000000000000000000DEM       U.S. Rep in Congress Dist. 1                            O'HALLERAN, TOM                       005 Morenci                                            01 
01040020006000072000028000039000005000000000000000000000000000000000000000000000000000000000000000000DEM       U.S. Rep in Congress Dist. 1                            O'HALLERAN, TOM                       006 East Plantsite                                     01 
01040020007000236000060000172000004000000000000000000000000000000000000000000000000000000000000000000DEM       U.S. Rep in Congress Dist. 1                            O'HALLERAN, TOM                       007 York/Sheldon                                       01 
01040020008000258000059000190000009000000000000000000000000000000000000000000000000000000000000000000DEM       U.S. Rep in Congress Dist. 1                            O'HALLERAN, TOM                       008 Duncan                                             01 
01040030001000000000000000000000000000000000000000000000000000000000000000000000000000000000000000000GRN       U.S. Rep in Congress Dist. 1                            PARRISH, RAY                          001 Eagle                                              01 
01040030002000000000000000000000000000000000000000000000000000000000000000000000000000000000000000000GRN       U.S. Rep in Congress Dist. 1                            PARRISH, RAY                          002 Blue                                               01 
01040030003000036000012000023000001000000000000000000000000000000000000000000000000000000000000000000GRN       U.S. Rep in Congress Dist. 1                            PARRISH, RAY                          003 Clifton 1                                          01 
01040030004000025000004000020000001000000000000000000000000000000000000000000000000000000000000000000GRN       U.S. Rep in Congress Dist. 1                            PARRISH, RAY                          004 Clifton 2                                          01 
01040030005000056000019000028000009000000000000000000000000000000000000000000000000000000000000000000GRN       U.S. Rep in Congress Dist. 1                            PARRISH, RAY                          005 Morenci                                            01 
01040030006000018000010000008000000000000000000000000000000000000000000000000000000000000000000000000GRN       U.S. Rep in Congress Dist. 1                            PARRISH, RAY                          006 East Plantsite                                     01 
01040030007000043000011000030000002000000000000000000000000000000000000000000000000000000000000000000GRN       U.S. Rep in Congress Dist. 1                            PARRISH, RAY                          007 York/Sheldon                                       01 
01040030008000042000015000027000000000000000000000000000000000000000000000000000000000000000000000000GRN       U.S. Rep in Congress Dist. 1                            PARRISH, RAY                          008 Duncan                                             01 
01040040001000000000000000000000000000000000000000000000000000000000000000000000000000000000000000000NON       U.S. Rep in Congress Dist. 1                            WRITE-IN                              001 Eagle                                              01 
01040040002000000000000000000000000000000000000000000000000000000000000000000000000000000000000000000NON       U.S. Rep in Congress Dist. 1                            WRITE-IN                              002 Blue                                               01 
01040040003000002000001000001000000000000000000000000000000000000000000000000000000000000000000000000NON       U.S. Rep in Congress Dist. 1                            WRITE-IN                              003 Clifton 1                                          01 
01040040004000000000000000000000000000000000000000000000000000000000000000000000000000000000000000000NON       U.S. Rep in Congress Dist. 1                            WRITE-IN                              004 Clifton 2                                          01 
01040040005000006000002000004000000000000000000000000000000000000000000000000000000000000000000000000NON       U.S. Rep in Congress Dist. 1                            WRITE-IN                              005 Morenci                                            01 
01040040006000000000000000000000000000000000000000000000000000000000000000000000000000000000000000000NON       U.S. Rep in Congress Dist. 1                            WRITE-IN                              006 East Plantsite                                     01 
01040040007000002000001000001000000000000000000000000000000000000000000000000000000000000000000000000NON       U.S. Rep in Congress Dist. 1                            WRITE-IN                              007 York/Sheldon                                       01 
01040040008000002000001000001000000000000000000000000000000000000000000000000000000000000000000000000NON       U.S. Rep in Congress Dist. 1                            WRITE-IN                              008 Duncan                                             01 
01040050001000000000000000000000000000000000000000000000000000000000000000000000000000000000000000000          U.S. Rep in Congress Dist. 1                            OVER VOTES                            001 Eagle                                              01 
01040050002000000000000000000000000000000000000000000000000000000000000000000000000000000000000000000          U.S. Rep in Congress Dist. 1                            OVER VOTES                            002 Blue                                               01 
01040050003000000000000000000000000000000000000000000000000000000000000000000000000000000000000000000          U.S. Rep in Congress Dist. 1                            OVER VOTES                            003 Clifton 1                                          01 
01040050004000000000000000000000000000000000000000000000000000000000000000000000000000000000000000000          U.S. Rep in Congress Dist. 1                            OVER VOTES                            004 Clifton 2                                          01 
01040050005000000000000000000000000000000000000000000000000000000000000000000000000000000000000000000          U.S. Rep in Congress Dist. 1                            OVER VOTES                            005 Morenci                                            01 
01040050006000000000000000000000000000000000000000000000000000000000000000000000000000000000000000000          U.S. Rep in Congress Dist. 1                            OVER VOTES                            006 East Plantsite                                     01 
01040050007000000000000000000000000000000000000000000000000000000000000000000000000000000000000000000          U.S. Rep in Congress Dist. 1                            OVER VOTES                            007 York/Sheldon                                       01 
01040050008000000000000000000000000000000000000000000000000000000000000000000000000000000000000000000          U.S. Rep in Congress Dist. 1                            OVER VOTES                            008 Duncan                                             01 
01040060001000003000000000003000000000000000000000000000000000000000000000000000000000000000000000000          U.S. Rep in Congress Dist. 1                            UNDER VOTES                           001 Eagle                                              01 
01040060002000000000000000000000000000000000000000000000000000000000000000000000000000000000000000000          U.S. Rep in Congress Dist. 1                            UNDER VOTES                           002 Blue                                               01 
01040060003000036000005000031000000000000000000000000000000000000000000000000000000000000000000000000          U.S. Rep in Congress Dist. 1                            UNDER VOTES                           003 Clifton 1                                          01 
01040060004000028000005000023000000000000000000000000000000000000000000000000000000000000000000000000          U.S. Rep in Congress Dist. 1                            UNDER VOTES                           004 Clifton 2                                          01 
01040060005000039000008000030000001000000000000000000000000000000000000000000000000000000000000000000          U.S. Rep in Congress Dist. 1                            UNDER VOTES                           005 Morenci                                            01 
01040060006000010000002000008000000000000000000000000000000000000000000000000000000000000000000000000          U.S. Rep in Congress Dist. 1                            UNDER VOTES                           006 East Plantsite                                     01 
01040060007000040000008000030000002000000000000000000000000000000000000000000000000000000000000000000          U.S. Rep in Congress Dist. 1                            UNDER VOTES                           007 York/Sheldon                                       01 
01040060008000037000007000029000001000000000000000000000000000000000000000000000000000000000000000000          U.S. Rep in Congress Dist. 1                            UNDER VOTES                           008 Duncan                                             01 
01050010001000014000001000013000000000000000000000000000000000000000000000000000000000000000000000000REP       State Senator Dist. 14                                  GRIFFIN, GAIL                         001 Eagle                                              01 
01050010002000025000011000014000000000000000000000000000000000000000000000000000000000000000000000000REP       State Senator Dist. 14                                  GRIFFIN, GAIL                         002 Blue                                               01 
01050010003000179000049000124000006000000000000000000000000000000000000000000000000000000000000000000REP       State Senator Dist. 14                                  GRIFFIN, GAIL                         003 Clifton 1                                          01 
01050010004000188000044000139000005000000000000000000000000000000000000000000000000000000000000000000REP       State Senator Dist. 14                                  GRIFFIN, GAIL                         004 Clifton 2                                          01 
01050010005000408000145000232000031000000000000000000000000000000000000000000000000000000000000000000REP       State Senator Dist. 14                                  GRIFFIN, GAIL                         005 Morenci                                            01 
01050010006000138000051000078000009000000000000000000000000000000000000000000000000000000000000000000REP       State Senator Dist. 14                                  GRIFFIN, GAIL                         006 East Plantsite                                     01 
01050010007000284000070000203000011000000000000000000000000000000000000000000000000000000000000000000REP       State Senator Dist. 14                                  GRIFFIN, GAIL                         007 York/Sheldon                                       01 
01050010008000447000126000303000018000000000000000000000000000000000000000000000000000000000000000000REP       State Senator Dist. 14                                  GRIFFIN, GAIL                         008 Duncan                                             01 
01050020001000001000000000001000000000000000000000000000000000000000000000000000000000000000000000000DEM       State Senator Dist. 14                                  ALVAREZ, JAMIE                        001 Eagle                                              01 
01050020002000004000001000003000000000000000000000000000000000000000000000000000000000000000000000000DEM       State Senator Dist. 14                                  ALVAREZ, JAMIE                        002 Blue                                               01 
01050020003000418000074000330000014000000000000000000000000000000000000000000000000000000000000000000DEM       State Senator Dist. 14                                  ALVAREZ, JAMIE                        003 Clifton 1                                          01 
01050020004000222000045000171000006000000000000000000000000000000000000000000000000000000000000000000DEM       State Senator Dist. 14                                  ALVAREZ, JAMIE                        004 Clifton 2                                          01 
01050020005000334000108000204000022000000000000000000000000000000000000000000000000000000000000000000DEM       State Senator Dist. 14                                  ALVAREZ, JAMIE                        005 Morenci                                            01 
01050020006000086000036000044000006000000000000000000000000000000000000000000000000000000000000000000DEM       State Senator Dist. 14                                  ALVAREZ, JAMIE                        006 East Plantsite                                     01 
01050020007000231000064000162000005000000000000000000000000000000000000000000000000000000000000000000DEM       State Senator Dist. 14                                  ALVAREZ, JAMIE                        007 York/Sheldon                                       01 
01050020008000229000062000158000009000000000000000000000000000000000000000000000000000000000000000000DEM       State Senator Dist. 14                                  ALVAREZ, JAMIE                        008 Duncan                                             01 
01050030001000000000000000000000000000000000000000000000000000000000000000000000000000000000000000000NON       State Senator Dist. 14                                  WRITE-IN                              001 Eagle                                              01 
01050030002000000000000000000000000000000000000000000000000000000000000000000000000000000000000000000NON       State Senator Dist. 14                                  WRITE-IN                              002 Blue                                               01 
01050030003000002000001000000000001000000000000000000000000000000000000000000000000000000000000000000NON       State Senator Dist. 14                                  WRITE-IN                              003 Clifton 1                                          01 
01050030004000001000000000001000000000000000000000000000000000000000000000000000000000000000000000000NON       State Senator Dist. 14                                  WRITE-IN                              004 Clifton 2                                          01 
01050030005000002000002000000000000000000000000000000000000000000000000000000000000000000000000000000NON       State Senator Dist. 14                                  WRITE-IN                              005 Morenci                                            01 
01050030006000000000000000000000000000000000000000000000000000000000000000000000000000000000000000000NON       State Senator Dist. 14                                  WRITE-IN                              006 East Plantsite                                     01 
01050030007000000000000000000000000000000000000000000000000000000000000000000000000000000000000000000NON       State Senator Dist. 14                                  WRITE-IN                              007 York/Sheldon                                       01 
01050030008000000000000000000000000000000000000000000000000000000000000000000000000000000000000000000NON       State Senator Dist. 14                                  WRITE-IN                              008 Duncan                                             01 
01050040001000000000000000000000000000000000000000000000000000000000000000000000000000000000000000000          State Senator Dist. 14                                  OVER VOTES                            001 Eagle                                              01 
01050040002000000000000000000000000000000000000000000000000000000000000000000000000000000000000000000          State Senator Dist. 14                                  OVER VOTES                            002 Blue                                               01 
01050040003000000000000000000000000000000000000000000000000000000000000000000000000000000000000000000          State Senator Dist. 14                                  OVER VOTES                            003 Clifton 1                                          01 
01050040004000000000000000000000000000000000000000000000000000000000000000000000000000000000000000000          State Senator Dist. 14                                  OVER VOTES                            004 Clifton 2                                          01 
01050040005000000000000000000000000000000000000000000000000000000000000000000000000000000000000000000          State Senator Dist. 14                                  OVER VOTES                            005 Morenci                                            01 
01050040006000000000000000000000000000000000000000000000000000000000000000000000000000000000000000000          State Senator Dist. 14                                  OVER VOTES                            006 East Plantsite                                     01 
01050040007000000000000000000000000000000000000000000000000000000000000000000000000000000000000000000          State Senator Dist. 14                                  OVER VOTES                            007 York/Sheldon                                       01 
01050040008000000000000000000000000000000000000000000000000000000000000000000000000000000000000000000          State Senator Dist. 14                                  OVER VOTES                            008 Duncan                                             01 
01050050001000001000000000001000000000000000000000000000000000000000000000000000000000000000000000000          State Senator Dist. 14                                  UNDER VOTES                           001 Eagle                                              01 
01050050002000000000000000000000000000000000000000000000000000000000000000000000000000000000000000000          State Senator Dist. 14                                  UNDER VOTES                           002 Blue                                               01 
01050050003000027000005000022000000000000000000000000000000000000000000000000000000000000000000000000          State Senator Dist. 14                                  UNDER VOTES                           003 Clifton 1                                          01 
01050050004000016000003000013000000000000000000000000000000000000000000000000000000000000000000000000          State Senator Dist. 14                                  UNDER VOTES                           004 Clifton 2                                          01 
01050050005000039000007000030000002000000000000000000000000000000000000000000000000000000000000000000          State Senator Dist. 14                                  UNDER VOTES                           005 Morenci                                            01 
01050050006000012000001000011000000000000000000000000000000000000000000000000000000000000000000000000          State Senator Dist. 14                                  UNDER VOTES                           006 East Plantsite                                     01 
01050050007000032000008000022000002000000000000000000000000000000000000000000000000000000000000000000          State Senator Dist. 14                                  UNDER VOTES                           007 York/Sheldon                                       01 
01050050008000036000004000031000001000000000000000000000000000000000000000000000000000000000000000000          State Senator Dist. 14                                  UNDER VOTES                           008 Duncan                                             01 
01060010001000014000000000014000000000000000000000000000000000000000000000000000000000000000000000000REP       State Representative Dist. 14                           JOHN, DREW                            001 Eagle                                              02 
01060010002000025000011000014000000000000000000000000000000000000000000000000000000000000000000000000REP       State Representative Dist. 14                           JOHN, DREW                            002 Blue                                               02 
01060010003000206000055000141000010000000000000000000000000000000000000000000000000000000000000000000REP       State Representative Dist. 14                           JOHN, DREW                            003 Clifton 1                                          02 
01060010004000180000044000128000008000000000000000000000000000000000000000000000000000000000000000000REP       State Representative Dist. 14                           JOHN, DREW                            004 Clifton 2                                          02 
01060010005000426000165000226000035000000000000000000000000000000000000000000000000000000000000000000REP       State Representative Dist. 14                           JOHN, DREW                            005 Morenci                                            02 
01060010006000131000053000067000011000000000000000000000000000000000000000000000000000000000000000000REP       State Representative Dist. 14                           JOHN, DREW                            006 East Plantsite                                     02 
01060010007000283000077000194000012000000000000000000000000000000000000000000000000000000000000000000REP       State Representative Dist. 14                           JOHN, DREW                            007 York/Sheldon                                       02 
01060010008000450000135000296000019000000000000000000000000000000000000000000000000000000000000000000REP       State Representative Dist. 14                           JOHN, DREW                            008 Duncan                                             02 
01060020001000015000001000014000000000000000000000000000000000000000000000000000000000000000000000000REP       State Representative Dist. 14                           NUTT, BECKY                           001 Eagle                                              02 
01060020002000025000011000014000000000000000000000000000000000000000000000000000000000000000000000000REP       State Representative Dist. 14                           NUTT, BECKY                           002 Blue                                               02 
01060020003000200000061000130000009000000000000000000000000000000000000000000000000000000000000000000REP       State Representative Dist. 14                           NUTT, BECKY                           003 Clifton 1                                          02 
01060020004000210000059000145000006000000000000000000000000000000000000000000000000000000000000000000REP       State Representative Dist. 14                           NUTT, BECKY                           004 Clifton 2                                          02 
01060020005000377000155000189000033000000000000000000000000000000000000000000000000000000000000000000REP       State Representative Dist. 14                           NUTT, BECKY                           005 Morenci                                            02 
01060020006000127000059000059000009000000000000000000000000000000000000000000000000000000000000000000REP       State Representative Dist. 14                           NUTT, BECKY                           006 East Plantsite                                     02 
01060020007000298000087000202000009000000000000000000000000000000000000000000000000000000000000000000REP       State Representative Dist. 14                           NUTT, BECKY                           007 York/Sheldon                                       02 
01060020008000421000129000273000019000000000000000000000000000000000000000000000000000000000000000000REP       State Representative Dist. 14                           NUTT, BECKY                           008 Duncan                                             02 
01060030001000002000001000001000000000000000000000000000000000000000000000000000000000000000000000000DEM       State Representative Dist. 14                           HOLMES, MIKE                          001 Eagle                                              02 
01060030002000002000001000001000000000000000000000000000000000000000000000000000000000000000000000000DEM       State Representative Dist. 14                           HOLMES, MIKE                          002 Blue                                               02 
01060030003000343000059000275000009000000000000000000000000000000000000000000000000000000000000000000DEM       State Representative Dist. 14                           HOLMES, MIKE                          003 Clifton 1                                          02 
01060030004000194000036000154000004000000000000000000000000000000000000000000000000000000000000000000DEM       State Representative Dist. 14                           HOLMES, MIKE                          004 Clifton 2                                          02 
01060030005000261000088000160000013000000000000000000000000000000000000000000000000000000000000000000DEM       State Representative Dist. 14                           HOLMES, MIKE                          005 Morenci                                            02 
01060030006000065000026000035000004000000000000000000000000000000000000000000000000000000000000000000DEM       State Representative Dist. 14                           HOLMES, MIKE                          006 East Plantsite                                     02 
01060030007000168000039000124000005000000000000000000000000000000000000000000000000000000000000000000DEM       State Representative Dist. 14                           HOLMES, MIKE                          007 York/Sheldon                                       02 
01060030008000201000054000142000005000000000000000000000000000000000000000000000000000000000000000000DEM       State Representative Dist. 14                           HOLMES, MIKE                          008 Duncan                                             02 
01060040001000001000000000001000000000000000000000000000000000000000000000000000000000000000000000000DEM       State Representative Dist. 14                           LINDSTROM, JASON                      001 Eagle                                              02 
01060040002000001000000000001000000000000000000000000000000000000000000000000000000000000000000000000DEM       State Representative Dist. 14                           LINDSTROM, JASON                      002 Blue                                               02 
01060040003000311000053000248000010000000000000000000000000000000000000000000000000000000000000000000DEM       State Representative Dist. 14                           LINDSTROM, JASON                      003 Clifton 1                                          02 
01060040004000157000027000126000004000000000000000000000000000000000000000000000000000000000000000000DEM       State Representative Dist. 14                           LINDSTROM, JASON                      004 Clifton 2                                          02 
01060040005000218000062000141000015000000000000000000000000000000000000000000000000000000000000000000DEM       State Representative Dist. 14                           LINDSTROM, JASON                      005 Morenci                                            02 
01060040006000055000025000027000003000000000000000000000000000000000000000000000000000000000000000000DEM       State Representative Dist. 14                           LINDSTROM, JASON                      006 East Plantsite                                     02 
01060040007000157000042000112000003000000000000000000000000000000000000000000000000000000000000000000DEM       State Representative Dist. 14                           LINDSTROM, JASON                      007 York/Sheldon                                       02 
01060040008000140000036000101000003000000000000000000000000000000000000000000000000000000000000000000DEM       State Representative Dist. 14                           LINDSTROM, JASON                      008 Duncan                                             02 
01060050001000000000000000000000000000000000000000000000000000000000000000000000000000000000000000000NON       State Representative Dist. 14                           WRITE-IN                              001 Eagle                                              02 
01060050002000000000000000000000000000000000000000000000000000000000000000000000000000000000000000000NON       State Representative Dist. 14                           WRITE-IN                              002 Blue                                               02 
01060050003000003000001000001000001000000000000000000000000000000000000000000000000000000000000000000NON       State Representative Dist. 14                           WRITE-IN                              003 Clifton 1                                          02 
01060050004000000000000000000000000000000000000000000000000000000000000000000000000000000000000000000NON       State Representative Dist. 14                           WRITE-IN                              004 Clifton 2                                          02 
01060050005000004000002000002000000000000000000000000000000000000000000000000000000000000000000000000NON       State Representative Dist. 14                           WRITE-IN                              005 Morenci                                            02 
01060050006000000000000000000000000000000000000000000000000000000000000000000000000000000000000000000NON       State Representative Dist. 14                           WRITE-IN                              006 East Plantsite                                     02 
01060050007000001000000000001000000000000000000000000000000000000000000000000000000000000000000000000NON       State Representative Dist. 14                           WRITE-IN                              007 York/Sheldon                                       02 
01060050008000001000000000001000000000000000000000000000000000000000000000000000000000000000000000000NON       State Representative Dist. 14                           WRITE-IN                              008 Duncan                                             02 
01060060001000000000000000000000000000000000000000000000000000000000000000000000000000000000000000000          State Representative Dist. 14                           OVER VOTES                            001 Eagle                                              02 
01060060002000000000000000000000000000000000000000000000000000000000000000000000000000000000000000000          State Representative Dist. 14                           OVER VOTES                            002 Blue                                               02 
01060060003000000000000000000000000000000000000000000000000000000000000000000000000000000000000000000          State Representative Dist. 14                           OVER VOTES                            003 Clifton 1                                          02 
01060060004000000000000000000000000000000000000000000000000000000000000000000000000000000000000000000          State Representative Dist. 14                           OVER VOTES                            004 Clifton 2                                          02 
01060060005000000000000000000000000000000000000000000000000000000000000000000000000000000000000000000          State Representative Dist. 14                           OVER VOTES                            005 Morenci                                            02 
01060060006000000000000000000000000000000000000000000000000000000000000000000000000000000000000000000          State Representative Dist. 14                           OVER VOTES                            006 East Plantsite                                     02 
01060060007000000000000000000000000000000000000000000000000000000000000000000000000000000000000000000          State Representative Dist. 14                           OVER VOTES                            007 York/Sheldon                                       02 
01060060008000000000000000000000000000000000000000000000000000000000000000000000000000000000000000000          State Representative Dist. 14                           OVER VOTES                            008 Duncan                                             02 
01060070001000000000000000000000000000000000000000000000000000000000000000000000000000000000000000000          State Representative Dist. 14                           UNDER VOTES                           001 Eagle                                              02 
01060070002000005000001000004000000000000000000000000000000000000000000000000000000000000000000000000          State Representative Dist. 14                           UNDER VOTES                           002 Blue                                               02 
01060070003000189000029000157000003000000000000000000000000000000000000000000000000000000000000000000          State Representative Dist. 14                           UNDER VOTES                           003 Clifton 1                                          02 
01060070004000113000018000095000000000000000000000000000000000000000000000000000000000000000000000000          State Representative Dist. 14                           UNDER VOTES                           004 Clifton 2                                          02 
01060070005000280000052000214000014000000000000000000000000000000000000000000000000000000000000000000          State Representative Dist. 14                           UNDER VOTES                           005 Morenci                                            02 
01060070006000094000013000078000003000000000000000000000000000000000000000000000000000000000000000000          State Representative Dist. 14                           UNDER VOTES                           006 East Plantsite                                     02 
01060070007000187000039000141000007000000000000000000000000000000000000000000000000000000000000000000          State Representative Dist. 14                           UNDER VOTES                           007 York/Sheldon                                       02 
01060070008000211000030000171000010000000000000000000000000000000000000000000000000000000000000000000          State Representative Dist. 14                           UNDER VOTES                           008 Duncan                                             02 
01070010001000013000001000012000000000000000000000000000000000000000000000000000000000000000000000000REP       Corporation Commissioner                                BURNS, ROBERT "BOB"                   001 Eagle                                              03 
01070010002000026000011000015000000000000000000000000000000000000000000000000000000000000000000000000REP       Corporation Commissioner                                BURNS, ROBERT "BOB"                   002 Blue                                               03 
01070010003000219000063000147000009000000000000000000000000000000000000000000000000000000000000000000REP       Corporation Commissioner                                BURNS, ROBERT "BOB"                   003 Clifton 1                                          03 
01070010004000199000048000144000007000000000000000000000000000000000000000000000000000000000000000000REP       Corporation Commissioner                                BURNS, ROBERT "BOB"                   004 Clifton 2                                          03 
01070010005000385000167000185000033000000000000000000000000000000000000000000000000000000000000000000REP       Corporation Commissioner                                BURNS, ROBERT "BOB"                   005 Morenci                                            03 
01070010006000122000059000053000010000000000000000000000000000000000000000000000000000000000000000000REP       Corporation Commissioner                                BURNS, ROBERT "BOB"                   006 East Plantsite                                     03 
01070010007000273000084000179000010000000000000000000000000000000000000000000000000000000000000000000REP       Corporation Commissioner                                BURNS, ROBERT "BOB"                   007 York/Sheldon                                       03 
01070010008000429000140000271000018000000000000000000000000000000000000000000000000000000000000000000REP       Corporation Commissioner                                BURNS, ROBERT "BOB"                   008 Duncan                                             03 
01070020001000012000001000011000000000000000000000000000000000000000000000000000000000000000000000000REP       Corporation Commissioner                                DUNN, BOYD                            001 Eagle                                              03 
01070020002000023000009000014000000000000000000000000000000000000000000000000000000000000000000000000REP       Corporation Commissioner                                DUNN, BOYD                            002 Blue                                               03 
01070020003000189000066000115000008000000000000000000000000000000000000000000000000000000000000000000REP       Corporation Commissioner                                DUNN, BOYD                            003 Clifton 1                                          03 
01070020004000171000046000119000006000000000000000000000000000000000000000000000000000000000000000000REP       Corporation Commissioner                                DUNN, BOYD                            004 Clifton 2                                          03 
01070020005000397000169000191000037000000000000000000000000000000000000000000000000000000000000000000REP       Corporation Commissioner                                DUNN, BOYD                            005 Morenci                                            03 
01070020006000120000053000056000011000000000000000000000000000000000000000000000000000000000000000000REP       Corporation Commissioner                                DUNN, BOYD                            006 East Plantsite                                     03 
01070020007000244000079000153000012000000000000000000000000000000000000000000000000000000000000000000REP       Corporation Commissioner                                DUNN, BOYD                            007 York/Sheldon                                       03 
01070020008000424000141000264000019000000000000000000000000000000000000000000000000000000000000000000REP       Corporation Commissioner                                DUNN, BOYD                            008 Duncan                                             03 
01070030001000014000001000013000000000000000000000000000000000000000000000000000000000000000000000000REP       Corporation Commissioner                                TOBIN, ANDY                           001 Eagle                                              03 
01070030002000023000010000013000000000000000000000000000000000000000000000000000000000000000000000000REP       Corporation Commissioner                                TOBIN, ANDY                           002 Blue                                               03 
01070030003000205000058000135000012000000000000000000000000000000000000000000000000000000000000000000REP       Corporation Commissioner                                TOBIN, ANDY                           003 Clifton 1                                          03 
01070030004000189000049000132000008000000000000000000000000000000000000000000000000000000000000000000REP       Corporation Commissioner                                TOBIN, ANDY                           004 Clifton 2                                          03 
01070030005000426000183000207000036000000000000000000000000000000000000000000000000000000000000000000REP       Corporation Commissioner                                TOBIN, ANDY                           005 Morenci                                            03 
01070030006000129000050000070000009000000000000000000000000000000000000000000000000000000000000000000REP       Corporation Commissioner                                TOBIN, ANDY                           006 East Plantsite                                     03 
01070030007000277000091000177000009000000000000000000000000000000000000000000000000000000000000000000REP       Corporation Commissioner                                TOBIN, ANDY                           007 York/Sheldon                                       03 
01070030008000410000138000257000015000000000000000000000000000000000000000000000000000000000000000000REP       Corporation Commissioner                                TOBIN, ANDY                           008 Duncan                                             03 
01070040001000001000000000001000000000000000000000000000000000000000000000000000000000000000000000000DEM       Corporation Commissioner                                CHABIN, TOM                           001 Eagle                                              03 
01070040002000003000001000002000000000000000000000000000000000000000000000000000000000000000000000000DEM       Corporation Commissioner                                CHABIN, TOM                           002 Blue                                               03 
01070040003000336000062000264000010000000000000000000000000000000000000000000000000000000000000000000DEM       Corporation Commissioner                                CHABIN, TOM                           003 Clifton 1                                          03 
01070040004000195000041000150000004000000000000000000000000000000000000000000000000000000000000000000DEM       Corporation Commissioner                                CHABIN, TOM                           004 Clifton 2                                          03 
01070040005000263000090000156000017000000000000000000000000000000000000000000000000000000000000000000DEM       Corporation Commissioner                                CHABIN, TOM                           005 Morenci                                            03 
01070040006000065000032000028000005000000000000000000000000000000000000000000000000000000000000000000DEM       Corporation Commissioner                                CHABIN, TOM                           006 East Plantsite                                     03 
01070040007000176000048000125000003000000000000000000000000000000000000000000000000000000000000000000DEM       Corporation Commissioner                                CHABIN, TOM                           007 York/Sheldon                                       03 
01070040008000204000050000147000007000000000000000000000000000000000000000000000000000000000000000000DEM       Corporation Commissioner                                CHABIN, TOM                           008 Duncan                                             03 
01070050001000002000000000002000000000000000000000000000000000000000000000000000000000000000000000000DEM       Corporation Commissioner                                MUNDELL, WILLIAM "BILL"               001 Eagle                                              03 
01070050002000005000003000002000000000000000000000000000000000000000000000000000000000000000000000000DEM       Corporation Commissioner                                MUNDELL, WILLIAM "BILL"               002 Blue                                               03 
01070050003000347000061000276000010000000000000000000000000000000000000000000000000000000000000000000DEM       Corporation Commissioner                                MUNDELL, WILLIAM "BILL"               003 Clifton 1                                          03 
01070050004000204000045000152000007000000000000000000000000000000000000000000000000000000000000000000DEM       Corporation Commissioner                                MUNDELL, WILLIAM "BILL"               004 Clifton 2                                          03 
01070050005000252000089000150000013000000000000000000000000000000000000000000000000000000000000000000DEM       Corporation Commissioner                                MUNDELL, WILLIAM "BILL"               005 Morenci                                            03 
01070050006000062000031000027000004000000000000000000000000000000000000000000000000000000000000000000DEM       Corporation Commissioner                                MUNDELL, WILLIAM "BILL"               006 East Plantsite                                     03 
01070050007000187000053000128000006000000000000000000000000000000000000000000000000000000000000000000DEM       Corporation Commissioner                                MUNDELL, WILLIAM "BILL"               007 York/Sheldon                                       03 
01070050008000186000047000133000006000000000000000000000000000000000000000000000000000000000000000000DEM       Corporation Commissioner                                MUNDELL, WILLIAM "BILL"               008 Duncan                                             03 
01070060001000000000000000000000000000000000000000000000000000000000000000000000000000000000000000000NON       Corporation Commissioner                                WRITE-IN                              001 Eagle                                              03 
01070060002000000000000000000000000000000000000000000000000000000000000000000000000000000000000000000NON       Corporation Commissioner                                WRITE-IN                              002 Blue                                               03 
01070060003000010000004000004000002000000000000000000000000000000000000000000000000000000000000000000NON       Corporation Commissioner                                WRITE-IN                              003 Clifton 1                                          03 
01070060004000000000000000000000000000000000000000000000000000000000000000000000000000000000000000000NON       Corporation Commissioner                                WRITE-IN                              004 Clifton 2                                          03 
01070060005000003000001000002000000000000000000000000000000000000000000000000000000000000000000000000NON       Corporation Commissioner                                WRITE-IN                              005 Morenci                                            03 
01070060006000000000000000000000000000000000000000000000000000000000000000000000000000000000000000000NON       Corporation Commissioner                                WRITE-IN                              006 East Plantsite                                     03 
01070060007000000000000000000000000000000000000000000000000000000000000000000000000000000000000000000NON       Corporation Commissioner                                WRITE-IN                              007 York/Sheldon                                       03 
01070060008000002000002000000000000000000000000000000000000000000000000000000000000000000000000000000NON       Corporation Commissioner                                WRITE-IN                              008 Duncan                                             03 
01070070001000000000000000000000000000000000000000000000000000000000000000000000000000000000000000000          Corporation Commissioner                                OVER VOTES                            001 Eagle                                              03 
01070070002000000000000000000000000000000000000000000000000000000000000000000000000000000000000000000          Corporation Commissioner                                OVER VOTES                            002 Blue                                               03 
01070070003000000000000000000000000000000000000000000000000000000000000000000000000000000000000000000          Corporation Commissioner                                OVER VOTES                            003 Clifton 1                                          03 
01070070004000000000000000000000000000000000000000000000000000000000000000000000000000000000000000000          Corporation Commissioner                                OVER VOTES                            004 Clifton 2                                          03 
01070070005000000000000000000000000000000000000000000000000000000000000000000000000000000000000000000          Corporation Commissioner                                OVER VOTES                            005 Morenci                                            03 
01070070006000000000000000000000000000000000000000000000000000000000000000000000000000000000000000000          Corporation Commissioner                                OVER VOTES                            006 East Plantsite                                     03 
01070070007000000000000000000000000000000000000000000000000000000000000000000000000000000000000000000          Corporation Commissioner                                OVER VOTES                            007 York/Sheldon                                       03 
01070070008000000000000000000000000000000000000000000000000000000000000000000000000000000000000000000          Corporation Commissioner                                OVER VOTES                            008 Duncan                                             03 
01070080001000006000000000006000000000000000000000000000000000000000000000000000000000000000000000000          Corporation Commissioner                                UNDER VOTES                           001 Eagle                                              03 
01070080002000007000002000005000000000000000000000000000000000000000000000000000000000000000000000000          Corporation Commissioner                                UNDER VOTES                           002 Blue                                               03 
01070080003000572000073000487000012000000000000000000000000000000000000000000000000000000000000000000          Corporation Commissioner                                UNDER VOTES                           003 Clifton 1                                          03 
01070080004000323000047000275000001000000000000000000000000000000000000000000000000000000000000000000          Corporation Commissioner                                UNDER VOTES                           004 Clifton 2                                          03 
01070080005000623000087000507000029000000000000000000000000000000000000000000000000000000000000000000          Corporation Commissioner                                UNDER VOTES                           005 Morenci                                            03 
01070080006000210000039000165000006000000000000000000000000000000000000000000000000000000000000000000          Corporation Commissioner                                UNDER VOTES                           006 East Plantsite                                     03 
01070080007000484000071000399000014000000000000000000000000000000000000000000000000000000000000000000          Corporation Commissioner                                UNDER VOTES                           007 York/Sheldon                                       03 
01070080008000481000058000404000019000000000000000000000000000000000000000000000000000000000000000000          Corporation Commissioner                                UNDER VOTES                           008 Duncan                                             03 
01080010003000332000051000272000009000000000000000000000000000000000000000000000000000000000000000000DEMBOS1   Board of Supervisors Dist. 1                            GOMEZ, DAVID                          003 Clifton 1                 Dist. 1                  01 
01080010004000196000032000161000003000000000000000000000000000000000000000000000000000000000000000000DEMBOS1   Board of Supervisors Dist. 1                            GOMEZ, DAVID                          004 Clifton 2                 Dist. 1                  01 
01080020003000273000072000189000012000000000000000000000000000000000000000000000000000000000000000000INDBOS1   Board of Supervisors Dist. 1                            DUNAGAN, SHANE                        003 Clifton 1                 Dist. 1                  01 
01080020004000224000058000158000008000000000000000000000000000000000000000000000000000000000000000000INDBOS1   Board of Supervisors Dist. 1                            DUNAGAN, SHANE                        004 Clifton 2                 Dist. 1                  01 
01080030003000001000000000001000000000000000000000000000000000000000000000000000000000000000000000000NONBOS1   Board of Supervisors Dist. 1                            WRITE-IN                              003 Clifton 1                 Dist. 1                  01 
01080030004000000000000000000000000000000000000000000000000000000000000000000000000000000000000000000NONBOS1   Board of Supervisors Dist. 1                            WRITE-IN                              004 Clifton 2                 Dist. 1                  01 
01080040003000000000000000000000000000000000000000000000000000000000000000000000000000000000000000000   BOS1   Board of Supervisors Dist. 1                            OVER VOTES                            003 Clifton 1                 Dist. 1                  01 
01080040004000000000000000000000000000000000000000000000000000000000000000000000000000000000000000000   BOS1   Board of Supervisors Dist. 1                            OVER VOTES                            004 Clifton 2                 Dist. 1                  01 
01080050003000020000006000014000000000000000000000000000000000000000000000000000000000000000000000000   BOS1   Board of Supervisors Dist. 1                            UNDER VOTES                           003 Clifton 1                 Dist. 1                  01 
01080050004000007000002000005000000000000000000000000000000000000000000000000000000000000000000000000   BOS1   Board of Supervisors Dist. 1                            UNDER VOTES                           004 Clifton 2                 Dist. 1                  01 
01090010001000013000001000012000000000000000000000000000000000000000000000000000000000000000000000000INDBOS2   Board of Supervisors Dist. 2                            CAMPBELL, RON                         001 Eagle                     Dist. 2                  01 
01090010002000026000012000014000000000000000000000000000000000000000000000000000000000000000000000000INDBOS2   Board of Supervisors Dist. 2                            CAMPBELL, RON                         002 Blue                      Dist. 2                  01 
01090010005000697000244000402000051000000000000000000000000000000000000000000000000000000000000000000INDBOS2   Board of Supervisors Dist. 2                            CAMPBELL, RON                         005 Morenci                   Dist. 2                  01 
01090010006000196000077000105000014000000000000000000000000000000000000000000000000000000000000000000INDBOS2   Board of Supervisors Dist. 2                            CAMPBELL, RON                         006 East Plantsite            Dist. 2                  01 
01090020001000000000000000000000000000000000000000000000000000000000000000000000000000000000000000000NONBOS2   Board of Supervisors Dist. 2                            WRITE-IN                              001 Eagle                     Dist. 2                  01 
01090020002000000000000000000000000000000000000000000000000000000000000000000000000000000000000000000NONBOS2   Board of Supervisors Dist. 2                            WRITE-IN                              002 Blue                      Dist. 2                  01 
01090020005000006000004000002000000000000000000000000000000000000000000000000000000000000000000000000NONBOS2   Board of Supervisors Dist. 2                            WRITE-IN                              005 Morenci                   Dist. 2                  01 
01090020006000006000003000003000000000000000000000000000000000000000000000000000000000000000000000000NONBOS2   Board of Supervisors Dist. 2                            WRITE-IN                              006 East Plantsite            Dist. 2                  01 
01090030001000000000000000000000000000000000000000000000000000000000000000000000000000000000000000000   BOS2   Board of Supervisors Dist. 2                            OVER VOTES                            001 Eagle                     Dist. 2                  01 
01090030002000000000000000000000000000000000000000000000000000000000000000000000000000000000000000000   BOS2   Board of Supervisors Dist. 2                            OVER VOTES                            002 Blue                      Dist. 2                  01 
01090030005000000000000000000000000000000000000000000000000000000000000000000000000000000000000000000   BOS2   Board of Supervisors Dist. 2                            OVER VOTES                            005 Morenci                   Dist. 2                  01 
01090030006000000000000000000000000000000000000000000000000000000000000000000000000000000000000000000   BOS2   Board of Supervisors Dist. 2                            OVER VOTES                            006 East Plantsite            Dist. 2                  01 
01090040001000003000000000003000000000000000000000000000000000000000000000000000000000000000000000000   BOS2   Board of Supervisors Dist. 2                            UNDER VOTES                           001 Eagle                     Dist. 2                  01 
01090040002000003000000000003000000000000000000000000000000000000000000000000000000000000000000000000   BOS2   Board of Supervisors Dist. 2                            UNDER VOTES                           002 Blue                      Dist. 2                  01 
01090040005000080000014000062000004000000000000000000000000000000000000000000000000000000000000000000   BOS2   Board of Supervisors Dist. 2                            UNDER VOTES                           005 Morenci                   Dist. 2                  01 
01090040006000034000008000025000001000000000000000000000000000000000000000000000000000000000000000000   BOS2   Board of Supervisors Dist. 2                            UNDER VOTES                           006 East Plantsite            Dist. 2                  01 
01100010007000264000062000195000007000000000000000000000000000000000000000000000000000000000000000000INDBOS3   Board of Supervisors Dist. 3                            CORBELL, ROBERT                       007 York/Sheldon              Dist. 3                  01 
01100010008000185000050000129000006000000000000000000000000000000000000000000000000000000000000000000INDBOS3   Board of Supervisors Dist. 3                            CORBELL, ROBERT                       008 Duncan                    Dist. 3                  01 
01100020007000265000075000180000010000000000000000000000000000000000000000000000000000000000000000000INDBOS3   Board of Supervisors Dist. 3                            LUNT, RICHARD                         007 York/Sheldon              Dist. 3                  01 
01100020008000512000141000349000022000000000000000000000000000000000000000000000000000000000000000000INDBOS3   Board of Supervisors Dist. 3                            LUNT, RICHARD                         008 Duncan                    Dist. 3                  01 
01100030007000002000000000001000001000000000000000000000000000000000000000000000000000000000000000000NONBOS3   Board of Supervisors Dist. 3                            WRITE-IN                              007 York/Sheldon              Dist. 3                  01 
01100030008000003000001000002000000000000000000000000000000000000000000000000000000000000000000000000NONBOS3   Board of Supervisors Dist. 3                            WRITE-IN                              008 Duncan                    Dist. 3                  01 
01100040007000000000000000000000000000000000000000000000000000000000000000000000000000000000000000000   BOS3   Board of Supervisors Dist. 3                            OVER VOTES                            007 York/Sheldon              Dist. 3                  01 
01100040008000000000000000000000000000000000000000000000000000000000000000000000000000000000000000000   BOS3   Board of Supervisors Dist. 3                            OVER VOTES                            008 Duncan                    Dist. 3                  01 
01100050007000016000005000011000000000000000000000000000000000000000000000000000000000000000000000000   BOS3   Board of Supervisors Dist. 3                            UNDER VOTES                           007 York/Sheldon              Dist. 3                  01 
01100050008000012000000000012000000000000000000000000000000000000000000000000000000000000000000000000   BOS3   Board of Supervisors Dist. 3                            UNDER VOTES                           008 Duncan                    Dist. 3                  01 
01110010001000008000001000007000000000000000000000000000000000000000000000000000000000000000000000000IND       County Attorney                                         FORD, JEREMY                          001 Eagle                                              01 
01110010002000025000012000013000000000000000000000000000000000000000000000000000000000000000000000000IND       County Attorney                                         FORD, JEREMY                          002 Blue                                               01 
01110010003000454000103000333000018000000000000000000000000000000000000000000000000000000000000000000IND       County Attorney                                         FORD, JEREMY                          003 Clifton 1                                          01 
01110010004000317000076000230000011000000000000000000000000000000000000000000000000000000000000000000IND       County Attorney                                         FORD, JEREMY                          004 Clifton 2                                          01 
01110010005000675000242000384000049000000000000000000000000000000000000000000000000000000000000000000IND       County Attorney                                         FORD, JEREMY                          005 Morenci                                            01 
