00010010001000244000000000000000000000000000000000000000000000000000000000000000000000000000000000000          REGISTERED VOTERS - TOTAL                               REGISTERED VOTERS - TOTAL             201-Wikieup                                            00 
00010010002000284000000000000000000000000000000000000000000000000000000000000000000000000000000000000          REGISTERED VOTERS - TOTAL                               REGISTERED VOTERS - TOTAL             202-White Hills                                        00 
00010010003000610000000000000000000000000000000000000000000000000000000000000000000000000000000000000          REGISTERED VOTERS - TOTAL                               REGISTERED VOTERS - TOTAL             203-Yucca                                              00 
00010010004000594000000000000000000000000000000000000000000000000000000000000000000000000000000000000          REGISTERED VOTERS - TOTAL                               REGISTERED VOTERS - TOTAL             204-Chloride                                           00 
00010010005002644000000000000000000000000000000000000000000000000000000000000000000000000000000000000          REGISTERED VOTERS - TOTAL                               REGISTERED VOTERS - TOTAL             205-North Canyon                                       00 
00010010006000166000000000000000000000000000000000000000000000000000000000000000000000000000000000000          REGISTERED VOTERS - TOTAL                               REGISTERED VOTERS - TOTAL             206-Oatman                                             00 
00010010007001759000000000000000000000000000000000000000000000000000000000000000000000000000000000000          REGISTERED VOTERS - TOTAL                               REGISTERED VOTERS - TOTAL             207-Desert Hills                                       00 
00010010008000887000000000000000000000000000000000000000000000000000000000000000000000000000000000000          REGISTERED VOTERS - TOTAL                               REGISTERED VOTERS - TOTAL             208-Meadview                                           00 
00010010009001195000000000000000000000000000000000000000000000000000000000000000000000000000000000000          REGISTERED VOTERS - TOTAL                               REGISTERED VOTERS - TOTAL             209-Dolan Springs                                      00 
00010010010006056000000000000000000000000000000000000000000000000000000000000000000000000000000000000          REGISTERED VOTERS - TOTAL                               REGISTERED VOTERS - TOTAL             210-Golden Valley                                      00 
00010010011021449000000000000000000000000000000000000000000000000000000000000000000000000000000000000          REGISTERED VOTERS - TOTAL                               REGISTERED VOTERS - TOTAL             211-Bullhead City                                      00 
00010010012012402000000000000000000000000000000000000000000000000000000000000000000000000000000000000          REGISTERED VOTERS - TOTAL                               REGISTERED VOTERS - TOTAL             212-Mohave Valley                                      00 
00010010013001644000000000000000000000000000000000000000000000000000000000000000000000000000000000000          REGISTERED VOTERS - TOTAL                               REGISTERED VOTERS - TOTAL             213-Hackberry                                          00 
00010010014000143000000000000000000000000000000000000000000000000000000000000000000000000000000000000          REGISTERED VOTERS - TOTAL                               REGISTERED VOTERS - TOTAL             214-Truxton                                            00 
00010010015005136000000000000000000000000000000000000000000000000000000000000000000000000000000000000          REGISTERED VOTERS - TOTAL                               REGISTERED VOTERS - TOTAL             215-Kingman Central                                    00 
00010010016006390000000000000000000000000000000000000000000000000000000000000000000000000000000000000          REGISTERED VOTERS - TOTAL                               REGISTERED VOTERS - TOTAL             216-Kingman North                                      00 
00010010017007333000000000000000000000000000000000000000000000000000000000000000000000000000000000000          REGISTERED VOTERS - TOTAL                               REGISTERED VOTERS - TOTAL             217-Kingman South                                      00 
00010010018009022000000000000000000000000000000000000000000000000000000000000000000000000000000000000          REGISTERED VOTERS - TOTAL                               REGISTERED VOTERS - TOTAL             218-Kingman East                                       00 
00010010019009120000000000000000000000000000000000000000000000000000000000000000000000000000000000000          REGISTERED VOTERS - TOTAL                               REGISTERED VOTERS - TOTAL             219-Lake Havasu North                                  00 
00010010020024606000000000000000000000000000000000000000000000000000000000000000000000000000000000000          REGISTERED VOTERS - TOTAL                               REGISTERED VOTERS - TOTAL             220-Lake Havasu South                                  00 
00010010021001618000000000000000000000000000000000000000000000000000000000000000000000000000000000000          REGISTERED VOTERS - TOTAL                               REGISTERED VOTERS - TOTAL             221-Littlefield                                        00 
00010010022001269000000000000000000000000000000000000000000000000000000000000000000000000000000000000          REGISTERED VOTERS - TOTAL                               REGISTERED VOTERS - TOTAL             222-Golden Shores                                      00 
00010010023000151000000000000000000000000000000000000000000000000000000000000000000000000000000000000          REGISTERED VOTERS - TOTAL                               REGISTERED VOTERS - TOTAL             223-Moccasin                                           00 
00010010024000617000000000000000000000000000000000000000000000000000000000000000000000000000000000000          REGISTERED VOTERS - TOTAL                               REGISTERED VOTERS - TOTAL             224-Peach Springs                                      00 
00020010001000179000069000104000006000000000000000000000000000000000000000000000000000000000000000000          BALLOTS CAST - TOTAL                                    BALLOTS CAST - TOTAL                  201-Wikieup                                            00 
00020010002000187000064000114000009000000000000000000000000000000000000000000000000000000000000000000          BALLOTS CAST - TOTAL                                    BALLOTS CAST - TOTAL                  202-White Hills                                        00 
00020010003000431000150000266000015000000000000000000000000000000000000000000000000000000000000000000          BALLOTS CAST - TOTAL                                    BALLOTS CAST - TOTAL                  203-Yucca                                              00 
00020010004000427000105000304000018000000000000000000000000000000000000000000000000000000000000000000          BALLOTS CAST - TOTAL                                    BALLOTS CAST - TOTAL                  204-Chloride                                           00 
00020010005001066000676000294000096000000000000000000000000000000000000000000000000000000000000000000          BALLOTS CAST - TOTAL                                    BALLOTS CAST - TOTAL                  205-North Canyon                                       00 
00020010006000103000042000057000004000000000000000000000000000000000000000000000000000000000000000000          BALLOTS CAST - TOTAL                                    BALLOTS CAST - TOTAL                  206-Oatman                                             00 
00020010007001319000410000844000065000000000000000000000000000000000000000000000000000000000000000000          BALLOTS CAST - TOTAL                                    BALLOTS CAST - TOTAL                  207-Desert Hills                                       00 
00020010008000653000211000423000019000000000000000000000000000000000000000000000000000000000000000000          BALLOTS CAST - TOTAL                                    BALLOTS CAST - TOTAL                  208-Meadview                                           00 
00020010009000743000269000435000039000000000000000000000000000000000000000000000000000000000000000000          BALLOTS CAST - TOTAL                                    BALLOTS CAST - TOTAL                  209-Dolan Springs                                      00 
00020010010004251001521002543000187000000000000000000000000000000000000000000000000000000000000000000          BALLOTS CAST - TOTAL                                    BALLOTS CAST - TOTAL                  210-Golden Valley                                      00 
00020010011013859003903009335000621000000000000000000000000000000000000000000000000000000000000000000          BALLOTS CAST - TOTAL                                    BALLOTS CAST - TOTAL                  211-Bullhead City                                      00 
00020010012008432003081004941000410000000000000000000000000000000000000000000000000000000000000000000          BALLOTS CAST - TOTAL                                    BALLOTS CAST - TOTAL                  212-Mohave Valley                                      00 
00020010013001304000531000727000046000000000000000000000000000000000000000000000000000000000000000000          BALLOTS CAST - TOTAL                                    BALLOTS CAST - TOTAL                  213-Hackberry                                          00 
00020010014000105000021000082000002000000000000000000000000000000000000000000000000000000000000000000          BALLOTS CAST - TOTAL                                    BALLOTS CAST - TOTAL                  214-Truxton                                            00 
00020010015003585001315002046000224000000000000000000000000000000000000000000000000000000000000000000          BALLOTS CAST - TOTAL                                    BALLOTS CAST - TOTAL                  215-Kingman Central                                    00 
00020010016004391001604002535000252000000000000000000000000000000000000000000000000000000000000000000          BALLOTS CAST - TOTAL                                    BALLOTS CAST - TOTAL                  216-Kingman North                                      00 
00020010017005709001992003492000225000000000000000000000000000000000000000000000000000000000000000000          BALLOTS CAST - TOTAL                                    BALLOTS CAST - TOTAL                  217-Kingman South                                      00 
00020010018006285002094003860000331000000000000000000000000000000000000000000000000000000000000000000          BALLOTS CAST - TOTAL                                    BALLOTS CAST - TOTAL                  218-Kingman East                                       00 
00020010019007086001977004850000259000000000000000000000000000000000000000000000000000000000000000000          BALLOTS CAST - TOTAL                                    BALLOTS CAST - TOTAL                  219-Lake Havasu North                                  00 
00020010020018864005184012948000732000000000000000000000000000000000000000000000000000000000000000000          BALLOTS CAST - TOTAL                                    BALLOTS CAST - TOTAL                  220-Lake Havasu South                                  00 
00020010021000965000524000379000062000000000000000000000000000000000000000000000000000000000000000000          BALLOTS CAST - TOTAL                                    BALLOTS CAST - TOTAL                  221-Littlefield                                        00 
00020010022000858000373000454000031000000000000000000000000000000000000000000000000000000000000000000          BALLOTS CAST - TOTAL                                    BALLOTS CAST - TOTAL                  222-Golden Shores                                      00 
00020010023000071000046000022000003000000000000000000000000000000000000000000000000000000000000000000          BALLOTS CAST - TOTAL                                    BALLOTS CAST - TOTAL                  223-Moccasin                                           00 
00020010024000241000143000064000034000000000000000000000000000000000000000000000000000000000000000000          BALLOTS CAST - TOTAL                                    BALLOTS CAST - TOTAL                  224-Peach Springs                                      00 
00030010001000000000000000000000000000000000000000000000000000000000000000000000000000000000000000000          BALLOTS CAST - BLANK                                    BALLOTS CAST - BLANK                  201-Wikieup                                            00 
00030010002000000000000000000000000000000000000000000000000000000000000000000000000000000000000000000          BALLOTS CAST - BLANK                                    BALLOTS CAST - BLANK                  202-White Hills                                        00 
00030010003000000000000000000000000000000000000000000000000000000000000000000000000000000000000000000          BALLOTS CAST - BLANK                                    BALLOTS CAST - BLANK                  203-Yucca                                              00 
00030010004000000000000000000000000000000000000000000000000000000000000000000000000000000000000000000          BALLOTS CAST - BLANK                                    BALLOTS CAST - BLANK                  204-Chloride                                           00 
00030010005000000000000000000000000000000000000000000000000000000000000000000000000000000000000000000          BALLOTS CAST - BLANK                                    BALLOTS CAST - BLANK                  205-North Canyon                                       00 
00030010006000000000000000000000000000000000000000000000000000000000000000000000000000000000000000000          BALLOTS CAST - BLANK                                    BALLOTS CAST - BLANK                  206-Oatman                                             00 
00030010007000000000000000000000000000000000000000000000000000000000000000000000000000000000000000000          BALLOTS CAST - BLANK                                    BALLOTS CAST - BLANK                  207-Desert Hills                                       00 
00030010008000000000000000000000000000000000000000000000000000000000000000000000000000000000000000000          BALLOTS CAST - BLANK                                    BALLOTS CAST - BLANK                  208-Meadview                                           00 
00030010009000000000000000000000000000000000000000000000000000000000000000000000000000000000000000000          BALLOTS CAST - BLANK                                    BALLOTS CAST - BLANK                  209-Dolan Springs                                      00 
00030010010000001000001000000000000000000000000000000000000000000000000000000000000000000000000000000          BALLOTS CAST - BLANK                                    BALLOTS CAST - BLANK                  210-Golden Valley                                      00 
00030010011000002000002000000000000000000000000000000000000000000000000000000000000000000000000000000          BALLOTS CAST - BLANK                                    BALLOTS CAST - BLANK                  211-Bullhead City                                      00 
00030010012000000000000000000000000000000000000000000000000000000000000000000000000000000000000000000          BALLOTS CAST - BLANK                                    BALLOTS CAST - BLANK                  212-Mohave Valley                                      00 
00030010013000000000000000000000000000000000000000000000000000000000000000000000000000000000000000000          BALLOTS CAST - BLANK                                    BALLOTS CAST - BLANK                  213-Hackberry                                          00 
00030010014000000000000000000000000000000000000000000000000000000000000000000000000000000000000000000          BALLOTS CAST - BLANK                                    BALLOTS CAST - BLANK                  214-Truxton                                            00 
00030010015000002000001000001000000000000000000000000000000000000000000000000000000000000000000000000          BALLOTS CAST - BLANK                                    BALLOTS CAST - BLANK                  215-Kingman Central                                    00 
00030010016000000000000000000000000000000000000000000000000000000000000000000000000000000000000000000          BALLOTS CAST - BLANK                                    BALLOTS CAST - BLANK                  216-Kingman North                                      00 
00030010017000001000001000000000000000000000000000000000000000000000000000000000000000000000000000000          BALLOTS CAST - BLANK                                    BALLOTS CAST - BLANK                  217-Kingman South                                      00 
00030010018000000000000000000000000000000000000000000000000000000000000000000000000000000000000000000          BALLOTS CAST - BLANK                                    BALLOTS CAST - BLANK                  218-Kingman East                                       00 
00030010019000000000000000000000000000000000000000000000000000000000000000000000000000000000000000000          BALLOTS CAST - BLANK                                    BALLOTS CAST - BLANK                  219-Lake Havasu North                                  00 
00030010020000002000000000001000001000000000000000000000000000000000000000000000000000000000000000000          BALLOTS CAST - BLANK                                    BALLOTS CAST - BLANK                  220-Lake Havasu South                                  00 
00030010021000000000000000000000000000000000000000000000000000000000000000000000000000000000000000000          BALLOTS CAST - BLANK                                    BALLOTS CAST - BLANK                  221-Littlefield                                        00 
00030010022000000000000000000000000000000000000000000000000000000000000000000000000000000000000000000          BALLOTS CAST - BLANK                                    BALLOTS CAST - BLANK                  222-Golden Shores                                      00 
00030010023000000000000000000000000000000000000000000000000000000000000000000000000000000000000000000          BALLOTS CAST - BLANK                                    BALLOTS CAST - BLANK                  223-Moccasin                                           00 
00030010024000001000000000000000001000000000000000000000000000000000000000000000000000000000000000000          BALLOTS CAST - BLANK                                    BALLOTS CAST - BLANK                  224-Peach Springs                                      00 
01020010001000149000060000083000006000000000000000000000000000000000000000000000000000000000000000000REP       Presidential Electors                                   TRUMP, PENCE                          201-Wikieup                                            01 
01020010002000137000045000085000007000000000000000000000000000000000000000000000000000000000000000000REP       Presidential Electors                                   TRUMP, PENCE                          202-White Hills                                        01 
01020010003000332000122000198000012000000000000000000000000000000000000000000000000000000000000000000REP       Presidential Electors                                   TRUMP, PENCE                          203-Yucca                                              01 
01020010004000332000094000225000013000000000000000000000000000000000000000000000000000000000000000000REP       Presidential Electors                                   TRUMP, PENCE                          204-Chloride                                           01 
01020010005000781000520000188000073000000000000000000000000000000000000000000000000000000000000000000REP       Presidential Electors                                   TRUMP, PENCE                          205-North Canyon                                       01 
01020010006000081000035000042000004000000000000000000000000000000000000000000000000000000000000000000REP       Presidential Electors                                   TRUMP, PENCE                          206-Oatman                                             01 
01020010007001003000341000610000052000000000000000000000000000000000000000000000000000000000000000000REP       Presidential Electors                                   TRUMP, PENCE                          207-Desert Hills                                       01 
01020010008000479000172000291000016000000000000000000000000000000000000000000000000000000000000000000REP       Presidential Electors                                   TRUMP, PENCE                          208-Meadview                                           01 
01020010009000503000197000280000026000000000000000000000000000000000000000000000000000000000000000000REP       Presidential Electors                                   TRUMP, PENCE                          209-Dolan Springs                                      01 
01020010010003175001199001834000142000000000000000000000000000000000000000000000000000000000000000000REP       Presidential Electors                                   TRUMP, PENCE                          210-Golden Valley                                      01 
01020010011009393002744006242000407000000000000000000000000000000000000000000000000000000000000000000REP       Presidential Electors                                   TRUMP, PENCE                          211-Bullhead City                                      01 
01020010012006002002289003417000296000000000000000000000000000000000000000000000000000000000000000000REP       Presidential Electors                                   TRUMP, PENCE                          212-Mohave Valley                                      01 
01020010013000988000419000531000038000000000000000000000000000000000000000000000000000000000000000000REP       Presidential Electors                                   TRUMP, PENCE                          213-Hackberry                                          01 
01020010014000081000017000062000002000000000000000000000000000000000000000000000000000000000000000000REP       Presidential Electors                                   TRUMP, PENCE                          214-Truxton                                            01 
01020010015002415000943001317000155000000000000000000000000000000000000000000000000000000000000000000REP       Presidential Electors                                   TRUMP, PENCE                          215-Kingman Central                                    01 
01020010016003127001232001711000184000000000000000000000000000000000000000000000000000000000000000000REP       Presidential Electors                                   TRUMP, PENCE                          216-Kingman North                                      01 
01020010017004022001469002384000169000000000000000000000000000000000000000000000000000000000000000000REP       Presidential Electors                                   TRUMP, PENCE                          217-Kingman South                                      01 
01020010018004545001624002667000254000000000000000000000000000000000000000000000000000000000000000000REP       Presidential Electors                                   TRUMP, PENCE                          218-Kingman East                                       01 
01020010019005375001557003630000188000000000000000000000000000000000000000000000000000000000000000000REP       Presidential Electors                                   TRUMP, PENCE                          219-Lake Havasu North                                  01 
01020010020014009004032009446000531000000000000000000000000000000000000000000000000000000000000000000REP       Presidential Electors                                   TRUMP, PENCE                          220-Lake Havasu South                                  01 
01020010021000672000377000253000042000000000000000000000000000000000000000000000000000000000000000000REP       Presidential Electors                                   TRUMP, PENCE                          221-Littlefield                                        01 
01020010022000618000280000313000025000000000000000000000000000000000000000000000000000000000000000000REP       Presidential Electors                                   TRUMP, PENCE                          222-Golden Shores                                      01 
01020010023000035000024000010000001000000000000000000000000000000000000000000000000000000000000000000REP       Presidential Electors                                   TRUMP, PENCE                          223-Moccasin                                           01 
01020010024000028000015000012000001000000000000000000000000000000000000000000000000000000000000000000REP       Presidential Electors                                   TRUMP, PENCE                          224-Peach Springs                                      01 
01020020001000020000006000014000000000000000000000000000000000000000000000000000000000000000000000000DEM       Presidential Electors                                   CLINTON, KAINE                        201-Wikieup                                            01 
01020020002000032000013000017000002000000000000000000000000000000000000000000000000000000000000000000DEM       Presidential Electors                                   CLINTON, KAINE                        202-White Hills                                        01 
01020020003000072000019000051000002000000000000000000000000000000000000000000000000000000000000000000DEM       Presidential Electors                                   CLINTON, KAINE                        203-Yucca                                              01 
01020020004000074000008000063000003000000000000000000000000000000000000000000000000000000000000000000DEM       Presidential Electors                                   CLINTON, KAINE                        204-Chloride                                           01 
01020020005000026000015000010000001000000000000000000000000000000000000000000000000000000000000000000DEM       Presidential Electors                                   CLINTON, KAINE                        205-North Canyon                                       01 
01020020006000017000007000010000000000000000000000000000000000000000000000000000000000000000000000000DEM       Presidential Electors                                   CLINTON, KAINE                        206-Oatman                                             01 
01020020007000265000048000207000010000000000000000000000000000000000000000000000000000000000000000000DEM       Presidential Electors                                   CLINTON, KAINE                        207-Desert Hills                                       01 
01020020008000153000036000115000002000000000000000000000000000000000000000000000000000000000000000000DEM       Presidential Electors                                   CLINTON, KAINE                        208-Meadview                                           01 
01020020009000178000053000118000007000000000000000000000000000000000000000000000000000000000000000000DEM       Presidential Electors                                   CLINTON, KAINE                        209-Dolan Springs                                      01 
01020020010000821000249000547000025000000000000000000000000000000000000000000000000000000000000000000DEM       Presidential Electors                                   CLINTON, KAINE                        210-Golden Valley                                      01 
01020020011003675000927002581000167000000000000000000000000000000000000000000000000000000000000000000DEM       Presidential Electors                                   CLINTON, KAINE                        211-Bullhead City                                      01 
01020020012001953000629001250000074000000000000000000000000000000000000000000000000000000000000000000DEM       Presidential Electors                                   CLINTON, KAINE                        212-Mohave Valley                                      01 
01020020013000227000081000143000003000000000000000000000000000000000000000000000000000000000000000000DEM       Presidential Electors                                   CLINTON, KAINE                        213-Hackberry                                          01 
01020020014000016000003000013000000000000000000000000000000000000000000000000000000000000000000000000DEM       Presidential Electors                                   CLINTON, KAINE                        214-Truxton                                            01 
01020020015000830000246000552000032000000000000000000000000000000000000000000000000000000000000000000DEM       Presidential Electors                                   CLINTON, KAINE                        215-Kingman Central                                    01 
01020020016000933000274000616000043000000000000000000000000000000000000000000000000000000000000000000DEM       Presidential Electors                                   CLINTON, KAINE                        216-Kingman North                                      01 
01020020017001231000350000844000037000000000000000000000000000000000000000000000000000000000000000000DEM       Presidential Electors                                   CLINTON, KAINE                        217-Kingman South                                      01 
01020020018001210000303000856000051000000000000000000000000000000000000000000000000000000000000000000DEM       Presidential Electors                                   CLINTON, KAINE                        218-Kingman East                                       01 
01020020019001331000299000977000055000000000000000000000000000000000000000000000000000000000000000000DEM       Presidential Electors                                   CLINTON, KAINE                        219-Lake Havasu North                                  01 
01020020020003735000851002759000125000000000000000000000000000000000000000000000000000000000000000000DEM       Presidential Electors                                   CLINTON, KAINE                        220-Lake Havasu South                                  01 
01020020021000237000120000100000017000000000000000000000000000000000000000000000000000000000000000000DEM       Presidential Electors                                   CLINTON, KAINE                        221-Littlefield                                        01 
01020020022000197000074000118000005000000000000000000000000000000000000000000000000000000000000000000DEM       Presidential Electors                                   CLINTON, KAINE                        222-Golden Shores                                      01 
01020020023000028000018000008000002000000000000000000000000000000000000000000000000000000000000000000DEM       Presidential Electors                                   CLINTON, KAINE                        223-Moccasin                                           01 
01020020024000194000117000049000028000000000000000000000000000000000000000000000000000000000000000000DEM       Presidential Electors                                   CLINTON, KAINE                        224-Peach Springs                                      01 
01020030001000004000001000003000000000000000000000000000000000000000000000000000000000000000000000000LBT       Presidential Electors                                   JOHNSON, WELD                         201-Wikieup                                            01 
01020030002000009000004000005000000000000000000000000000000000000000000000000000000000000000000000000LBT       Presidential Electors                                   JOHNSON, WELD                         202-White Hills                                        01 
01020030003000010000004000006000000000000000000000000000000000000000000000000000000000000000000000000LBT       Presidential Electors                                   JOHNSON, WELD                         203-Yucca                                              01 
01020030004000009000002000006000001000000000000000000000000000000000000000000000000000000000000000000LBT       Presidential Electors                                   JOHNSON, WELD                         204-Chloride                                           01 
01020030005000096000060000027000009000000000000000000000000000000000000000000000000000000000000000000LBT       Presidential Electors                                   JOHNSON, WELD                         205-North Canyon                                       01 
01020030006000003000000000003000000000000000000000000000000000000000000000000000000000000000000000000LBT       Presidential Electors                                   JOHNSON, WELD                         206-Oatman                                             01 
01020030007000025000011000013000001000000000000000000000000000000000000000000000000000000000000000000LBT       Presidential Electors                                   JOHNSON, WELD                         207-Desert Hills                                       01 
01020030008000005000000000005000000000000000000000000000000000000000000000000000000000000000000000000LBT       Presidential Electors                                   JOHNSON, WELD                         208-Meadview                                           01 
01020030009000032000006000023000003000000000000000000000000000000000000000000000000000000000000000000LBT       Presidential Electors                                   JOHNSON, WELD                         209-Dolan Springs                                      01 
01020030010000114000034000072000008000000000000000000000000000000000000000000000000000000000000000000LBT       Presidential Electors                                   JOHNSON, WELD                         210-Golden Valley                                      01 
01020030011000384000123000239000022000000000000000000000000000000000000000000000000000000000000000000LBT       Presidential Electors                                   JOHNSON, WELD                         211-Bullhead City                                      01 
01020030012000234000082000130000022000000000000000000000000000000000000000000000000000000000000000000LBT       Presidential Electors                                   JOHNSON, WELD                         212-Mohave Valley                                      01 
01020030013000045000017000025000003000000000000000000000000000000000000000000000000000000000000000000LBT       Presidential Electors                                   JOHNSON, WELD                         213-Hackberry                                          01 
01020030014000002000000000002000000000000000000000000000000000000000000000000000000000000000000000000LBT       Presidential Electors                                   JOHNSON, WELD                         214-Truxton                                            01 
01020030015000187000077000087000023000000000000000000000000000000000000000000000000000000000000000000LBT       Presidential Electors                                   JOHNSON, WELD                         215-Kingman Central                                    01 
01020030016000177000054000112000011000000000000000000000000000000000000000000000000000000000000000000LBT       Presidential Electors                                   JOHNSON, WELD                         216-Kingman North                                      01 
01020030017000244000099000137000008000000000000000000000000000000000000000000000000000000000000000000LBT       Presidential Electors                                   JOHNSON, WELD                         217-Kingman South                                      01 
01020030018000292000089000187000016000000000000000000000000000000000000000000000000000000000000000000LBT       Presidential Electors                                   JOHNSON, WELD                         218-Kingman East                                       01 
01020030019000192000065000118000009000000000000000000000000000000000000000000000000000000000000000000LBT       Presidential Electors                                   JOHNSON, WELD                         219-Lake Havasu North                                  01 
01020030020000532000136000355000041000000000000000000000000000000000000000000000000000000000000000000LBT       Presidential Electors                                   JOHNSON, WELD                         220-Lake Havasu South                                  01 
01020030021000027000016000011000000000000000000000000000000000000000000000000000000000000000000000000LBT       Presidential Electors                                   JOHNSON, WELD                         221-Littlefield                                        01 
01020030022000007000001000005000001000000000000000000000000000000000000000000000000000000000000000000LBT       Presidential Electors                                   JOHNSON, WELD                         222-Golden Shores                                      01 
01020030023000004000004000000000000000000000000000000000000000000000000000000000000000000000000000000LBT       Presidential Electors                                   JOHNSON, WELD                         223-Moccasin                                           01 
01020030024000005000004000000000001000000000000000000000000000000000000000000000000000000000000000000LBT       Presidential Electors                                   JOHNSON, WELD                         224-Peach Springs                                      01 
01020040001000002000001000001000000000000000000000000000000000000000000000000000000000000000000000000GRN       Presidential Electors                                   STEIN, BARAKA                         201-Wikieup                                            01 
01020040002000003000001000002000000000000000000000000000000000000000000000000000000000000000000000000GRN       Presidential Electors                                   STEIN, BARAKA                         202-White Hills                                        01 
01020040003000008000002000006000000000000000000000000000000000000000000000000000000000000000000000000GRN       Presidential Electors                                   STEIN, BARAKA                         203-Yucca                                              01 
01020040004000003000000000003000000000000000000000000000000000000000000000000000000000000000000000000GRN       Presidential Electors                                   STEIN, BARAKA                         204-Chloride                                           01 
01020040005000010000005000004000001000000000000000000000000000000000000000000000000000000000000000000GRN       Presidential Electors                                   STEIN, BARAKA                         205-North Canyon                                       01 
01020040006000001000000000001000000000000000000000000000000000000000000000000000000000000000000000000GRN       Presidential Electors                                   STEIN, BARAKA                         206-Oatman                                             01 
01020040007000006000004000002000000000000000000000000000000000000000000000000000000000000000000000000GRN       Presidential Electors                                   STEIN, BARAKA                         207-Desert Hills                                       01 
01020040008000002000000000002000000000000000000000000000000000000000000000000000000000000000000000000GRN       Presidential Electors                                   STEIN, BARAKA                         208-Meadview                                           01 
01020040009000007000005000001000001000000000000000000000000000000000000000000000000000000000000000000GRN       Presidential Electors                                   STEIN, BARAKA                         209-Dolan Springs                                      01 
01020040010000039000012000024000003000000000000000000000000000000000000000000000000000000000000000000GRN       Presidential Electors                                   STEIN, BARAKA                         210-Golden Valley                                      01 
01020040011000125000036000080000009000000000000000000000000000000000000000000000000000000000000000000GRN       Presidential Electors                                   STEIN, BARAKA                         211-Bullhead City                                      01 
01020040012000082000027000047000008000000000000000000000000000000000000000000000000000000000000000000GRN       Presidential Electors                                   STEIN, BARAKA                         212-Mohave Valley                                      01 
01020040013000008000002000006000000000000000000000000000000000000000000000000000000000000000000000000GRN       Presidential Electors                                   STEIN, BARAKA                         213-Hackberry                                          01 
01020040014000001000000000001000000000000000000000000000000000000000000000000000000000000000000000000GRN       Presidential Electors                                   STEIN, BARAKA                         214-Truxton                                            01 
01020040015000054000019000029000006000000000000000000000000000000000000000000000000000000000000000000GRN       Presidential Electors                                   STEIN, BARAKA                         215-Kingman Central                                    01 
01020040016000045000011000028000006000000000000000000000000000000000000000000000000000000000000000000GRN       Presidential Electors                                   STEIN, BARAKA                         216-Kingman North                                      01 
01020040017000058000025000028000005000000000000000000000000000000000000000000000000000000000000000000GRN       Presidential Electors                                   STEIN, BARAKA                         217-Kingman South                                      01 
01020040018000071000025000042000004000000000000000000000000000000000000000000000000000000000000000000GRN       Presidential Electors                                   STEIN, BARAKA                         218-Kingman East                                       01 
01020040019000049000015000031000003000000000000000000000000000000000000000000000000000000000000000000GRN       Presidential Electors                                   STEIN, BARAKA                         219-Lake Havasu North                                  01 
01020040020000145000051000080000014000000000000000000000000000000000000000000000000000000000000000000GRN       Presidential Electors                                   STEIN, BARAKA                         220-Lake Havasu South                                  01 
01020040021000004000001000003000000000000000000000000000000000000000000000000000000000000000000000000GRN       Presidential Electors                                   STEIN, BARAKA                         221-Littlefield                                        01 
01020040022000012000005000007000000000000000000000000000000000000000000000000000000000000000000000000GRN       Presidential Electors                                   STEIN, BARAKA                         222-Golden Shores                                      01 
01020040023000001000000000001000000000000000000000000000000000000000000000000000000000000000000000000GRN       Presidential Electors                                   STEIN, BARAKA                         223-Moccasin                                           01 
01020040024000004000002000001000001000000000000000000000000000000000000000000000000000000000000000000GRN       Presidential Electors                                   STEIN, BARAKA                         224-Peach Springs                                      01 
01020050001000000000000000000000000000000000000000000000000000000000000000000000000000000000000000000NON       Presidential Electors                                   WRITE-IN                              201-Wikieup                                            01 
01020050002000002000000000002000000000000000000000000000000000000000000000000000000000000000000000000NON       Presidential Electors                                   WRITE-IN                              202-White Hills                                        01 
01020050003000005000001000004000000000000000000000000000000000000000000000000000000000000000000000000NON       Presidential Electors                                   WRITE-IN                              203-Yucca                                              01 
01020050004000004000001000003000000000000000000000000000000000000000000000000000000000000000000000000NON       Presidential Electors                                   WRITE-IN                              204-Chloride                                           01 
01020050005000020000014000006000000000000000000000000000000000000000000000000000000000000000000000000NON       Presidential Electors                                   WRITE-IN                              205-North Canyon                                       01 
01020050006000000000000000000000000000000000000000000000000000000000000000000000000000000000000000000NON       Presidential Electors                                   WRITE-IN                              206-Oatman                                             01 
01020050007000008000002000005000001000000000000000000000000000000000000000000000000000000000000000000NON       Presidential Electors                                   WRITE-IN                              207-Desert Hills                                       01 
01020050008000004000001000003000000000000000000000000000000000000000000000000000000000000000000000000NON       Presidential Electors                                   WRITE-IN                              208-Meadview                                           01 
01020050009000007000001000004000002000000000000000000000000000000000000000000000000000000000000000000NON       Presidential Electors                                   WRITE-IN                              209-Dolan Springs                                      01 
01020050010000028000008000017000003000000000000000000000000000000000000000000000000000000000000000000NON       Presidential Electors                                   WRITE-IN                              210-Golden Valley                                      01 
01020050011000124000038000076000010000000000000000000000000000000000000000000000000000000000000000000NON       Presidential Electors                                   WRITE-IN                              211-Bullhead City                                      01 
01020050012000060000025000031000004000000000000000000000000000000000000000000000000000000000000000000NON       Presidential Electors                                   WRITE-IN                              212-Mohave Valley                                      01 
01020050013000015000007000008000000000000000000000000000000000000000000000000000000000000000000000000NON       Presidential Electors                                   WRITE-IN                              213-Hackberry                                          01 
01020050014000001000001000000000000000000000000000000000000000000000000000000000000000000000000000000NON       Presidential Electors                                   WRITE-IN                              214-Truxton                                            01 
01020050015000054000017000033000004000000000000000000000000000000000000000000000000000000000000000000NON       Presidential Electors                                   WRITE-IN                              215-Kingman Central                                    01 
01020050016000050000017000030000003000000000000000000000000000000000000000000000000000000000000000000NON       Presidential Electors                                   WRITE-IN                              216-Kingman North                                      01 
01020050017000078000028000046000004000000000000000000000000000000000000000000000000000000000000000000NON       Presidential Electors                                   WRITE-IN                              217-Kingman South                                      01 
01020050018000089000031000055000003000000000000000000000000000000000000000000000000000000000000000000NON       Presidential Electors                                   WRITE-IN                              218-Kingman East                                       01 
01020050019000060000018000039000003000000000000000000000000000000000000000000000000000000000000000000NON       Presidential Electors                                   WRITE-IN                              219-Lake Havasu North                                  01 
01020050020000182000053000121000008000000000000000000000000000000000000000000000000000000000000000000NON       Presidential Electors                                   WRITE-IN                              220-Lake Havasu South                                  01 
01020050021000017000005000009000003000000000000000000000000000000000000000000000000000000000000000000NON       Presidential Electors                                   WRITE-IN                              221-Littlefield                                        01 
01020050022000012000004000008000000000000000000000000000000000000000000000000000000000000000000000000NON       Presidential Electors                                   WRITE-IN                              222-Golden Shores                                      01 
01020050023000003000000000003000000000000000000000000000000000000000000000000000000000000000000000000NON       Presidential Electors                                   WRITE-IN                              223-Moccasin                                           01 
01020050024000004000002000002000000000000000000000000000000000000000000000000000000000000000000000000NON       Presidential Electors                                   WRITE-IN                              224-Peach Springs                                      01 
01020060001000002000000000002000000000000000000000000000000000000000000000000000000000000000000000000          Presidential Electors                                   OVER VOTES                            201-Wikieup                                            01 
01020060002000000000000000000000000000000000000000000000000000000000000000000000000000000000000000000          Presidential Electors                                   OVER VOTES                            202-White Hills                                        01 
01020060003000000000000000000000000000000000000000000000000000000000000000000000000000000000000000000          Presidential Electors                                   OVER VOTES                            203-Yucca                                              01 
01020060004000002000000000002000000000000000000000000000000000000000000000000000000000000000000000000          Presidential Electors                                   OVER VOTES                            204-Chloride                                           01 
01020060005000001000001000000000000000000000000000000000000000000000000000000000000000000000000000000          Presidential Electors                                   OVER VOTES                            205-North Canyon                                       01 
01020060006000001000000000001000000000000000000000000000000000000000000000000000000000000000000000000          Presidential Electors                                   OVER VOTES                            206-Oatman                                             01 
01020060007000003000001000001000001000000000000000000000000000000000000000000000000000000000000000000          Presidential Electors                                   OVER VOTES                            207-Desert Hills                                       01 
01020060008000002000000000002000000000000000000000000000000000000000000000000000000000000000000000000          Presidential Electors                                   OVER VOTES                            208-Meadview                                           01 
01020060009000006000002000004000000000000000000000000000000000000000000000000000000000000000000000000          Presidential Electors                                   OVER VOTES                            209-Dolan Springs                                      01 
01020060010000043000009000030000004000000000000000000000000000000000000000000000000000000000000000000          Presidential Electors                                   OVER VOTES                            210-Golden Valley                                      01 
01020060011000069000017000049000003000000000000000000000000000000000000000000000000000000000000000000          Presidential Electors                                   OVER VOTES                            211-Bullhead City                                      01 
01020060012000034000010000024000000000000000000000000000000000000000000000000000000000000000000000000          Presidential Electors                                   OVER VOTES                            212-Mohave Valley                                      01 
01020060013000007000003000003000001000000000000000000000000000000000000000000000000000000000000000000          Presidential Electors                                   OVER VOTES                            213-Hackberry                                          01 
01020060014000002000000000002000000000000000000000000000000000000000000000000000000000000000000000000          Presidential Electors                                   OVER VOTES                            214-Truxton                                            01 
01020060015000017000004000011000002000000000000000000000000000000000000000000000000000000000000000000          Presidential Electors                                   OVER VOTES                            215-Kingman Central                                    01 
01020060016000022000005000015000002000000000000000000000000000000000000000000000000000000000000000000          Presidential Electors                                   OVER VOTES                            216-Kingman North                                      01 
01020060017000022000005000017000000000000000000000000000000000000000000000000000000000000000000000000          Presidential Electors                                   OVER VOTES                            217-Kingman South                                      01 
01020060018000025000007000017000001000000000000000000000000000000000000000000000000000000000000000000          Presidential Electors                                   OVER VOTES                            218-Kingman East                                       01 
01020060019000023000008000014000001000000000000000000000000000000000000000000000000000000000000000000          Presidential Electors                                   OVER VOTES                            219-Lake Havasu North                                  01 
01020060020000083000022000057000004000000000000000000000000000000000000000000000000000000000000000000          Presidential Electors                                   OVER VOTES                            220-Lake Havasu South                                  01 
01020060021000004000003000001000000000000000000000000000000000000000000000000000000000000000000000000          Presidential Electors                                   OVER VOTES                            221-Littlefield                                        01 
01020060022000005000004000001000000000000000000000000000000000000000000000000000000000000000000000000          Presidential Electors                                   OVER VOTES                            222-Golden Shores                                      01 
01020060023000000000000000000000000000000000000000000000000000000000000000000000000000000000000000000          Presidential Electors                                   OVER VOTES                            223-Moccasin                                           01 
01020060024000002000001000000000001000000000000000000000000000000000000000000000000000000000000000000          Presidential Electors                                   OVER VOTES                            224-Peach Springs                                      01 
01020070001000002000001000001000000000000000000000000000000000000000000000000000000000000000000000000          Presidential Electors                                   UNDER VOTES                           201-Wikieup                                            01 
01020070002000004000001000003000000000000000000000000000000000000000000000000000000000000000000000000          Presidential Electors                                   UNDER VOTES                           202-White Hills                                        01 
01020070003000004000002000001000001000000000000000000000000000000000000000000000000000000000000000000          Presidential Electors                                   UNDER VOTES                           203-Yucca                                              01 
01020070004000003000000000002000001000000000000000000000000000000000000000000000000000000000000000000          Presidential Electors                                   UNDER VOTES                           204-Chloride                                           01 
01020070005000132000061000059000012000000000000000000000000000000000000000000000000000000000000000000          Presidential Electors                                   UNDER VOTES                           205-North Canyon                                       01 
01020070006000000000000000000000000000000000000000000000000000000000000000000000000000000000000000000          Presidential Electors                                   UNDER VOTES                           206-Oatman                                             01 
01020070007000009000003000006000000000000000000000000000000000000000000000000000000000000000000000000          Presidential Electors                                   UNDER VOTES                           207-Desert Hills                                       01 
01020070008000008000002000005000001000000000000000000000000000000000000000000000000000000000000000000          Presidential Electors                                   UNDER VOTES                           208-Meadview                                           01 
01020070009000010000005000005000000000000000000000000000000000000000000000000000000000000000000000000          Presidential Electors                                   UNDER VOTES                           209-Dolan Springs                                      01 
01020070010000031000010000019000002000000000000000000000000000000000000000000000000000000000000000000          Presidential Electors                                   UNDER VOTES                           210-Golden Valley                                      01 
01020070011000089000018000068000003000000000000000000000000000000000000000000000000000000000000000000          Presidential Electors                                   UNDER VOTES                           211-Bullhead City                                      01 
01020070012000067000019000042000006000000000000000000000000000000000000000000000000000000000000000000          Presidential Electors                                   UNDER VOTES                           212-Mohave Valley                                      01 
01020070013000014000002000011000001000000000000000000000000000000000000000000000000000000000000000000          Presidential Electors                                   UNDER VOTES                           213-Hackberry                                          01 
01020070014000002000000000002000000000000000000000000000000000000000000000000000000000000000000000000          Presidential Electors                                   UNDER VOTES                           214-Truxton                                            01 
01020070015000028000009000017000002000000000000000000000000000000000000000000000000000000000000000000          Presidential Electors                                   UNDER VOTES                           215-Kingman Central                                    01 
01020070016000037000011000023000003000000000000000000000000000000000000000000000000000000000000000000          Presidential Electors                                   UNDER VOTES                           216-Kingman North                                      01 
01020070017000054000016000036000002000000000000000000000000000000000000000000000000000000000000000000          Presidential Electors                                   UNDER VOTES                           217-Kingman South                                      01 
01020070018000053000015000036000002000000000000000000000000000000000000000000000000000000000000000000          Presidential Electors                                   UNDER VOTES                           218-Kingman East                                       01 
01020070019000056000015000041000000000000000000000000000000000000000000000000000000000000000000000000          Presidential Electors                                   UNDER VOTES                           219-Lake Havasu North                                  01 
01020070020000178000039000130000009000000000000000000000000000000000000000000000000000000000000000000          Presidential Electors                                   UNDER VOTES                           220-Lake Havasu South                                  01 
01020070021000004000002000002000000000000000000000000000000000000000000000000000000000000000000000000          Presidential Electors                                   UNDER VOTES                           221-Littlefield                                        01 
01020070022000007000005000002000000000000000000000000000000000000000000000000000000000000000000000000          Presidential Electors                                   UNDER VOTES                           222-Golden Shores                                      01 
01020070023000000000000000000000000000000000000000000000000000000000000000000000000000000000000000000          Presidential Electors                                   UNDER VOTES                           223-Moccasin                                           01 
01020070024000004000002000000000002000000000000000000000000000000000000000000000000000000000000000000          Presidential Electors                                   UNDER VOTES                           224-Peach Springs                                      01 
01030010001000132000049000078000005000000000000000000000000000000000000000000000000000000000000000000REP       United States Senator                                   MCCAIN, JOHN                          201-Wikieup                                            01 
01030010002000114000038000072000004000000000000000000000000000000000000000000000000000000000000000000REP       United States Senator                                   MCCAIN, JOHN                          202-White Hills                                        01 
01030010003000250000098000145000007000000000000000000000000000000000000000000000000000000000000000000REP       United States Senator                                   MCCAIN, JOHN                          203-Yucca                                              01 
01030010004000262000073000177000012000000000000000000000000000000000000000000000000000000000000000000REP       United States Senator                                   MCCAIN, JOHN                          204-Chloride                                           01 
01030010005000844000545000220000079000000000000000000000000000000000000000000000000000000000000000000REP       United States Senator                                   MCCAIN, JOHN                          205-North Canyon                                       01 
01030010006000070000026000040000004000000000000000000000000000000000000000000000000000000000000000000REP       United States Senator                                   MCCAIN, JOHN                          206-Oatman                                             01 
01030010007000847000275000531000041000000000000000000000000000000000000000000000000000000000000000000REP       United States Senator                                   MCCAIN, JOHN                          207-Desert Hills                                       01 
01030010008000416000154000247000015000000000000000000000000000000000000000000000000000000000000000000REP       United States Senator                                   MCCAIN, JOHN                          208-Meadview                                           01 
01030010009000404000149000229000026000000000000000000000000000000000000000000000000000000000000000000REP       United States Senator                                   MCCAIN, JOHN                          209-Dolan Springs                                      01 
01030010010002519000962001443000114000000000000000000000000000000000000000000000000000000000000000000REP       United States Senator                                   MCCAIN, JOHN                          210-Golden Valley                                      01 
01030010011008164002464005326000374000000000000000000000000000000000000000000000000000000000000000000REP       United States Senator                                   MCCAIN, JOHN                          211-Bullhead City                                      01 
01030010012005132001984002889000259000000000000000000000000000000000000000000000000000000000000000000REP       United States Senator                                   MCCAIN, JOHN                          212-Mohave Valley                                      01 
01030010013000808000347000429000032000000000000000000000000000000000000000000000000000000000000000000REP       United States Senator                                   MCCAIN, JOHN                          213-Hackberry                                          01 
01030010014000061000016000043000002000000000000000000000000000000000000000000000000000000000000000000REP       United States Senator                                   MCCAIN, JOHN                          214-Truxton                                            01 
01030010015002169000861001174000134000000000000000000000000000000000000000000000000000000000000000000REP       United States Senator                                   MCCAIN, JOHN                          215-Kingman Central                                    01 
01030010016002660001069001435000156000000000000000000000000000000000000000000000000000000000000000000REP       United States Senator                                   MCCAIN, JOHN                          216-Kingman North                                      01 
01030010017003506001324002032000150000000000000000000000000000000000000000000000000000000000000000000REP       United States Senator                                   MCCAIN, JOHN                          217-Kingman South                                      01 
01030010018003850001393002235000222000000000000000000000000000000000000000000000000000000000000000000REP       United States Senator                                   MCCAIN, JOHN                          218-Kingman East                                       01 
01030010019004709001385003161000163000000000000000000000000000000000000000000000000000000000000000000REP       United States Senator                                   MCCAIN, JOHN                          219-Lake Havasu North                                  01 
01030010020012388003625008278000485000000000000000000000000000000000000000000000000000000000000000000REP       United States Senator                                   MCCAIN, JOHN                          220-Lake Havasu South                                  01 
01030010021000560000311000216000033000000000000000000000000000000000000000000000000000000000000000000REP       United States Senator                                   MCCAIN, JOHN                          221-Littlefield                                        01 
01030010022000512000232000259000021000000000000000000000000000000000000000000000000000000000000000000REP       United States Senator                                   MCCAIN, JOHN                          222-Golden Shores                                      01 
01030010023000037000025000010000002000000000000000000000000000000000000000000000000000000000000000000REP       United States Senator                                   MCCAIN, JOHN                          223-Moccasin                                           01 
01030010024000072000047000017000008000000000000000000000000000000000000000000000000000000000000000000REP       United States Senator                                   MCCAIN, JOHN                          224-Peach Springs                                      01 
01030020001000017000005000011000001000000000000000000000000000000000000000000000000000000000000000000DEM       United States Senator                                   KIRKPATRICK, ANN                      201-Wikieup                                            01 
01030020002000045000017000025000003000000000000000000000000000000000000000000000000000000000000000000DEM       United States Senator                                   KIRKPATRICK, ANN                      202-White Hills                                        01 
01030020003000088000025000059000004000000000000000000000000000000000000000000000000000000000000000000DEM       United States Senator                                   KIRKPATRICK, ANN                      203-Yucca                                              01 
01030020004000089000013000074000002000000000000000000000000000000000000000000000000000000000000000000DEM       United States Senator                                   KIRKPATRICK, ANN                      204-Chloride                                           01 
01030020005000054000035000015000004000000000000000000000000000000000000000000000000000000000000000000DEM       United States Senator                                   KIRKPATRICK, ANN                      205-North Canyon                                       01 
01030020006000018000007000011000000000000000000000000000000000000000000000000000000000000000000000000DEM       United States Senator                                   KIRKPATRICK, ANN                      206-Oatman                                             01 
01030020007000305000073000220000012000000000000000000000000000000000000000000000000000000000000000000DEM       United States Senator                                   KIRKPATRICK, ANN                      207-Desert Hills                                       01 
01030020008000154000037000116000001000000000000000000000000000000000000000000000000000000000000000000DEM       United States Senator                                   KIRKPATRICK, ANN                      208-Meadview                                           01 
01030020009000224000077000139000008000000000000000000000000000000000000000000000000000000000000000000DEM       United States Senator                                   KIRKPATRICK, ANN                      209-Dolan Springs                                      01 
01030020010000978000307000637000034000000000000000000000000000000000000000000000000000000000000000000DEM       United States Senator                                   KIRKPATRICK, ANN                      210-Golden Valley                                      01 
01030020011003720000942002628000150000000000000000000000000000000000000000000000000000000000000000000DEM       United States Senator                                   KIRKPATRICK, ANN                      211-Bullhead City                                      01 
01030020012002024000679001256000089000000000000000000000000000000000000000000000000000000000000000000DEM       United States Senator                                   KIRKPATRICK, ANN                      212-Mohave Valley                                      01 
01030020013000273000106000163000004000000000000000000000000000000000000000000000000000000000000000000DEM       United States Senator                                   KIRKPATRICK, ANN                      213-Hackberry                                          01 
01030020014000021000004000017000000000000000000000000000000000000000000000000000000000000000000000000DEM       United States Senator                                   KIRKPATRICK, ANN                      214-Truxton                                            01 
01030020015000909000266000591000052000000000000000000000000000000000000000000000000000000000000000000DEM       United States Senator                                   KIRKPATRICK, ANN                      215-Kingman Central                                    01 
01030020016001032000294000679000059000000000000000000000000000000000000000000000000000000000000000000DEM       United States Senator                                   KIRKPATRICK, ANN                      216-Kingman North                                      01 
01030020017001365000402000919000044000000000000000000000000000000000000000000000000000000000000000000DEM       United States Senator                                   KIRKPATRICK, ANN                      217-Kingman South                                      01 
01030020018001455000409000982000064000000000000000000000000000000000000000000000000000000000000000000DEM       United States Senator                                   KIRKPATRICK, ANN                      218-Kingman East                                       01 
01030020019001464000347001063000054000000000000000000000000000000000000000000000000000000000000000000DEM       United States Senator                                   KIRKPATRICK, ANN                      219-Lake Havasu North                                  01 
01030020020004128000977002998000153000000000000000000000000000000000000000000000000000000000000000000DEM       United States Senator                                   KIRKPATRICK, ANN                      220-Lake Havasu South                                  01 
01030020021000276000150000109000017000000000000000000000000000000000000000000000000000000000000000000DEM       United States Senator                                   KIRKPATRICK, ANN                      221-Littlefield                                        01 
01030020022000228000086000137000005000000000000000000000000000000000000000000000000000000000000000000DEM       United States Senator                                   KIRKPATRICK, ANN                      222-Golden Shores                                      01 
01030020023000026000017000008000001000000000000000000000000000000000000000000000000000000000000000000DEM       United States Senator                                   KIRKPATRICK, ANN                      223-Moccasin                                           01 
01030020024000152000088000041000023000000000000000000000000000000000000000000000000000000000000000000DEM       United States Senator                                   KIRKPATRICK, ANN                      224-Peach Springs                                      01 
01030030001000013000008000005000000000000000000000000000000000000000000000000000000000000000000000000GRN       United States Senator                                   SWING, GARY                           201-Wikieup                                            01 
01030030002000010000005000003000002000000000000000000000000000000000000000000000000000000000000000000GRN       United States Senator                                   SWING, GARY                           202-White Hills                                        01 
01030030003000061000016000042000003000000000000000000000000000000000000000000000000000000000000000000GRN       United States Senator                                   SWING, GARY                           203-Yucca                                              01 
01030030004000045000011000031000003000000000000000000000000000000000000000000000000000000000000000000GRN       United States Senator                                   SWING, GARY                           204-Chloride                                           01 
01030030005000090000056000026000008000000000000000000000000000000000000000000000000000000000000000000GRN       United States Senator                                   SWING, GARY                           205-North Canyon                                       01 
01030030006000012000008000004000000000000000000000000000000000000000000000000000000000000000000000000GRN       United States Senator                                   SWING, GARY                           206-Oatman                                             01 
01030030007000094000030000057000007000000000000000000000000000000000000000000000000000000000000000000GRN       United States Senator                                   SWING, GARY                           207-Desert Hills                                       01 
01030030008000047000011000035000001000000000000000000000000000000000000000000000000000000000000000000GRN       United States Senator                                   SWING, GARY                           208-Meadview                                           01 
01030030009000080000035000041000004000000000000000000000000000000000000000000000000000000000000000000GRN       United States Senator                                   SWING, GARY                           209-Dolan Springs                                      01 
01030030010000467000164000281000022000000000000000000000000000000000000000000000000000000000000000000GRN       United States Senator                                   SWING, GARY                           210-Golden Valley                                      01 
01030030011001137000302000776000059000000000000000000000000000000000000000000000000000000000000000000GRN       United States Senator                                   SWING, GARY                           211-Bullhead City                                      01 
01030030012000787000267000480000040000000000000000000000000000000000000000000000000000000000000000000GRN       United States Senator                                   SWING, GARY                           212-Mohave Valley                                      01 
01030030013000136000052000076000008000000000000000000000000000000000000000000000000000000000000000000GRN       United States Senator                                   SWING, GARY                           213-Hackberry                                          01 
01030030014000011000001000010000000000000000000000000000000000000000000000000000000000000000000000000GRN       United States Senator                                   SWING, GARY                           214-Truxton                                            01 
01030030015000305000122000161000022000000000000000000000000000000000000000000000000000000000000000000GRN       United States Senator                                   SWING, GARY                           215-Kingman Central                                    01 
01030030016000431000146000259000026000000000000000000000000000000000000000000000000000000000000000000GRN       United States Senator                                   SWING, GARY                           216-Kingman North                                      01 
01030030017000475000167000289000019000000000000000000000000000000000000000000000000000000000000000000GRN       United States Senator                                   SWING, GARY                           217-Kingman South                                      01 
01030030018000584000186000368000030000000000000000000000000000000000000000000000000000000000000000000GRN       United States Senator                                   SWING, GARY                           218-Kingman East                                       01 
01030030019000440000123000291000026000000000000000000000000000000000000000000000000000000000000000000GRN       United States Senator                                   SWING, GARY                           219-Lake Havasu North                                  01 
01030030020001237000321000867000049000000000000000000000000000000000000000000000000000000000000000000GRN       United States Senator                                   SWING, GARY                           220-Lake Havasu South                                  01 
01030030021000069000034000030000005000000000000000000000000000000000000000000000000000000000000000000GRN       United States Senator                                   SWING, GARY                           221-Littlefield                                        01 
01030030022000071000033000034000004000000000000000000000000000000000000000000000000000000000000000000GRN       United States Senator                                   SWING, GARY                           222-Golden Shores                                      01 
01030030023000005000003000002000000000000000000000000000000000000000000000000000000000000000000000000GRN       United States Senator                                   SWING, GARY                           223-Moccasin                                           01 
01030030024000008000004000003000001000000000000000000000000000000000000000000000000000000000000000000GRN       United States Senator                                   SWING, GARY                           224-Peach Springs                                      01 
01030040001000003000002000001000000000000000000000000000000000000000000000000000000000000000000000000NON       United States Senator                                   WRITE-IN                              201-Wikieup                                            01 
01030040002000004000000000004000000000000000000000000000000000000000000000000000000000000000000000000NON       United States Senator                                   WRITE-IN                              202-White Hills                                        01 
01030040003000014000001000013000000000000000000000000000000000000000000000000000000000000000000000000NON       United States Senator                                   WRITE-IN                              203-Yucca                                              01 
01030040004000009000002000007000000000000000000000000000000000000000000000000000000000000000000000000NON       United States Senator                                   WRITE-IN                              204-Chloride                                           01 
01030040005000009000005000004000000000000000000000000000000000000000000000000000000000000000000000000NON       United States Senator                                   WRITE-IN                              205-North Canyon                                       01 
01030040006000002000001000001000000000000000000000000000000000000000000000000000000000000000000000000NON       United States Senator                                   WRITE-IN                              206-Oatman                                             01 
01030040007000018000007000010000001000000000000000000000000000000000000000000000000000000000000000000NON       United States Senator                                   WRITE-IN                              207-Desert Hills                                       01 
01030040008000011000003000008000000000000000000000000000000000000000000000000000000000000000000000000NON       United States Senator                                   WRITE-IN                              208-Meadview                                           01 
01030040009000010000001000009000000000000000000000000000000000000000000000000000000000000000000000000NON       United States Senator                                   WRITE-IN                              209-Dolan Springs                                      01 
01030040010000087000025000059000003000000000000000000000000000000000000000000000000000000000000000000NON       United States Senator                                   WRITE-IN                              210-Golden Valley                                      01 
01030040011000183000043000136000004000000000000000000000000000000000000000000000000000000000000000000NON       United States Senator                                   WRITE-IN                              211-Bullhead City                                      01 
01030040012000102000024000075000003000000000000000000000000000000000000000000000000000000000000000000NON       United States Senator                                   WRITE-IN                              212-Mohave Valley                                      01 
01030040013000019000006000013000000000000000000000000000000000000000000000000000000000000000000000000NON       United States Senator                                   WRITE-IN                              213-Hackberry                                          01 
01030040014000010000000000010000000000000000000000000000000000000000000000000000000000000000000000000NON       United States Senator                                   WRITE-IN                              214-Truxton                                            01 
01030040015000033000011000022000000000000000000000000000000000000000000000000000000000000000000000000NON       United States Senator                                   WRITE-IN                              215-Kingman Central                                    01 
01030040016000078000032000044000002000000000000000000000000000000000000000000000000000000000000000000NON       United States Senator                                   WRITE-IN                              216-Kingman North                                      01 
01030040017000099000025000073000001000000000000000000000000000000000000000000000000000000000000000000NON       United States Senator                                   WRITE-IN                              217-Kingman South                                      01 
01030040018000122000023000098000001000000000000000000000000000000000000000000000000000000000000000000NON       United States Senator                                   WRITE-IN                              218-Kingman East                                       01 
01030040019000125000029000093000003000000000000000000000000000000000000000000000000000000000000000000NON       United States Senator                                   WRITE-IN                              219-Lake Havasu North                                  01 
01030040020000299000064000228000007000000000000000000000000000000000000000000000000000000000000000000NON       United States Senator                                   WRITE-IN                              220-Lake Havasu South                                  01 
01030040021000011000003000006000002000000000000000000000000000000000000000000000000000000000000000000NON       United States Senator                                   WRITE-IN                              221-Littlefield                                        01 
01030040022000010000003000007000000000000000000000000000000000000000000000000000000000000000000000000NON       United States Senator                                   WRITE-IN                              222-Golden Shores                                      01 
01030040023000000000000000000000000000000000000000000000000000000000000000000000000000000000000000000NON       United States Senator                                   WRITE-IN                              223-Moccasin                                           01 
01030040024000000000000000000000000000000000000000000000000000000000000000000000000000000000000000000NON       United States Senator                                   WRITE-IN                              224-Peach Springs                                      01 
01030050001000001000000000001000000000000000000000000000000000000000000000000000000000000000000000000          United States Senator                                   OVER VOTES                            201-Wikieup                                            01 
01030050002000001000000000001000000000000000000000000000000000000000000000000000000000000000000000000          United States Senator                                   OVER VOTES                            202-White Hills                                        01 
01030050003000000000000000000000000000000000000000000000000000000000000000000000000000000000000000000          United States Senator                                   OVER VOTES                            203-Yucca                                              01 
01030050004000002000000000002000000000000000000000000000000000000000000000000000000000000000000000000          United States Senator                                   OVER VOTES                            204-Chloride                                           01 
01030050005000001000000000000000001000000000000000000000000000000000000000000000000000000000000000000          United States Senator                                   OVER VOTES                            205-North Canyon                                       01 
01030050006000000000000000000000000000000000000000000000000000000000000000000000000000000000000000000          United States Senator                                   OVER VOTES                            206-Oatman                                             01 
01030050007000003000002000000000001000000000000000000000000000000000000000000000000000000000000000000          United States Senator                                   OVER VOTES                            207-Desert Hills                                       01 
01030050008000000000000000000000000000000000000000000000000000000000000000000000000000000000000000000          United States Senator                                   OVER VOTES                            208-Meadview                                           01 
01030050009000000000000000000000000000000000000000000000000000000000000000000000000000000000000000000          United States Senator                                   OVER VOTES                            209-Dolan Springs                                      01 
01030050010000014000001000011000002000000000000000000000000000000000000000000000000000000000000000000          United States Senator                                   OVER VOTES                            210-Golden Valley                                      01 
01030050011000035000009000026000000000000000000000000000000000000000000000000000000000000000000000000          United States Senator                                   OVER VOTES                            211-Bullhead City                                      01 
01030050012000019000006000013000000000000000000000000000000000000000000000000000000000000000000000000          United States Senator                                   OVER VOTES                            212-Mohave Valley                                      01 
01030050013000002000000000002000000000000000000000000000000000000000000000000000000000000000000000000          United States Senator                                   OVER VOTES                            213-Hackberry                                          01 
01030050014000001000000000001000000000000000000000000000000000000000000000000000000000000000000000000          United States Senator                                   OVER VOTES                            214-Truxton                                            01 
01030050015000004000001000003000000000000000000000000000000000000000000000000000000000000000000000000          United States Senator                                   OVER VOTES                            215-Kingman Central                                    01 
01030050016000008000002000005000001000000000000000000000000000000000000000000000000000000000000000000          United States Senator                                   OVER VOTES                            216-Kingman North                                      01 
01030050017000006000000000006000000000000000000000000000000000000000000000000000000000000000000000000          United States Senator                                   OVER VOTES                            217-Kingman South                                      01 
01030050018000009000003000006000000000000000000000000000000000000000000000000000000000000000000000000          United States Senator                                   OVER VOTES                            218-Kingman East                                       01 
01030050019000009000003000006000000000000000000000000000000000000000000000000000000000000000000000000          United States Senator                                   OVER VOTES                            219-Lake Havasu North                                  01 
01030050020000018000001000016000001000000000000000000000000000000000000000000000000000000000000000000          United States Senator                                   OVER VOTES                            220-Lake Havasu South                                  01 
01030050021000002000001000001000000000000000000000000000000000000000000000000000000000000000000000000          United States Senator                                   OVER VOTES                            221-Littlefield                                        01 
01030050022000000000000000000000000000000000000000000000000000000000000000000000000000000000000000000          United States Senator                                   OVER VOTES                            222-Golden Shores                                      01 
01030050023000000000000000000000000000000000000000000000000000000000000000000000000000000000000000000          United States Senator                                   OVER VOTES                            223-Moccasin                                           01 
01030050024000000000000000000000000000000000000000000000000000000000000000000000000000000000000000000          United States Senator                                   OVER VOTES                            224-Peach Springs                                      01 
01030060001000013000005000008000000000000000000000000000000000000000000000000000000000000000000000000          United States Senator                                   UNDER VOTES                           201-Wikieup                                            01 
01030060002000013000004000009000000000000000000000000000000000000000000000000000000000000000000000000          United States Senator                                   UNDER VOTES                           202-White Hills                                        01 
01030060003000018000010000007000001000000000000000000000000000000000000000000000000000000000000000000          United States Senator                                   UNDER VOTES                           203-Yucca                                              01 
01030060004000020000006000013000001000000000000000000000000000000000000000000000000000000000000000000          United States Senator                                   UNDER VOTES                           204-Chloride                                           01 
01030060005000068000035000029000004000000000000000000000000000000000000000000000000000000000000000000          United States Senator                                   UNDER VOTES                           205-North Canyon                                       01 
01030060006000001000000000001000000000000000000000000000000000000000000000000000000000000000000000000          United States Senator                                   UNDER VOTES                           206-Oatman                                             01 
01030060007000052000023000026000003000000000000000000000000000000000000000000000000000000000000000000          United States Senator                                   UNDER VOTES                           207-Desert Hills                                       01 
01030060008000025000006000017000002000000000000000000000000000000000000000000000000000000000000000000          United States Senator                                   UNDER VOTES                           208-Meadview                                           01 
01030060009000025000007000017000001000000000000000000000000000000000000000000000000000000000000000000          United States Senator                                   UNDER VOTES                           209-Dolan Springs                                      01 
01030060010000186000062000112000012000000000000000000000000000000000000000000000000000000000000000000          United States Senator                                   UNDER VOTES                           210-Golden Valley                                      01 
01030060011000620000143000443000034000000000000000000000000000000000000000000000000000000000000000000          United States Senator                                   UNDER VOTES                           211-Bullhead City                                      01 
01030060012000368000121000228000019000000000000000000000000000000000000000000000000000000000000000000          United States Senator                                   UNDER VOTES                           212-Mohave Valley                                      01 
01030060013000066000020000044000002000000000000000000000000000000000000000000000000000000000000000000          United States Senator                                   UNDER VOTES                           213-Hackberry                                          01 
01030060014000001000000000001000000000000000000000000000000000000000000000000000000000000000000000000          United States Senator                                   UNDER VOTES                           214-Truxton                                            01 
01030060015000165000054000095000016000000000000000000000000000000000000000000000000000000000000000000          United States Senator                                   UNDER VOTES                           215-Kingman Central                                    01 
01030060016000182000061000113000008000000000000000000000000000000000000000000000000000000000000000000          United States Senator                                   UNDER VOTES                           216-Kingman North                                      01 
01030060017000258000074000173000011000000000000000000000000000000000000000000000000000000000000000000          United States Senator                                   UNDER VOTES                           217-Kingman South                                      01 
