00010010001012200000000000000000000000000000000000000000000000000000000000000000000000000000000000000          REGISTERED VOTERS - TOTAL                               REGISTERED VOTERS - TOTAL             01 RED BUTTE                                           00 
00010010002001547000000000000000000000000000000000000000000000000000000000000000000000000000000000000          REGISTERED VOTERS - TOTAL                               REGISTERED VOTERS - TOTAL             02 PAINTED DESERT                                      00 
00010010003000242000000000000000000000000000000000000000000000000000000000000000000000000000000000000          REGISTERED VOTERS - TOTAL                               REGISTERED VOTERS - TOTAL             03 HUBBELL                                             00 
00010010004008803000000000000000000000000000000000000000000000000000000000000000000000000000000000000          REGISTERED VOTERS - TOTAL                               REGISTERED VOTERS - TOTAL             04 BLACK BUTTES                                        00 
00010010005001974000000000000000000000000000000000000000000000000000000000000000000000000000000000000          REGISTERED VOTERS - TOTAL                               REGISTERED VOTERS - TOTAL             05 CEDAR VALLEY                                        00 
00010010006000801000000000000000000000000000000000000000000000000000000000000000000000000000000000000          REGISTERED VOTERS - TOTAL                               REGISTERED VOTERS - TOTAL             06 STONE BUTTE                                         00 
00010010007007426000000000000000000000000000000000000000000000000000000000000000000000000000000000000          REGISTERED VOTERS - TOTAL                               REGISTERED VOTERS - TOTAL             07 PIONEER                                             00 
00010010008003647000000000000000000000000000000000000000000000000000000000000000000000000000000000000          REGISTERED VOTERS - TOTAL                               REGISTERED VOTERS - TOTAL             08 ANTELOPE                                            00 
00010010009001519000000000000000000000000000000000000000000000000000000000000000000000000000000000000          REGISTERED VOTERS - TOTAL                               REGISTERED VOTERS - TOTAL             09 JUNIPER                                             00 
00010010010000956000000000000000000000000000000000000000000000000000000000000000000000000000000000000          REGISTERED VOTERS - TOTAL                               REGISTERED VOTERS - TOTAL             10 BISON                                               00 
00010010011002760000000000000000000000000000000000000000000000000000000000000000000000000000000000000          REGISTERED VOTERS - TOTAL                               REGISTERED VOTERS - TOTAL             11 MOGOLLON                                            00 
00010010012001232000000000000000000000000000000000000000000000000000000000000000000000000000000000000          REGISTERED VOTERS - TOTAL                               REGISTERED VOTERS - TOTAL             12 WOODLAND                                            00 
00010010013008516000000000000000000000000000000000000000000000000000000000000000000000000000000000000          REGISTERED VOTERS - TOTAL                               REGISTERED VOTERS - TOTAL             13 SITGREAVES                                          00 
00010010014012320000000000000000000000000000000000000000000000000000000000000000000000000000000000000          REGISTERED VOTERS - TOTAL                               REGISTERED VOTERS - TOTAL             14 SUNRISE                                             00 
00020010001006026003871001918000206000031000000000000000000000000000000000000000000000000000000000000          BALLOTS CAST - TOTAL                                    BALLOTS CAST - TOTAL                  01 RED BUTTE                                           00 
00020010002000895000602000252000037000004000000000000000000000000000000000000000000000000000000000000          BALLOTS CAST - TOTAL                                    BALLOTS CAST - TOTAL                  02 PAINTED DESERT                                      00 
00020010003000176000065000088000022000001000000000000000000000000000000000000000000000000000000000000          BALLOTS CAST - TOTAL                                    BALLOTS CAST - TOTAL                  03 HUBBELL                                             00 
00020010004005119002483002216000335000085000000000000000000000000000000000000000000000000000000000000          BALLOTS CAST - TOTAL                                    BALLOTS CAST - TOTAL                  04 BLACK BUTTES                                        00 
00020010005001144000758000322000040000024000000000000000000000000000000000000000000000000000000000000          BALLOTS CAST - TOTAL                                    BALLOTS CAST - TOTAL                  05 CEDAR VALLEY                                        00 
00020010006000402000315000062000015000010000000000000000000000000000000000000000000000000000000000000          BALLOTS CAST - TOTAL                                    BALLOTS CAST - TOTAL                  06 STONE BUTTE                                         00 
00020010007005615002319002584000658000054000000000000000000000000000000000000000000000000000000000000          BALLOTS CAST - TOTAL                                    BALLOTS CAST - TOTAL                  07 PIONEER                                             00 
00020010008002559001150001170000208000031000000000000000000000000000000000000000000000000000000000000          BALLOTS CAST - TOTAL                                    BALLOTS CAST - TOTAL                  08 ANTELOPE                                            00 
00020010009001121000356000703000057000005000000000000000000000000000000000000000000000000000000000000          BALLOTS CAST - TOTAL                                    BALLOTS CAST - TOTAL                  09 JUNIPER                                             00 
00020010010000766000313000367000084000002000000000000000000000000000000000000000000000000000000000000          BALLOTS CAST - TOTAL                                    BALLOTS CAST - TOTAL                  10 BISON                                               00 
00020010011002183000567001409000202000005000000000000000000000000000000000000000000000000000000000000          BALLOTS CAST - TOTAL                                    BALLOTS CAST - TOTAL                  11 MOGOLLON                                            00 
00020010012000901000293000510000091000007000000000000000000000000000000000000000000000000000000000000          BALLOTS CAST - TOTAL                                    BALLOTS CAST - TOTAL                  12 WOODLAND                                            00 
00020010013006539001815004171000530000023000000000000000000000000000000000000000000000000000000000000          BALLOTS CAST - TOTAL                                    BALLOTS CAST - TOTAL                  13 SITGREAVES                                          00 
00020010014007842003367003822000554000099000000000000000000000000000000000000000000000000000000000000          BALLOTS CAST - TOTAL                                    BALLOTS CAST - TOTAL                  14 SUNRISE                                             00 
00030010001000001000000000001000000000000000000000000000000000000000000000000000000000000000000000000          BALLOTS CAST - BLANK                                    BALLOTS CAST - BLANK                  01 RED BUTTE                                           00 
00030010002000001000000000001000000000000000000000000000000000000000000000000000000000000000000000000          BALLOTS CAST - BLANK                                    BALLOTS CAST - BLANK                  02 PAINTED DESERT                                      00 
00030010003000001000000000001000000000000000000000000000000000000000000000000000000000000000000000000          BALLOTS CAST - BLANK                                    BALLOTS CAST - BLANK                  03 HUBBELL                                             00 
00030010004000000000000000000000000000000000000000000000000000000000000000000000000000000000000000000          BALLOTS CAST - BLANK                                    BALLOTS CAST - BLANK                  04 BLACK BUTTES                                        00 
00030010005000001000001000000000000000000000000000000000000000000000000000000000000000000000000000000          BALLOTS CAST - BLANK                                    BALLOTS CAST - BLANK                  05 CEDAR VALLEY                                        00 
00030010006000000000000000000000000000000000000000000000000000000000000000000000000000000000000000000          BALLOTS CAST - BLANK                                    BALLOTS CAST - BLANK                  06 STONE BUTTE                                         00 
00030010007000000000000000000000000000000000000000000000000000000000000000000000000000000000000000000          BALLOTS CAST - BLANK                                    BALLOTS CAST - BLANK                  07 PIONEER                                             00 
00030010008000000000000000000000000000000000000000000000000000000000000000000000000000000000000000000          BALLOTS CAST - BLANK                                    BALLOTS CAST - BLANK                  08 ANTELOPE                                            00 
00030010009000000000000000000000000000000000000000000000000000000000000000000000000000000000000000000          BALLOTS CAST - BLANK                                    BALLOTS CAST - BLANK                  09 JUNIPER                                             00 
00030010010000000000000000000000000000000000000000000000000000000000000000000000000000000000000000000          BALLOTS CAST - BLANK                                    BALLOTS CAST - BLANK                  10 BISON                                               00 
00030010011000000000000000000000000000000000000000000000000000000000000000000000000000000000000000000          BALLOTS CAST - BLANK                                    BALLOTS CAST - BLANK                  11 MOGOLLON                                            00 
00030010012000000000000000000000000000000000000000000000000000000000000000000000000000000000000000000          BALLOTS CAST - BLANK                                    BALLOTS CAST - BLANK                  12 WOODLAND                                            00 
00030010013000002000000000002000000000000000000000000000000000000000000000000000000000000000000000000          BALLOTS CAST - BLANK                                    BALLOTS CAST - BLANK                  13 SITGREAVES                                          00 
00030010014000002000002000000000000000000000000000000000000000000000000000000000000000000000000000000          BALLOTS CAST - BLANK                                    BALLOTS CAST - BLANK                  14 SUNRISE                                             00 
01020010001000595000384000185000022000004000000000000000000000000000000000000000000000000000000000000REP       Presidential Electors                                   TRUMP, PENCE                          01 RED BUTTE                                           01 
01020010002000158000079000064000014000001000000000000000000000000000000000000000000000000000000000000REP       Presidential Electors                                   TRUMP, PENCE                          02 PAINTED DESERT                                      01 
01020010003000113000046000049000018000000000000000000000000000000000000000000000000000000000000000000REP       Presidential Electors                                   TRUMP, PENCE                          03 HUBBELL                                             01 
01020010004001323000559000610000132000022000000000000000000000000000000000000000000000000000000000000REP       Presidential Electors                                   TRUMP, PENCE                          04 BLACK BUTTES                                        01 
01020010005000106000077000026000002000001000000000000000000000000000000000000000000000000000000000000REP       Presidential Electors                                   TRUMP, PENCE                          05 CEDAR VALLEY                                        01 
01020010006000026000017000009000000000000000000000000000000000000000000000000000000000000000000000000REP       Presidential Electors                                   TRUMP, PENCE                          06 STONE BUTTE                                         01 
01020010007004603001969002035000552000047000000000000000000000000000000000000000000000000000000000000REP       Presidential Electors                                   TRUMP, PENCE                          07 PIONEER                                             01 
01020010008001506000717000655000117000017000000000000000000000000000000000000000000000000000000000000REP       Presidential Electors                                   TRUMP, PENCE                          08 ANTELOPE                                            01 
01020010009000852000290000519000038000005000000000000000000000000000000000000000000000000000000000000REP       Presidential Electors                                   TRUMP, PENCE                          09 JUNIPER                                             01 
01020010010000599000263000265000069000002000000000000000000000000000000000000000000000000000000000000REP       Presidential Electors                                   TRUMP, PENCE                          10 BISON                                               01 
01020010011001615000463001001000148000003000000000000000000000000000000000000000000000000000000000000REP       Presidential Electors                                   TRUMP, PENCE                          11 MOGOLLON                                            01 
01020010012000662000230000355000073000004000000000000000000000000000000000000000000000000000000000000REP       Presidential Electors                                   TRUMP, PENCE                          12 WOODLAND                                            01 
01020010013004809001465002925000401000018000000000000000000000000000000000000000000000000000000000000REP       Presidential Electors                                   TRUMP, PENCE                          13 SITGREAVES                                          01 
01020010014003610001063002196000329000022000000000000000000000000000000000000000000000000000000000000REP       Presidential Electors                                   TRUMP, PENCE                          14 SUNRISE                                             01 
01020020001004455002832001449000151000023000000000000000000000000000000000000000000000000000000000000DEM       Presidential Electors                                   CLINTON, KAINE                        01 RED BUTTE                                           01 
01020020002000621000440000157000021000003000000000000000000000000000000000000000000000000000000000000DEM       Presidential Electors                                   CLINTON, KAINE                        02 PAINTED DESERT                                      01 
01020020003000046000012000031000003000000000000000000000000000000000000000000000000000000000000000000DEM       Presidential Electors                                   CLINTON, KAINE                        03 HUBBELL                                             01 
01020020004003184001592001393000145000054000000000000000000000000000000000000000000000000000000000000DEM       Presidential Electors                                   CLINTON, KAINE                        04 BLACK BUTTES                                        01 
01020020005000895000584000265000027000019000000000000000000000000000000000000000000000000000000000000DEM       Presidential Electors                                   CLINTON, KAINE                        05 CEDAR VALLEY                                        01 
01020020006000303000237000045000014000007000000000000000000000000000000000000000000000000000000000000DEM       Presidential Electors                                   CLINTON, KAINE                        06 STONE BUTTE                                         01 
01020020007000517000168000313000035000001000000000000000000000000000000000000000000000000000000000000DEM       Presidential Electors                                   CLINTON, KAINE                        07 PIONEER                                             01 
01020020008000706000280000369000050000007000000000000000000000000000000000000000000000000000000000000DEM       Presidential Electors                                   CLINTON, KAINE                        08 ANTELOPE                                            01 
01020020009000198000041000144000013000000000000000000000000000000000000000000000000000000000000000000DEM       Presidential Electors                                   CLINTON, KAINE                        09 JUNIPER                                             01 
01020020010000107000026000071000010000000000000000000000000000000000000000000000000000000000000000000DEM       Presidential Electors                                   CLINTON, KAINE                        10 BISON                                               01 
01020020011000415000067000317000030000001000000000000000000000000000000000000000000000000000000000000DEM       Presidential Electors                                   CLINTON, KAINE                        11 MOGOLLON                                            01 
01020020012000175000039000124000010000002000000000000000000000000000000000000000000000000000000000000DEM       Presidential Electors                                   CLINTON, KAINE                        12 WOODLAND                                            01 
01020020013001234000227000939000064000004000000000000000000000000000000000000000000000000000000000000DEM       Presidential Electors                                   CLINTON, KAINE                        13 SITGREAVES                                          01 
01020020014003603002020001365000153000065000000000000000000000000000000000000000000000000000000000000DEM       Presidential Electors                                   CLINTON, KAINE                        14 SUNRISE                                             01 
01020030001000273000173000091000008000001000000000000000000000000000000000000000000000000000000000000LBT       Presidential Electors                                   JOHNSON, WELD                         01 RED BUTTE                                           01 
01020030002000036000025000011000000000000000000000000000000000000000000000000000000000000000000000000LBT       Presidential Electors                                   JOHNSON, WELD                         02 PAINTED DESERT                                      01 
01020030003000006000004000002000000000000000000000000000000000000000000000000000000000000000000000000LBT       Presidential Electors                                   JOHNSON, WELD                         03 HUBBELL                                             01 
01020030004000172000095000057000017000003000000000000000000000000000000000000000000000000000000000000LBT       Presidential Electors                                   JOHNSON, WELD                         04 BLACK BUTTES                                        01 
01020030005000025000018000005000002000000000000000000000000000000000000000000000000000000000000000000LBT       Presidential Electors                                   JOHNSON, WELD                         05 CEDAR VALLEY                                        01 
01020030006000009000007000001000000000001000000000000000000000000000000000000000000000000000000000000LBT       Presidential Electors                                   JOHNSON, WELD                         06 STONE BUTTE                                         01 
01020030007000169000070000078000017000004000000000000000000000000000000000000000000000000000000000000LBT       Presidential Electors                                   JOHNSON, WELD                         07 PIONEER                                             01 
01020030008000118000052000050000012000004000000000000000000000000000000000000000000000000000000000000LBT       Presidential Electors                                   JOHNSON, WELD                         08 ANTELOPE                                            01 
01020030009000031000011000017000003000000000000000000000000000000000000000000000000000000000000000000LBT       Presidential Electors                                   JOHNSON, WELD                         09 JUNIPER                                             01 
01020030010000019000006000011000002000000000000000000000000000000000000000000000000000000000000000000LBT       Presidential Electors                                   JOHNSON, WELD                         10 BISON                                               01 
01020030011000070000018000045000006000001000000000000000000000000000000000000000000000000000000000000LBT       Presidential Electors                                   JOHNSON, WELD                         11 MOGOLLON                                            01 
01020030012000031000016000009000006000000000000000000000000000000000000000000000000000000000000000000LBT       Presidential Electors                                   JOHNSON, WELD                         12 WOODLAND                                            01 
01020030013000219000057000137000025000000000000000000000000000000000000000000000000000000000000000000LBT       Presidential Electors                                   JOHNSON, WELD                         13 SITGREAVES                                          01 
01020030014000232000089000107000034000002000000000000000000000000000000000000000000000000000000000000LBT       Presidential Electors                                   JOHNSON, WELD                         14 SUNRISE                                             01 
01020040001000189000134000051000004000000000000000000000000000000000000000000000000000000000000000000GRN       Presidential Electors                                   STEIN, BARAKA                         01 RED BUTTE                                           01 
01020040002000023000015000006000002000000000000000000000000000000000000000000000000000000000000000000GRN       Presidential Electors                                   STEIN, BARAKA                         02 PAINTED DESERT                                      01 
01020040003000002000000000001000000000001000000000000000000000000000000000000000000000000000000000000GRN       Presidential Electors                                   STEIN, BARAKA                         03 HUBBELL                                             01 
01020040004000132000075000036000018000003000000000000000000000000000000000000000000000000000000000000GRN       Presidential Electors                                   STEIN, BARAKA                         04 BLACK BUTTES                                        01 
01020040005000022000016000003000003000000000000000000000000000000000000000000000000000000000000000000GRN       Presidential Electors                                   STEIN, BARAKA                         05 CEDAR VALLEY                                        01 
01020040006000023000017000005000000000001000000000000000000000000000000000000000000000000000000000000GRN       Presidential Electors                                   STEIN, BARAKA                         06 STONE BUTTE                                         01 
01020040007000052000019000030000003000000000000000000000000000000000000000000000000000000000000000000GRN       Presidential Electors                                   STEIN, BARAKA                         07 PIONEER                                             01 
01020040008000044000017000023000003000001000000000000000000000000000000000000000000000000000000000000GRN       Presidential Electors                                   STEIN, BARAKA                         08 ANTELOPE                                            01 
01020040009000018000005000011000002000000000000000000000000000000000000000000000000000000000000000000GRN       Presidential Electors                                   STEIN, BARAKA                         09 JUNIPER                                             01 
01020040010000004000001000003000000000000000000000000000000000000000000000000000000000000000000000000GRN       Presidential Electors                                   STEIN, BARAKA                         10 BISON                                               01 
01020040011000018000003000011000004000000000000000000000000000000000000000000000000000000000000000000GRN       Presidential Electors                                   STEIN, BARAKA                         11 MOGOLLON                                            01 
01020040012000009000002000006000000000001000000000000000000000000000000000000000000000000000000000000GRN       Presidential Electors                                   STEIN, BARAKA                         12 WOODLAND                                            01 
01020040013000060000023000031000006000000000000000000000000000000000000000000000000000000000000000000GRN       Presidential Electors                                   STEIN, BARAKA                         13 SITGREAVES                                          01 
01020040014000107000053000042000007000005000000000000000000000000000000000000000000000000000000000000GRN       Presidential Electors                                   STEIN, BARAKA                         14 SUNRISE                                             01 
01020050001000214000137000064000013000000000000000000000000000000000000000000000000000000000000000000NON       Presidential Electors                                   WRITE-IN                              01 RED BUTTE                                           01 
01020050002000010000005000005000000000000000000000000000000000000000000000000000000000000000000000000NON       Presidential Electors                                   WRITE-IN                              02 PAINTED DESERT                                      01 
01020050003000006000003000003000000000000000000000000000000000000000000000000000000000000000000000000NON       Presidential Electors                                   WRITE-IN                              03 HUBBELL                                             01 
01020050004000145000070000057000017000001000000000000000000000000000000000000000000000000000000000000NON       Presidential Electors                                   WRITE-IN                              04 BLACK BUTTES                                        01 
01020050005000033000019000007000005000002000000000000000000000000000000000000000000000000000000000000NON       Presidential Electors                                   WRITE-IN                              05 CEDAR VALLEY                                        01 
01020050006000012000010000001000001000000000000000000000000000000000000000000000000000000000000000000NON       Presidential Electors                                   WRITE-IN                              06 STONE BUTTE                                         01 
01020050007000208000068000096000042000002000000000000000000000000000000000000000000000000000000000000NON       Presidential Electors                                   WRITE-IN                              07 PIONEER                                             01 
01020050008000126000063000040000022000001000000000000000000000000000000000000000000000000000000000000NON       Presidential Electors                                   WRITE-IN                              08 ANTELOPE                                            01 
01020050009000012000004000007000001000000000000000000000000000000000000000000000000000000000000000000NON       Presidential Electors                                   WRITE-IN                              09 JUNIPER                                             01 
01020050010000032000015000014000003000000000000000000000000000000000000000000000000000000000000000000NON       Presidential Electors                                   WRITE-IN                              10 BISON                                               01 
01020050011000043000010000022000011000000000000000000000000000000000000000000000000000000000000000000NON       Presidential Electors                                   WRITE-IN                              11 MOGOLLON                                            01 
01020050012000015000004000009000002000000000000000000000000000000000000000000000000000000000000000000NON       Presidential Electors                                   WRITE-IN                              12 WOODLAND                                            01 
01020050013000151000034000091000025000001000000000000000000000000000000000000000000000000000000000000NON       Presidential Electors                                   WRITE-IN                              13 SITGREAVES                                          01 
01020050014000138000056000053000025000004000000000000000000000000000000000000000000000000000000000000NON       Presidential Electors                                   WRITE-IN                              14 SUNRISE                                             01 
01020060001000096000079000016000001000000000000000000000000000000000000000000000000000000000000000000          Presidential Electors                                   OVER VOTES                            01 RED BUTTE                                           01 
01020060002000019000016000003000000000000000000000000000000000000000000000000000000000000000000000000          Presidential Electors                                   OVER VOTES                            02 PAINTED DESERT                                      01 
01020060003000000000000000000000000000000000000000000000000000000000000000000000000000000000000000000          Presidential Electors                                   OVER VOTES                            03 HUBBELL                                             01 
01020060004000066000041000022000002000001000000000000000000000000000000000000000000000000000000000000          Presidential Electors                                   OVER VOTES                            04 BLACK BUTTES                                        01 
01020060005000032000024000008000000000000000000000000000000000000000000000000000000000000000000000000          Presidential Electors                                   OVER VOTES                            05 CEDAR VALLEY                                        01 
01020060006000010000010000000000000000000000000000000000000000000000000000000000000000000000000000000          Presidential Electors                                   OVER VOTES                            06 STONE BUTTE                                         01 
01020060007000016000009000007000000000000000000000000000000000000000000000000000000000000000000000000          Presidential Electors                                   OVER VOTES                            07 PIONEER                                             01 
01020060008000010000002000005000002000001000000000000000000000000000000000000000000000000000000000000          Presidential Electors                                   OVER VOTES                            08 ANTELOPE                                            01 
01020060009000005000003000002000000000000000000000000000000000000000000000000000000000000000000000000          Presidential Electors                                   OVER VOTES                            09 JUNIPER                                             01 
01020060010000000000000000000000000000000000000000000000000000000000000000000000000000000000000000000          Presidential Electors                                   OVER VOTES                            10 BISON                                               01 
01020060011000001000000000000000001000000000000000000000000000000000000000000000000000000000000000000          Presidential Electors                                   OVER VOTES                            11 MOGOLLON                                            01 
01020060012000003000001000002000000000000000000000000000000000000000000000000000000000000000000000000          Presidential Electors                                   OVER VOTES                            12 WOODLAND                                            01 
01020060013000009000002000007000000000000000000000000000000000000000000000000000000000000000000000000          Presidential Electors                                   OVER VOTES                            13 SITGREAVES                                          01 
01020060014000064000046000017000000000001000000000000000000000000000000000000000000000000000000000000          Presidential Electors                                   OVER VOTES                            14 SUNRISE                                             01 
01020070001000204000132000062000007000003000000000000000000000000000000000000000000000000000000000000          Presidential Electors                                   UNDER VOTES                           01 RED BUTTE                                           01 
01020070002000028000022000006000000000000000000000000000000000000000000000000000000000000000000000000          Presidential Electors                                   UNDER VOTES                           02 PAINTED DESERT                                      01 
01020070003000003000000000002000001000000000000000000000000000000000000000000000000000000000000000000          Presidential Electors                                   UNDER VOTES                           03 HUBBELL                                             01 
01020070004000097000051000041000004000001000000000000000000000000000000000000000000000000000000000000          Presidential Electors                                   UNDER VOTES                           04 BLACK BUTTES                                        01 
01020070005000031000020000008000001000002000000000000000000000000000000000000000000000000000000000000          Presidential Electors                                   UNDER VOTES                           05 CEDAR VALLEY                                        01 
01020070006000019000017000001000000000001000000000000000000000000000000000000000000000000000000000000          Presidential Electors                                   UNDER VOTES                           06 STONE BUTTE                                         01 
01020070007000050000016000025000009000000000000000000000000000000000000000000000000000000000000000000          Presidential Electors                                   UNDER VOTES                           07 PIONEER                                             01 
01020070008000049000019000028000002000000000000000000000000000000000000000000000000000000000000000000          Presidential Electors                                   UNDER VOTES                           08 ANTELOPE                                            01 
01020070009000005000002000003000000000000000000000000000000000000000000000000000000000000000000000000          Presidential Electors                                   UNDER VOTES                           09 JUNIPER                                             01 
01020070010000005000002000003000000000000000000000000000000000000000000000000000000000000000000000000          Presidential Electors                                   UNDER VOTES                           10 BISON                                               01 
01020070011000021000006000013000002000000000000000000000000000000000000000000000000000000000000000000          Presidential Electors                                   UNDER VOTES                           11 MOGOLLON                                            01 
01020070012000006000001000005000000000000000000000000000000000000000000000000000000000000000000000000          Presidential Electors                                   UNDER VOTES                           12 WOODLAND                                            01 
01020070013000057000007000041000009000000000000000000000000000000000000000000000000000000000000000000          Presidential Electors                                   UNDER VOTES                           13 SITGREAVES                                          01 
01020070014000088000040000042000006000000000000000000000000000000000000000000000000000000000000000000          Presidential Electors                                   UNDER VOTES                           14 SUNRISE                                             01 
01030010001000786000503000252000030000001000000000000000000000000000000000000000000000000000000000000REP       U.S. Senator                                            MCCAIN, JOHN                          01 RED BUTTE                                           01 
01030010002000155000084000061000010000000000000000000000000000000000000000000000000000000000000000000REP       U.S. Senator                                            MCCAIN, JOHN                          02 PAINTED DESERT                                      01 
01030010003000104000048000041000015000000000000000000000000000000000000000000000000000000000000000000REP       U.S. Senator                                            MCCAIN, JOHN                          03 HUBBELL                                             01 
01030010004001447000684000600000139000024000000000000000000000000000000000000000000000000000000000000REP       U.S. Senator                                            MCCAIN, JOHN                          04 BLACK BUTTES                                        01 
01030010005000122000091000024000005000002000000000000000000000000000000000000000000000000000000000000REP       U.S. Senator                                            MCCAIN, JOHN                          05 CEDAR VALLEY                                        01 
01030010006000021000016000005000000000000000000000000000000000000000000000000000000000000000000000000REP       U.S. Senator                                            MCCAIN, JOHN                          06 STONE BUTTE                                         01 
01030010007003821001634001678000465000044000000000000000000000000000000000000000000000000000000000000REP       U.S. Senator                                            MCCAIN, JOHN                          07 PIONEER                                             01 
01030010008001449000701000607000123000018000000000000000000000000000000000000000000000000000000000000REP       U.S. Senator                                            MCCAIN, JOHN                          08 ANTELOPE                                            01 
01030010009000660000228000400000029000003000000000000000000000000000000000000000000000000000000000000REP       U.S. Senator                                            MCCAIN, JOHN                          09 JUNIPER                                             01 
01030010010000510000225000232000051000002000000000000000000000000000000000000000000000000000000000000REP       U.S. Senator                                            MCCAIN, JOHN                          10 BISON                                               01 
01030010011001370000374000861000133000002000000000000000000000000000000000000000000000000000000000000REP       U.S. Senator                                            MCCAIN, JOHN                          11 MOGOLLON                                            01 
01030010012000576000200000315000057000004000000000000000000000000000000000000000000000000000000000000REP       U.S. Senator                                            MCCAIN, JOHN                          12 WOODLAND                                            01 
01030010013004275001312002571000380000012000000000000000000000000000000000000000000000000000000000000REP       U.S. Senator                                            MCCAIN, JOHN                          13 SITGREAVES                                          01 
01030010014003464001095002012000334000023000000000000000000000000000000000000000000000000000000000000REP       U.S. Senator                                            MCCAIN, JOHN                          14 SUNRISE                                             01 
01030020001004883003155001533000167000028000000000000000000000000000000000000000000000000000000000000DEM       U.S. Senator                                            KIRKPATRICK, ANN                      01 RED BUTTE                                           01 
01030020002000673000471000173000025000004000000000000000000000000000000000000000000000000000000000000DEM       U.S. Senator                                            KIRKPATRICK, ANN                      02 PAINTED DESERT                                      01 
01030020003000048000011000031000005000001000000000000000000000000000000000000000000000000000000000000DEM       U.S. Senator                                            KIRKPATRICK, ANN                      03 HUBBELL                                             01 
01030020004003223001622001389000158000054000000000000000000000000000000000000000000000000000000000000DEM       U.S. Senator                                            KIRKPATRICK, ANN                      04 BLACK BUTTES                                        01 
01030020005000969000630000285000033000021000000000000000000000000000000000000000000000000000000000000DEM       U.S. Senator                                            KIRKPATRICK, ANN                      05 CEDAR VALLEY                                        01 
01030020006000345000274000050000013000008000000000000000000000000000000000000000000000000000000000000DEM       U.S. Senator                                            KIRKPATRICK, ANN                      06 STONE BUTTE                                         01 
01030020007000784000305000412000063000004000000000000000000000000000000000000000000000000000000000000DEM       U.S. Senator                                            KIRKPATRICK, ANN                      07 PIONEER                                             01 
01030020008000731000291000378000053000009000000000000000000000000000000000000000000000000000000000000DEM       U.S. Senator                                            KIRKPATRICK, ANN                      08 ANTELOPE                                            01 
01030020009000234000065000154000014000001000000000000000000000000000000000000000000000000000000000000DEM       U.S. Senator                                            KIRKPATRICK, ANN                      09 JUNIPER                                             01 
01030020010000130000035000081000014000000000000000000000000000000000000000000000000000000000000000000DEM       U.S. Senator                                            KIRKPATRICK, ANN                      10 BISON                                               01 
01030020011000447000091000317000037000002000000000000000000000000000000000000000000000000000000000000DEM       U.S. Senator                                            KIRKPATRICK, ANN                      11 MOGOLLON                                            01 
01030020012000196000048000132000015000001000000000000000000000000000000000000000000000000000000000000DEM       U.S. Senator                                            KIRKPATRICK, ANN                      12 WOODLAND                                            01 
01030020013001350000273000991000080000006000000000000000000000000000000000000000000000000000000000000DEM       U.S. Senator                                            KIRKPATRICK, ANN                      13 SITGREAVES                                          01 
01030020014003632002049001365000150000068000000000000000000000000000000000000000000000000000000000000DEM       U.S. Senator                                            KIRKPATRICK, ANN                      14 SUNRISE                                             01 
01030030001000156000095000056000005000000000000000000000000000000000000000000000000000000000000000000GRN       U.S. Senator                                            SWING, GARY                           01 RED BUTTE                                           01 
01030030002000034000023000011000000000000000000000000000000000000000000000000000000000000000000000000GRN       U.S. Senator                                            SWING, GARY                           02 PAINTED DESERT                                      01 
01030030003000011000005000006000000000000000000000000000000000000000000000000000000000000000000000000GRN       U.S. Senator                                            SWING, GARY                           03 HUBBELL                                             01 
01030030004000254000104000124000020000006000000000000000000000000000000000000000000000000000000000000GRN       U.S. Senator                                            SWING, GARY                           04 BLACK BUTTES                                        01 
01030030005000020000013000005000002000000000000000000000000000000000000000000000000000000000000000000GRN       U.S. Senator                                            SWING, GARY                           05 CEDAR VALLEY                                        01 
01030030006000012000007000003000001000001000000000000000000000000000000000000000000000000000000000000GRN       U.S. Senator                                            SWING, GARY                           06 STONE BUTTE                                         01 
01030030007000592000223000289000078000002000000000000000000000000000000000000000000000000000000000000GRN       U.S. Senator                                            SWING, GARY                           07 PIONEER                                             01 
01030030008000223000093000108000019000003000000000000000000000000000000000000000000000000000000000000GRN       U.S. Senator                                            SWING, GARY                           08 ANTELOPE                                            01 
01030030009000153000045000099000008000001000000000000000000000000000000000000000000000000000000000000GRN       U.S. Senator                                            SWING, GARY                           09 JUNIPER                                             01 
01030030010000069000033000026000010000000000000000000000000000000000000000000000000000000000000000000GRN       U.S. Senator                                            SWING, GARY                           10 BISON                                               01 
01030030011000214000057000138000019000000000000000000000000000000000000000000000000000000000000000000GRN       U.S. Senator                                            SWING, GARY                           11 MOGOLLON                                            01 
01030030012000081000025000044000010000002000000000000000000000000000000000000000000000000000000000000GRN       U.S. Senator                                            SWING, GARY                           12 WOODLAND                                            01 
01030030013000493000126000326000039000002000000000000000000000000000000000000000000000000000000000000GRN       U.S. Senator                                            SWING, GARY                           13 SITGREAVES                                          01 
01030030014000415000130000239000042000004000000000000000000000000000000000000000000000000000000000000GRN       U.S. Senator                                            SWING, GARY                           14 SUNRISE                                             01 
01030040001000008000005000003000000000000000000000000000000000000000000000000000000000000000000000000NON       U.S. Senator                                            WRITE-IN                              01 RED BUTTE                                           01 
01030040002000002000002000000000000000000000000000000000000000000000000000000000000000000000000000000NON       U.S. Senator                                            WRITE-IN                              02 PAINTED DESERT                                      01 
01030040003000003000000000002000001000000000000000000000000000000000000000000000000000000000000000000NON       U.S. Senator                                            WRITE-IN                              03 HUBBELL                                             01 
01030040004000015000007000006000002000000000000000000000000000000000000000000000000000000000000000000NON       U.S. Senator                                            WRITE-IN                              04 BLACK BUTTES                                        01 
01030040005000000000000000000000000000000000000000000000000000000000000000000000000000000000000000000NON       U.S. Senator                                            WRITE-IN                              05 CEDAR VALLEY                                        01 
01030040006000001000000000000000001000000000000000000000000000000000000000000000000000000000000000000NON       U.S. Senator                                            WRITE-IN                              06 STONE BUTTE                                         01 
01030040007000080000023000040000017000000000000000000000000000000000000000000000000000000000000000000NON       U.S. Senator                                            WRITE-IN                              07 PIONEER                                             01 
01030040008000021000012000007000002000000000000000000000000000000000000000000000000000000000000000000NON       U.S. Senator                                            WRITE-IN                              08 ANTELOPE                                            01 
01030040009000012000003000008000001000000000000000000000000000000000000000000000000000000000000000000NON       U.S. Senator                                            WRITE-IN                              09 JUNIPER                                             01 
01030040010000012000004000005000003000000000000000000000000000000000000000000000000000000000000000000NON       U.S. Senator                                            WRITE-IN                              10 BISON                                               01 
01030040011000035000012000020000003000000000000000000000000000000000000000000000000000000000000000000NON       U.S. Senator                                            WRITE-IN                              11 MOGOLLON                                            01 
01030040012000007000003000002000002000000000000000000000000000000000000000000000000000000000000000000NON       U.S. Senator                                            WRITE-IN                              12 WOODLAND                                            01 
01030040013000077000023000048000006000000000000000000000000000000000000000000000000000000000000000000NON       U.S. Senator                                            WRITE-IN                              13 SITGREAVES                                          01 
01030040014000065000016000039000009000001000000000000000000000000000000000000000000000000000000000000NON       U.S. Senator                                            WRITE-IN                              14 SUNRISE                                             01 
01030050001000009000006000002000001000000000000000000000000000000000000000000000000000000000000000000          U.S. Senator                                            OVER VOTES                            01 RED BUTTE                                           01 
01030050002000001000000000001000000000000000000000000000000000000000000000000000000000000000000000000          U.S. Senator                                            OVER VOTES                            02 PAINTED DESERT                                      01 
01030050003000000000000000000000000000000000000000000000000000000000000000000000000000000000000000000          U.S. Senator                                            OVER VOTES                            03 HUBBELL                                             01 
01030050004000003000002000000000001000000000000000000000000000000000000000000000000000000000000000000          U.S. Senator                                            OVER VOTES                            04 BLACK BUTTES                                        01 
01030050005000000000000000000000000000000000000000000000000000000000000000000000000000000000000000000          U.S. Senator                                            OVER VOTES                            05 CEDAR VALLEY                                        01 
01030050006000000000000000000000000000000000000000000000000000000000000000000000000000000000000000000          U.S. Senator                                            OVER VOTES                            06 STONE BUTTE                                         01 
01030050007000001000000000001000000000000000000000000000000000000000000000000000000000000000000000000          U.S. Senator                                            OVER VOTES                            07 PIONEER                                             01 
01030050008000000000000000000000000000000000000000000000000000000000000000000000000000000000000000000          U.S. Senator                                            OVER VOTES                            08 ANTELOPE                                            01 
01030050009000001000001000000000000000000000000000000000000000000000000000000000000000000000000000000          U.S. Senator                                            OVER VOTES                            09 JUNIPER                                             01 
01030050010000000000000000000000000000000000000000000000000000000000000000000000000000000000000000000          U.S. Senator                                            OVER VOTES                            10 BISON                                               01 
01030050011000002000001000001000000000000000000000000000000000000000000000000000000000000000000000000          U.S. Senator                                            OVER VOTES                            11 MOGOLLON                                            01 
01030050012000000000000000000000000000000000000000000000000000000000000000000000000000000000000000000          U.S. Senator                                            OVER VOTES                            12 WOODLAND                                            01 
01030050013000000000000000000000000000000000000000000000000000000000000000000000000000000000000000000          U.S. Senator                                            OVER VOTES                            13 SITGREAVES                                          01 
01030050014000011000005000005000000000001000000000000000000000000000000000000000000000000000000000000          U.S. Senator                                            OVER VOTES                            14 SUNRISE                                             01 
01030060001000184000107000072000003000002000000000000000000000000000000000000000000000000000000000000          U.S. Senator                                            UNDER VOTES                           01 RED BUTTE                                           01 
01030060002000030000022000006000002000000000000000000000000000000000000000000000000000000000000000000          U.S. Senator                                            UNDER VOTES                           02 PAINTED DESERT                                      01 
01030060003000010000001000008000001000000000000000000000000000000000000000000000000000000000000000000          U.S. Senator                                            UNDER VOTES                           03 HUBBELL                                             01 
01030060004000177000064000097000015000001000000000000000000000000000000000000000000000000000000000000          U.S. Senator                                            UNDER VOTES                           04 BLACK BUTTES                                        01 
01030060005000033000024000008000000000001000000000000000000000000000000000000000000000000000000000000          U.S. Senator                                            UNDER VOTES                           05 CEDAR VALLEY                                        01 
01030060006000023000018000004000000000001000000000000000000000000000000000000000000000000000000000000          U.S. Senator                                            UNDER VOTES                           06 STONE BUTTE                                         01 
01030060007000337000134000164000035000004000000000000000000000000000000000000000000000000000000000000          U.S. Senator                                            UNDER VOTES                           07 PIONEER                                             01 
01030060008000135000053000070000011000001000000000000000000000000000000000000000000000000000000000000          U.S. Senator                                            UNDER VOTES                           08 ANTELOPE                                            01 
01030060009000061000014000042000005000000000000000000000000000000000000000000000000000000000000000000          U.S. Senator                                            UNDER VOTES                           09 JUNIPER                                             01 
01030060010000045000016000023000006000000000000000000000000000000000000000000000000000000000000000000          U.S. Senator                                            UNDER VOTES                           10 BISON                                               01 
01030060011000115000032000072000010000001000000000000000000000000000000000000000000000000000000000000          U.S. Senator                                            UNDER VOTES                           11 MOGOLLON                                            01 
01030060012000041000017000017000007000000000000000000000000000000000000000000000000000000000000000000          U.S. Senator                                            UNDER VOTES                           12 WOODLAND                                            01 
01030060013000344000081000235000025000003000000000000000000000000000000000000000000000000000000000000          U.S. Senator                                            UNDER VOTES                           13 SITGREAVES                                          01 
01030060014000255000072000162000019000002000000000000000000000000000000000000000000000000000000000000          U.S. Senator                                            UNDER VOTES                           14 SUNRISE                                             01 
01040010001000804000527000244000027000006000000000000000000000000000000000000000000000000000000000000REP       U.S. Rep in Congress Dist. 1                            BABEU, PAUL                           01 RED BUTTE                                           01 
01040010002000151000090000049000010000002000000000000000000000000000000000000000000000000000000000000REP       U.S. Rep in Congress Dist. 1                            BABEU, PAUL                           02 PAINTED DESERT                                      01 
01040010003000076000034000031000011000000000000000000000000000000000000000000000000000000000000000000REP       U.S. Rep in Congress Dist. 1                            BABEU, PAUL                           03 HUBBELL                                             01 
01040010004001248000590000525000106000027000000000000000000000000000000000000000000000000000000000000REP       U.S. Rep in Congress Dist. 1                            BABEU, PAUL                           04 BLACK BUTTES                                        01 
01040010005000126000093000029000004000000000000000000000000000000000000000000000000000000000000000000REP       U.S. Rep in Congress Dist. 1                            BABEU, PAUL                           05 CEDAR VALLEY                                        01 
01040010006000048000040000008000000000000000000000000000000000000000000000000000000000000000000000000REP       U.S. Rep in Congress Dist. 1                            BABEU, PAUL                           06 STONE BUTTE                                         01 
01040010007003567001572001514000438000043000000000000000000000000000000000000000000000000000000000000REP       U.S. Rep in Congress Dist. 1                            BABEU, PAUL                           07 PIONEER                                             01 
01040010008001182000578000487000100000017000000000000000000000000000000000000000000000000000000000000REP       U.S. Rep in Congress Dist. 1                            BABEU, PAUL                           08 ANTELOPE                                            01 
01040010009000641000209000409000020000003000000000000000000000000000000000000000000000000000000000000REP       U.S. Rep in Congress Dist. 1                            BABEU, PAUL                           09 JUNIPER                                             01 
01040010010000448000191000212000044000001000000000000000000000000000000000000000000000000000000000000REP       U.S. Rep in Congress Dist. 1                            BABEU, PAUL                           10 BISON                                               01 
01040010011001317000377000812000126000002000000000000000000000000000000000000000000000000000000000000REP       U.S. Rep in Congress Dist. 1                            BABEU, PAUL                           11 MOGOLLON                                            01 
01040010012000488000181000247000056000004000000000000000000000000000000000000000000000000000000000000REP       U.S. Rep in Congress Dist. 1                            BABEU, PAUL                           12 WOODLAND                                            01 
01040010013003743001141002271000319000012000000000000000000000000000000000000000000000000000000000000REP       U.S. Rep in Congress Dist. 1                            BABEU, PAUL                           13 SITGREAVES                                          01 
01040010014003087000982001799000291000015000000000000000000000000000000000000000000000000000000000000REP       U.S. Rep in Congress Dist. 1                            BABEU, PAUL                           14 SUNRISE                                             01 
01040020001004453002895001380000156000022000000000000000000000000000000000000000000000000000000000000DEM       U.S. Rep in Congress Dist. 1                            O'HALLERAN, TOM                       01 RED BUTTE                                           01 
01040020002000668000460000180000026000002000000000000000000000000000000000000000000000000000000000000DEM       U.S. Rep in Congress Dist. 1                            O'HALLERAN, TOM                       02 PAINTED DESERT                                      01 
01040020003000070000021000039000010000000000000000000000000000000000000000000000000000000000000000000DEM       U.S. Rep in Congress Dist. 1                            O'HALLERAN, TOM                       03 HUBBELL                                             01 
01040020004003301001613001462000177000049000000000000000000000000000000000000000000000000000000000000DEM       U.S. Rep in Congress Dist. 1                            O'HALLERAN, TOM                       04 BLACK BUTTES                                        01 
01040020005000934000607000274000034000019000000000000000000000000000000000000000000000000000000000000DEM       U.S. Rep in Congress Dist. 1                            O'HALLERAN, TOM                       05 CEDAR VALLEY                                        01 
01040020006000310000245000044000012000009000000000000000000000000000000000000000000000000000000000000DEM       U.S. Rep in Congress Dist. 1                            O'HALLERAN, TOM                       06 STONE BUTTE                                         01 
01040020007001219000434000673000109000003000000000000000000000000000000000000000000000000000000000000DEM       U.S. Rep in Congress Dist. 1                            O'HALLERAN, TOM                       07 PIONEER                                             01 
01040020008001002000379000537000074000012000000000000000000000000000000000000000000000000000000000000DEM       U.S. Rep in Congress Dist. 1                            O'HALLERAN, TOM                       08 ANTELOPE                                            01 
01040020009000295000088000187000019000001000000000000000000000000000000000000000000000000000000000000DEM       U.S. Rep in Congress Dist. 1                            O'HALLERAN, TOM                       09 JUNIPER                                             01 
01040020010000199000072000104000022000001000000000000000000000000000000000000000000000000000000000000DEM       U.S. Rep in Congress Dist. 1                            O'HALLERAN, TOM                       10 BISON                                               01 
01040020011000614000123000443000046000002000000000000000000000000000000000000000000000000000000000000DEM       U.S. Rep in Congress Dist. 1                            O'HALLERAN, TOM                       11 MOGOLLON                                            01 
01040020012000278000070000192000015000001000000000000000000000000000000000000000000000000000000000000DEM       U.S. Rep in Congress Dist. 1                            O'HALLERAN, TOM                       12 WOODLAND                                            01 
01040020013001869000408001336000120000005000000000000000000000000000000000000000000000000000000000000DEM       U.S. Rep in Congress Dist. 1                            O'HALLERAN, TOM                       13 SITGREAVES                                          01 
01040020014003948002055001635000190000068000000000000000000000000000000000000000000000000000000000000DEM       U.S. Rep in Congress Dist. 1                            O'HALLERAN, TOM                       14 SUNRISE                                             01 
01040030001000543000317000209000016000001000000000000000000000000000000000000000000000000000000000000GRN       U.S. Rep in Congress Dist. 1                            PARRISH, RAY                          01 RED BUTTE                                           01 
01040030002000040000030000010000000000000000000000000000000000000000000000000000000000000000000000000GRN       U.S. Rep in Congress Dist. 1                            PARRISH, RAY                          02 PAINTED DESERT                                      01 
01040030003000014000005000009000000000000000000000000000000000000000000000000000000000000000000000000GRN       U.S. Rep in Congress Dist. 1                            PARRISH, RAY                          03 HUBBELL                                             01 
01040030004000283000143000109000025000006000000000000000000000000000000000000000000000000000000000000GRN       U.S. Rep in Congress Dist. 1                            PARRISH, RAY                          04 BLACK BUTTES                                        01 
01040030005000037000024000009000001000003000000000000000000000000000000000000000000000000000000000000GRN       U.S. Rep in Congress Dist. 1                            PARRISH, RAY                          05 CEDAR VALLEY                                        01 
01040030006000021000013000005000002000001000000000000000000000000000000000000000000000000000000000000GRN       U.S. Rep in Congress Dist. 1                            PARRISH, RAY                          06 STONE BUTTE                                         01 
01040030007000397000147000196000051000003000000000000000000000000000000000000000000000000000000000000GRN       U.S. Rep in Congress Dist. 1                            PARRISH, RAY                          07 PIONEER                                             01 
01040030008000180000094000066000019000001000000000000000000000000000000000000000000000000000000000000GRN       U.S. Rep in Congress Dist. 1                            PARRISH, RAY                          08 ANTELOPE                                            01 
01040030009000115000037000068000009000001000000000000000000000000000000000000000000000000000000000000GRN       U.S. Rep in Congress Dist. 1                            PARRISH, RAY                          09 JUNIPER                                             01 
01040030010000045000018000019000008000000000000000000000000000000000000000000000000000000000000000000GRN       U.S. Rep in Congress Dist. 1                            PARRISH, RAY                          10 BISON                                               01 
01040030011000127000032000080000015000000000000000000000000000000000000000000000000000000000000000000GRN       U.S. Rep in Congress Dist. 1                            PARRISH, RAY                          11 MOGOLLON                                            01 
01040030012000071000023000041000006000001000000000000000000000000000000000000000000000000000000000000GRN       U.S. Rep in Congress Dist. 1                            PARRISH, RAY                          12 WOODLAND                                            01 
01040030013000419000132000251000032000004000000000000000000000000000000000000000000000000000000000000GRN       U.S. Rep in Congress Dist. 1                            PARRISH, RAY                          13 SITGREAVES                                          01 
01040030014000381000150000191000034000006000000000000000000000000000000000000000000000000000000000000GRN       U.S. Rep in Congress Dist. 1                            PARRISH, RAY                          14 SUNRISE                                             01 
01040040001000010000003000007000000000000000000000000000000000000000000000000000000000000000000000000NON       U.S. Rep in Congress Dist. 1                            WRITE-IN                              01 RED BUTTE                                           01 
01040040002000000000000000000000000000000000000000000000000000000000000000000000000000000000000000000NON       U.S. Rep in Congress Dist. 1                            WRITE-IN                              02 PAINTED DESERT                                      01 
01040040003000000000000000000000000000000000000000000000000000000000000000000000000000000000000000000NON       U.S. Rep in Congress Dist. 1                            WRITE-IN                              03 HUBBELL                                             01 
01040040004000012000008000002000002000000000000000000000000000000000000000000000000000000000000000000NON       U.S. Rep in Congress Dist. 1                            WRITE-IN                              04 BLACK BUTTES                                        01 
01040040005000002000000000001000000000001000000000000000000000000000000000000000000000000000000000000NON       U.S. Rep in Congress Dist. 1                            WRITE-IN                              05 CEDAR VALLEY                                        01 
01040040006000001000000000000000001000000000000000000000000000000000000000000000000000000000000000000NON       U.S. Rep in Congress Dist. 1                            WRITE-IN                              06 STONE BUTTE                                         01 
01040040007000038000012000020000006000000000000000000000000000000000000000000000000000000000000000000NON       U.S. Rep in Congress Dist. 1                            WRITE-IN                              07 PIONEER                                             01 
01040040008000010000006000004000000000000000000000000000000000000000000000000000000000000000000000000NON       U.S. Rep in Congress Dist. 1                            WRITE-IN                              08 ANTELOPE                                            01 
01040040009000004000002000001000001000000000000000000000000000000000000000000000000000000000000000000NON       U.S. Rep in Congress Dist. 1                            WRITE-IN                              09 JUNIPER                                             01 
01040040010000003000001000002000000000000000000000000000000000000000000000000000000000000000000000000NON       U.S. Rep in Congress Dist. 1                            WRITE-IN                              10 BISON                                               01 
01040040011000005000001000004000000000000000000000000000000000000000000000000000000000000000000000000NON       U.S. Rep in Congress Dist. 1                            WRITE-IN                              11 MOGOLLON                                            01 
01040040012000005000002000002000001000000000000000000000000000000000000000000000000000000000000000000NON       U.S. Rep in Congress Dist. 1                            WRITE-IN                              12 WOODLAND                                            01 
01040040013000028000009000014000005000000000000000000000000000000000000000000000000000000000000000000NON       U.S. Rep in Congress Dist. 1                            WRITE-IN                              13 SITGREAVES                                          01 
01040040014000026000007000010000008000001000000000000000000000000000000000000000000000000000000000000NON       U.S. Rep in Congress Dist. 1                            WRITE-IN                              14 SUNRISE                                             01 
01040050001000009000007000002000000000000000000000000000000000000000000000000000000000000000000000000          U.S. Rep in Congress Dist. 1                            OVER VOTES                            01 RED BUTTE                                           01 
01040050002000000000000000000000000000000000000000000000000000000000000000000000000000000000000000000          U.S. Rep in Congress Dist. 1                            OVER VOTES                            02 PAINTED DESERT                                      01 
01040050003000000000000000000000000000000000000000000000000000000000000000000000000000000000000000000          U.S. Rep in Congress Dist. 1                            OVER VOTES                            03 HUBBELL                                             01 
01040050004000008000004000004000000000000000000000000000000000000000000000000000000000000000000000000          U.S. Rep in Congress Dist. 1                            OVER VOTES                            04 BLACK BUTTES                                        01 
01040050005000002000001000001000000000000000000000000000000000000000000000000000000000000000000000000          U.S. Rep in Congress Dist. 1                            OVER VOTES                            05 CEDAR VALLEY                                        01 
01040050006000001000001000000000000000000000000000000000000000000000000000000000000000000000000000000          U.S. Rep in Congress Dist. 1                            OVER VOTES                            06 STONE BUTTE                                         01 
01040050007000001000000000001000000000000000000000000000000000000000000000000000000000000000000000000          U.S. Rep in Congress Dist. 1                            OVER VOTES                            07 PIONEER                                             01 
01040050008000000000000000000000000000000000000000000000000000000000000000000000000000000000000000000          U.S. Rep in Congress Dist. 1                            OVER VOTES                            08 ANTELOPE                                            01 
01040050009000000000000000000000000000000000000000000000000000000000000000000000000000000000000000000          U.S. Rep in Congress Dist. 1                            OVER VOTES                            09 JUNIPER                                             01 
01040050010000000000000000000000000000000000000000000000000000000000000000000000000000000000000000000          U.S. Rep in Congress Dist. 1                            OVER VOTES                            10 BISON                                               01 
01040050011000000000000000000000000000000000000000000000000000000000000000000000000000000000000000000          U.S. Rep in Congress Dist. 1                            OVER VOTES                            11 MOGOLLON                                            01 
01040050012000000000000000000000000000000000000000000000000000000000000000000000000000000000000000000          U.S. Rep in Congress Dist. 1                            OVER VOTES                            12 WOODLAND                                            01 
01040050013000002000000000000000002000000000000000000000000000000000000000000000000000000000000000000          U.S. Rep in Congress Dist. 1                            OVER VOTES                            13 SITGREAVES                                          01 
01040050014000006000004000002000000000000000000000000000000000000000000000000000000000000000000000000          U.S. Rep in Congress Dist. 1                            OVER VOTES                            14 SUNRISE                                             01 
01040060001000207000122000076000007000002000000000000000000000000000000000000000000000000000000000000          U.S. Rep in Congress Dist. 1                            UNDER VOTES                           01 RED BUTTE                                           01 
01040060002000036000022000013000001000000000000000000000000000000000000000000000000000000000000000000          U.S. Rep in Congress Dist. 1                            UNDER VOTES                           02 PAINTED DESERT                                      01 
01040060003000016000005000009000001000001000000000000000000000000000000000000000000000000000000000000          U.S. Rep in Congress Dist. 1                            UNDER VOTES                           03 HUBBELL                                             01 
01040060004000267000125000114000025000003000000000000000000000000000000000000000000000000000000000000          U.S. Rep in Congress Dist. 1                            UNDER VOTES                           04 BLACK BUTTES                                        01 
01040060005000043000033000008000001000001000000000000000000000000000000000000000000000000000000000000          U.S. Rep in Congress Dist. 1                            UNDER VOTES                           05 CEDAR VALLEY                                        01 
01040060006000021000016000005000000000000000000000000000000000000000000000000000000000000000000000000          U.S. Rep in Congress Dist. 1                            UNDER VOTES                           06 STONE BUTTE                                         01 
01040060007000393000154000180000054000005000000000000000000000000000000000000000000000000000000000000          U.S. Rep in Congress Dist. 1                            UNDER VOTES                           07 PIONEER                                             01 
01040060008000185000093000076000015000001000000000000000000000000000000000000000000000000000000000000          U.S. Rep in Congress Dist. 1                            UNDER VOTES                           08 ANTELOPE                                            01 
01040060009000066000020000038000008000000000000000000000000000000000000000000000000000000000000000000          U.S. Rep in Congress Dist. 1                            UNDER VOTES                           09 JUNIPER                                             01 
01040060010000071000031000030000010000000000000000000000000000000000000000000000000000000000000000000          U.S. Rep in Congress Dist. 1                            UNDER VOTES                           10 BISON                                               01 
01040060011000120000034000070000015000001000000000000000000000000000000000000000000000000000000000000          U.S. Rep in Congress Dist. 1                            UNDER VOTES                           11 MOGOLLON                                            01 
01040060012000059000017000028000013000001000000000000000000000000000000000000000000000000000000000000          U.S. Rep in Congress Dist. 1                            UNDER VOTES                           12 WOODLAND                                            01 
01040060013000478000125000299000052000002000000000000000000000000000000000000000000000000000000000000          U.S. Rep in Congress Dist. 1                            UNDER VOTES                           13 SITGREAVES                                          01 
01040060014000394000169000185000031000009000000000000000000000000000000000000000000000000000000000000          U.S. Rep in Congress Dist. 1                            UNDER VOTES                           14 SUNRISE                                             01 
01050010007004130001791001803000491000045000000000000000000000000000000000000000000000000000000000000REPSEN0006State Senator Dist. 6                                   ALLEN, SYLVIA TENNEY                  07 PIONEER                    Dist. 6                  01 
01050010008001338000662000549000113000014000000000000000000000000000000000000000000000000000000000000REPSEN0006State Senator Dist. 6                                   ALLEN, SYLVIA TENNEY                  08 ANTELOPE                   Dist. 6                  01 
01050010009000749000248000466000032000003000000000000000000000000000000000000000000000000000000000000REPSEN0006State Senator Dist. 6                                   ALLEN, SYLVIA TENNEY                  09 JUNIPER                    Dist. 6                  01 
01050010010000579000253000264000060000002000000000000000000000000000000000000000000000000000000000000REPSEN0006State Senator Dist. 6                                   ALLEN, SYLVIA TENNEY                  10 BISON                      Dist. 6                  01 
01050010011001578000448000975000152000003000000000000000000000000000000000000000000000000000000000000REPSEN0006State Senator Dist. 6                                   ALLEN, SYLVIA TENNEY                  11 MOGOLLON                   Dist. 6                  01 
01050020007001214000421000651000138000004000000000000000000000000000000000000000000000000000000000000DEMSEN0006State Senator Dist. 6                                   BAGLEY, NIKKI CHECK                   07 PIONEER                    Dist. 6                  01 
01050020008001094000421000576000083000014000000000000000000000000000000000000000000000000000000000000DEMSEN0006State Senator Dist. 6                                   BAGLEY, NIKKI CHECK                   08 ANTELOPE                   Dist. 6                  01 
01050020009000308000083000202000022000001000000000000000000000000000000000000000000000000000000000000DEMSEN0006State Senator Dist. 6                                   BAGLEY, NIKKI CHECK                   09 JUNIPER                    Dist. 6                  01 
01050020010000144000036000090000018000000000000000000000000000000000000000000000000000000000000000000DEMSEN0006State Senator Dist. 6                                   BAGLEY, NIKKI CHECK                   10 BISON                      Dist. 6                  01 
01050020011000551000107000396000046000002000000000000000000000000000000000000000000000000000000000000DEMSEN0006State Senator Dist. 6                                   BAGLEY, NIKKI CHECK                   11 MOGOLLON                   Dist. 6                  01 
01050030007000032000010000017000005000000000000000000000000000000000000000000000000000000000000000000NONSEN0006State Senator Dist. 6                                   WRITE-IN                              07 PIONEER                    Dist. 6                  01 
01050030008000008000004000003000001000000000000000000000000000000000000000000000000000000000000000000NONSEN0006State Senator Dist. 6                                   WRITE-IN                              08 ANTELOPE                   Dist. 6                  01 
01050030009000003000002000001000000000000000000000000000000000000000000000000000000000000000000000000NONSEN0006State Senator Dist. 6                                   WRITE-IN                              09 JUNIPER                    Dist. 6                  01 
01050030010000001000000000001000000000000000000000000000000000000000000000000000000000000000000000000NONSEN0006State Senator Dist. 6                                   WRITE-IN                              10 BISON                      Dist. 6                  01 
01050030011000004000002000002000000000000000000000000000000000000000000000000000000000000000000000000NONSEN0006State Senator Dist. 6                                   WRITE-IN                              11 MOGOLLON                   Dist. 6                  01 
01050040007000000000000000000000000000000000000000000000000000000000000000000000000000000000000000000   SEN0006State Senator Dist. 6                                   OVER VOTES                            07 PIONEER                    Dist. 6                  01 
01050040008000001000000000000000000000001000000000000000000000000000000000000000000000000000000000000   SEN0006State Senator Dist. 6                                   OVER VOTES                            08 ANTELOPE                   Dist. 6                  01 
01050040009000001000001000000000000000000000000000000000000000000000000000000000000000000000000000000   SEN0006State Senator Dist. 6                                   OVER VOTES                            09 JUNIPER                    Dist. 6                  01 
01050040010000000000000000000000000000000000000000000000000000000000000000000000000000000000000000000   SEN0006State Senator Dist. 6                                   OVER VOTES                            10 BISON                      Dist. 6                  01 
01050040011000000000000000000000000000000000000000000000000000000000000000000000000000000000000000000   SEN0006State Senator Dist. 6                                   OVER VOTES                            11 MOGOLLON                   Dist. 6                  01 
01050050007000237000096000113000024000004000000000000000000000000000000000000000000000000000000000000   SEN0006State Senator Dist. 6                                   UNDER VOTES                           07 PIONEER                    Dist. 6                  01 
01050050008000117000062000042000011000002000000000000000000000000000000000000000000000000000000000000   SEN0006State Senator Dist. 6                                   UNDER VOTES                           08 ANTELOPE                   Dist. 6                  01 
01050050009000060000022000034000003000001000000000000000000000000000000000000000000000000000000000000   SEN0006State Senator Dist. 6                                   UNDER VOTES                           09 JUNIPER                    Dist. 6                  01 
01050050010000039000021000012000006000000000000000000000000000000000000000000000000000000000000000000   SEN0006State Senator Dist. 6                                   UNDER VOTES                           10 BISON                      Dist. 6                  01 
01050050011000050000010000036000004000000000000000000000000000000000000000000000000000000000000000000   SEN0006State Senator Dist. 6                                   UNDER VOTES                           11 MOGOLLON                   Dist. 6                  01 
01060010001005374003412001759000175000028000000000000000000000000000000000000000000000000000000000000DEMSEN0007State Senator Dist. 7                                   PESHLAKAI, JAMESCITA                  01 RED BUTTE                  Dist. 7                  01 
01060010002000762000522000211000026000003000000000000000000000000000000000000000000000000000000000000DEMSEN0007State Senator Dist. 7                                   PESHLAKAI, JAMESCITA                  02 PAINTED DESERT             Dist. 7                  01 
01060010003000094000033000049000011000001000000000000000000000000000000000000000000000000000000000000DEMSEN0007State Senator Dist. 7                                   PESHLAKAI, JAMESCITA                  03 HUBBELL                    Dist. 7                  01 
01060010004004054002021001738000233000062000000000000000000000000000000000000000000000000000000000000DEMSEN0007State Senator Dist. 7                                   PESHLAKAI, JAMESCITA                  04 BLACK BUTTES               Dist. 7                  01 
01060010005001045000678000311000038000018000000000000000000000000000000000000000000000000000000000000DEMSEN0007State Senator Dist. 7                                   PESHLAKAI, JAMESCITA                  05 CEDAR VALLEY               Dist. 7                  01 
01060010006000376000294000059000014000009000000000000000000000000000000000000000000000000000000000000DEMSEN0007State Senator Dist. 7                                   PESHLAKAI, JAMESCITA                  06 STONE BUTTE                Dist. 7                  01 
01060010012000420000138000248000029000005000000000000000000000000000000000000000000000000000000000000DEMSEN0007State Senator Dist. 7                                   PESHLAKAI, JAMESCITA                  12 WOODLAND                   Dist. 7                  01 
01060010013002876000799001872000192000013000000000000000000000000000000000000000000000000000000000000DEMSEN0007State Senator Dist. 7                                   PESHLAKAI, JAMESCITA                  13 SITGREAVES                 Dist. 7                  01 
01060010014004635002324001976000265000070000000000000000000000000000000000000000000000000000000000000DEMSEN0007State Senator Dist. 7                                   PESHLAKAI, JAMESCITA                  14 SUNRISE                    Dist. 7                  01 
01060020001000056000034000019000003000000000000000000000000000000000000000000000000000000000000000000NONSEN0007State Senator Dist. 7                                   WRITE-IN                              01 RED BUTTE                  Dist. 7                  01 
01060020002000014000009000004000001000000000000000000000000000000000000000000000000000000000000000000NONSEN0007State Senator Dist. 7                                   WRITE-IN                              02 PAINTED DESERT             Dist. 7                  01 
01060020003000002000002000000000000000000000000000000000000000000000000000000000000000000000000000000NONSEN0007State Senator Dist. 7                                   WRITE-IN                              03 HUBBELL                    Dist. 7                  01 
01060020004000084000036000039000008000001000000000000000000000000000000000000000000000000000000000000NONSEN0007State Senator Dist. 7                                   WRITE-IN                              04 BLACK BUTTES               Dist. 7                  01 
01060020005000008000004000002000001000001000000000000000000000000000000000000000000000000000000000000NONSEN0007State Senator Dist. 7                                   WRITE-IN                              05 CEDAR VALLEY               Dist. 7                  01 
01060020006000001000001000000000000000000000000000000000000000000000000000000000000000000000000000000NONSEN0007State Senator Dist. 7                                   WRITE-IN                              06 STONE BUTTE                Dist. 7                  01 
01060020012000030000017000013000000000000000000000000000000000000000000000000000000000000000000000000NONSEN0007State Senator Dist. 7                                   WRITE-IN                              12 WOODLAND                   Dist. 7                  01 
01060020013000200000084000101000014000001000000000000000000000000000000000000000000000000000000000000NONSEN0007State Senator Dist. 7                                   WRITE-IN                              13 SITGREAVES                 Dist. 7                  01 
01060020014000149000063000068000015000003000000000000000000000000000000000000000000000000000000000000NONSEN0007State Senator Dist. 7                                   WRITE-IN                              14 SUNRISE                    Dist. 7                  01 
01060030001000003000001000002000000000000000000000000000000000000000000000000000000000000000000000000   SEN0007State Senator Dist. 7                                   OVER VOTES                            01 RED BUTTE                  Dist. 7                  01 
01060030002000000000000000000000000000000000000000000000000000000000000000000000000000000000000000000   SEN0007State Senator Dist. 7                                   OVER VOTES                            02 PAINTED DESERT             Dist. 7                  01 
01060030003000000000000000000000000000000000000000000000000000000000000000000000000000000000000000000   SEN0007State Senator Dist. 7                                   OVER VOTES                            03 HUBBELL                    Dist. 7                  01 
01060030004000004000001000002000001000000000000000000000000000000000000000000000000000000000000000000   SEN0007State Senator Dist. 7                                   OVER VOTES                            04 BLACK BUTTES               Dist. 7                  01 
01060030005000002000002000000000000000000000000000000000000000000000000000000000000000000000000000000   SEN0007State Senator Dist. 7                                   OVER VOTES                            05 CEDAR VALLEY               Dist. 7                  01 
01060030006000001000001000000000000000000000000000000000000000000000000000000000000000000000000000000   SEN0007State Senator Dist. 7                                   OVER VOTES                            06 STONE BUTTE                Dist. 7                  01 
01060030012000000000000000000000000000000000000000000000000000000000000000000000000000000000000000000   SEN0007State Senator Dist. 7                                   OVER VOTES                            12 WOODLAND                   Dist. 7                  01 
01060030013000003000002000001000000000000000000000000000000000000000000000000000000000000000000000000   SEN0007State Senator Dist. 7                                   OVER VOTES                            13 SITGREAVES                 Dist. 7                  01 
01060030014000006000004000002000000000000000000000000000000000000000000000000000000000000000000000000   SEN0007State Senator Dist. 7                                   OVER VOTES                            14 SUNRISE                    Dist. 7                  01 
01060040001000591000422000138000028000003000000000000000000000000000000000000000000000000000000000000   SEN0007State Senator Dist. 7                                   UNDER VOTES                           01 RED BUTTE                  Dist. 7                  01 
01060040002000119000071000037000010000001000000000000000000000000000000000000000000000000000000000000   SEN0007State Senator Dist. 7                                   UNDER VOTES                           02 PAINTED DESERT             Dist. 7                  01 
01060040003000080000030000039000011000000000000000000000000000000000000000000000000000000000000000000   SEN0007State Senator Dist. 7                                   UNDER VOTES                           03 HUBBELL                    Dist. 7                  01 
01060040004000969000417000437000093000022000000000000000000000000000000000000000000000000000000000000   SEN0007State Senator Dist. 7                                   UNDER VOTES                           04 BLACK BUTTES               Dist. 7                  01 
01060040005000089000074000009000001000005000000000000000000000000000000000000000000000000000000000000   SEN0007State Senator Dist. 7                                   UNDER VOTES                           05 CEDAR VALLEY               Dist. 7                  01 
01060040006000024000019000003000001000001000000000000000000000000000000000000000000000000000000000000   SEN0007State Senator Dist. 7                                   UNDER VOTES                           06 STONE BUTTE                Dist. 7                  01 
01060040012000451000138000249000062000002000000000000000000000000000000000000000000000000000000000000   SEN0007State Senator Dist. 7                                   UNDER VOTES                           12 WOODLAND                   Dist. 7                  01 
01060040013003459000930002196000324000009000000000000000000000000000000000000000000000000000000000000   SEN0007State Senator Dist. 7                                   UNDER VOTES                           13 SITGREAVES                 Dist. 7                  01 
01060040014003034000959001775000274000026000000000000000000000000000000000000000000000000000000000000   SEN0007State Senator Dist. 7                                   UNDER VOTES                           14 SUNRISE                    Dist. 7                  01 
01070010007003996001654001797000508000037000000000000000000000000000000000000000000000000000000000000REPREP0006State Representative Dist. 6                            BARTON, BRENDA                        07 PIONEER                    Dist. 6                  02 
01070010008001301000615000560000114000012000000000000000000000000000000000000000000000000000000000000REPREP0006State Representative Dist. 6                            BARTON, BRENDA                        08 ANTELOPE                   Dist. 6                  02 
01070010009000684000212000441000029000002000000000000000000000000000000000000000000000000000000000000REPREP0006State Representative Dist. 6                            BARTON, BRENDA                        09 JUNIPER                    Dist. 6                  02 
01070010010000519000219000243000057000000000000000000000000000000000000000000000000000000000000000000REPREP0006State Representative Dist. 6                            BARTON, BRENDA                        10 BISON                      Dist. 6                  02 
01070010011001484000405000932000145000002000000000000000000000000000000000000000000000000000000000000REPREP0006State Representative Dist. 6                            BARTON, BRENDA                        11 MOGOLLON                   Dist. 6                  02 
01070020007003953001651001785000484000033000000000000000000000000000000000000000000000000000000000000REPREP0006State Representative Dist. 6                            THORPE, BOB                           07 PIONEER                    Dist. 6                  02 
01070020008001384000639000605000123000017000000000000000000000000000000000000000000000000000000000000REPREP0006State Representative Dist. 6                            THORPE, BOB                           08 ANTELOPE                   Dist. 6                  02 
01070020009000671000214000422000033000002000000000000000000000000000000000000000000000000000000000000REPREP0006State Representative Dist. 6                            THORPE, BOB                           09 JUNIPER                    Dist. 6                  02 
