00010010001000621000000000000000000000000000000000000000000000000000000000000000000000000000000000000          REGISTERED VOTERS - TOTAL                               REGISTERED VOTERS - TOTAL             Nogales 1                                              00 
00010010002001560000000000000000000000000000000000000000000000000000000000000000000000000000000000000          REGISTERED VOTERS - TOTAL                               REGISTERED VOTERS - TOTAL             Nogales 2                                              00 
00010010003000889000000000000000000000000000000000000000000000000000000000000000000000000000000000000          REGISTERED VOTERS - TOTAL                               REGISTERED VOTERS - TOTAL             Nogales 3                                              00 
00010010004000459000000000000000000000000000000000000000000000000000000000000000000000000000000000000          REGISTERED VOTERS - TOTAL                               REGISTERED VOTERS - TOTAL             Nogales 4                                              00 
00010010005001101000000000000000000000000000000000000000000000000000000000000000000000000000000000000          REGISTERED VOTERS - TOTAL                               REGISTERED VOTERS - TOTAL             Coronado 5                                             00 
00010010006000591000000000000000000000000000000000000000000000000000000000000000000000000000000000000          REGISTERED VOTERS - TOTAL                               REGISTERED VOTERS - TOTAL             Elgin 6                                                00 
00010010007003135000000000000000000000000000000000000000000000000000000000000000000000000000000000000          REGISTERED VOTERS - TOTAL                               REGISTERED VOTERS - TOTAL             Rio Rico 7                                             00 
00010010008002143000000000000000000000000000000000000000000000000000000000000000000000000000000000000          REGISTERED VOTERS - TOTAL                               REGISTERED VOTERS - TOTAL             Nogales 8                                              00 
00010010009000346000000000000000000000000000000000000000000000000000000000000000000000000000000000000          REGISTERED VOTERS - TOTAL                               REGISTERED VOTERS - TOTAL             Nogales 9                                              00 
00010010010001065000000000000000000000000000000000000000000000000000000000000000000000000000000000000          REGISTERED VOTERS - TOTAL                               REGISTERED VOTERS - TOTAL             Nogales 10                                             00 
00010010011001617000000000000000000000000000000000000000000000000000000000000000000000000000000000000          REGISTERED VOTERS - TOTAL                               REGISTERED VOTERS - TOTAL             Tubac 11                                               00 
00010010012000647000000000000000000000000000000000000000000000000000000000000000000000000000000000000          REGISTERED VOTERS - TOTAL                               REGISTERED VOTERS - TOTAL             Nogales 12                                             00 
00010010013000390000000000000000000000000000000000000000000000000000000000000000000000000000000000000          REGISTERED VOTERS - TOTAL                               REGISTERED VOTERS - TOTAL             Santa Cruz 13                                          00 
00010010014000867000000000000000000000000000000000000000000000000000000000000000000000000000000000000          REGISTERED VOTERS - TOTAL                               REGISTERED VOTERS - TOTAL             Patagonia 14                                           00 
00010010015000836000000000000000000000000000000000000000000000000000000000000000000000000000000000000          REGISTERED VOTERS - TOTAL                               REGISTERED VOTERS - TOTAL             Sonoita 15                                             00 
00010010016000536000000000000000000000000000000000000000000000000000000000000000000000000000000000000          REGISTERED VOTERS - TOTAL                               REGISTERED VOTERS - TOTAL             Nogales 16                                             00 
00010010017002716000000000000000000000000000000000000000000000000000000000000000000000000000000000000          REGISTERED VOTERS - TOTAL                               REGISTERED VOTERS - TOTAL             Calabasas 17                                           00 
00010010018000611000000000000000000000000000000000000000000000000000000000000000000000000000000000000          REGISTERED VOTERS - TOTAL                               REGISTERED VOTERS - TOTAL             Nogales 18                                             00 
00010010019002340000000000000000000000000000000000000000000000000000000000000000000000000000000000000          REGISTERED VOTERS - TOTAL                               REGISTERED VOTERS - TOTAL             Baca 19                                                00 
00010010020001137000000000000000000000000000000000000000000000000000000000000000000000000000000000000          REGISTERED VOTERS - TOTAL                               REGISTERED VOTERS - TOTAL             Nogales 20                                             00 
00010010021001891000000000000000000000000000000000000000000000000000000000000000000000000000000000000          REGISTERED VOTERS - TOTAL                               REGISTERED VOTERS - TOTAL             Peck Canyon 21                                         00 
00010010022000586000000000000000000000000000000000000000000000000000000000000000000000000000000000000          REGISTERED VOTERS - TOTAL                               REGISTERED VOTERS - TOTAL             Potrero 22                                             00 
00010010023000052000000000000000000000000000000000000000000000000000000000000000000000000000000000000          REGISTERED VOTERS - TOTAL                               REGISTERED VOTERS - TOTAL             Mountain 23                                            00 
00010010024000140000000000000000000000000000000000000000000000000000000000000000000000000000000000000          REGISTERED VOTERS - TOTAL                               REGISTERED VOTERS - TOTAL             Lake Patagonia 24                                      00 
00020010001000329000099000201000029000000000000000000000000000000000000000000000000000000000000000000          BALLOTS CAST - TOTAL                                    BALLOTS CAST - TOTAL                  Nogales 1                                              00 
00020010002000827000260000482000085000000000000000000000000000000000000000000000000000000000000000000          BALLOTS CAST - TOTAL                                    BALLOTS CAST - TOTAL                  Nogales 2                                              00 
00020010003000496000145000311000040000000000000000000000000000000000000000000000000000000000000000000          BALLOTS CAST - TOTAL                                    BALLOTS CAST - TOTAL                  Nogales 3                                              00 
00020010004000263000087000158000018000000000000000000000000000000000000000000000000000000000000000000          BALLOTS CAST - TOTAL                                    BALLOTS CAST - TOTAL                  Nogales 4                                              00 
00020010005000699000212000440000047000000000000000000000000000000000000000000000000000000000000000000          BALLOTS CAST - TOTAL                                    BALLOTS CAST - TOTAL                  Coronado 5                                             00 
00020010006000503000115000376000012000000000000000000000000000000000000000000000000000000000000000000          BALLOTS CAST - TOTAL                                    BALLOTS CAST - TOTAL                  Elgin 6                                                00 
00020010007002163000546001479000138000000000000000000000000000000000000000000000000000000000000000000          BALLOTS CAST - TOTAL                                    BALLOTS CAST - TOTAL                  Rio Rico 7                                             00 
00020010008001226000401000716000109000000000000000000000000000000000000000000000000000000000000000000          BALLOTS CAST - TOTAL                                    BALLOTS CAST - TOTAL                  Nogales 8                                              00 
00020010009000225000077000133000015000000000000000000000000000000000000000000000000000000000000000000          BALLOTS CAST - TOTAL                                    BALLOTS CAST - TOTAL                  Nogales 9                                              00 
00020010010000602000163000371000068000000000000000000000000000000000000000000000000000000000000000000          BALLOTS CAST - TOTAL                                    BALLOTS CAST - TOTAL                  Nogales 10                                             00 
00020010011001294000291000951000052000000000000000000000000000000000000000000000000000000000000000000          BALLOTS CAST - TOTAL                                    BALLOTS CAST - TOTAL                  Tubac 11                                               00 
00020010012000345000115000185000045000000000000000000000000000000000000000000000000000000000000000000          BALLOTS CAST - TOTAL                                    BALLOTS CAST - TOTAL                  Nogales 12                                             00 
00020010013000287000104000157000026000000000000000000000000000000000000000000000000000000000000000000          BALLOTS CAST - TOTAL                                    BALLOTS CAST - TOTAL                  Santa Cruz 13                                          00 
00020010014000672000212000434000026000000000000000000000000000000000000000000000000000000000000000000          BALLOTS CAST - TOTAL                                    BALLOTS CAST - TOTAL                  Patagonia 14                                           00 
00020010015000717000213000476000028000000000000000000000000000000000000000000000000000000000000000000          BALLOTS CAST - TOTAL                                    BALLOTS CAST - TOTAL                  Sonoita 15                                             00 
00020010016000270000092000142000036000000000000000000000000000000000000000000000000000000000000000000          BALLOTS CAST - TOTAL                                    BALLOTS CAST - TOTAL                  Nogales 16                                             00 
00020010017001761000524001071000166000000000000000000000000000000000000000000000000000000000000000000          BALLOTS CAST - TOTAL                                    BALLOTS CAST - TOTAL                  Calabasas 17                                           00 
00020010018000448000136000269000043000000000000000000000000000000000000000000000000000000000000000000          BALLOTS CAST - TOTAL                                    BALLOTS CAST - TOTAL                  Nogales 18                                             00 
00020010019001416000384000883000149000000000000000000000000000000000000000000000000000000000000000000          BALLOTS CAST - TOTAL                                    BALLOTS CAST - TOTAL                  Baca 19                                                00 
00020010020000648000220000363000065000000000000000000000000000000000000000000000000000000000000000000          BALLOTS CAST - TOTAL                                    BALLOTS CAST - TOTAL                  Nogales 20                                             00 
00020010021001104000348000622000134000000000000000000000000000000000000000000000000000000000000000000          BALLOTS CAST - TOTAL                                    BALLOTS CAST - TOTAL                  Peck Canyon 21                                         00 
00020010022000309000087000185000037000000000000000000000000000000000000000000000000000000000000000000          BALLOTS CAST - TOTAL                                    BALLOTS CAST - TOTAL                  Potrero 22                                             00 
00020010023000046000008000037000001000000000000000000000000000000000000000000000000000000000000000000          BALLOTS CAST - TOTAL                                    BALLOTS CAST - TOTAL                  Mountain 23                                            00 
00020010024000119000017000101000001000000000000000000000000000000000000000000000000000000000000000000          BALLOTS CAST - TOTAL                                    BALLOTS CAST - TOTAL                  Lake Patagonia 24                                      00 
00030010001000000000000000000000000000000000000000000000000000000000000000000000000000000000000000000          BALLOTS CAST - BLANK                                    BALLOTS CAST - BLANK                  Nogales 1                                              00 
00030010002000000000000000000000000000000000000000000000000000000000000000000000000000000000000000000          BALLOTS CAST - BLANK                                    BALLOTS CAST - BLANK                  Nogales 2                                              00 
00030010003000000000000000000000000000000000000000000000000000000000000000000000000000000000000000000          BALLOTS CAST - BLANK                                    BALLOTS CAST - BLANK                  Nogales 3                                              00 
00030010004000000000000000000000000000000000000000000000000000000000000000000000000000000000000000000          BALLOTS CAST - BLANK                                    BALLOTS CAST - BLANK                  Nogales 4                                              00 
00030010005000000000000000000000000000000000000000000000000000000000000000000000000000000000000000000          BALLOTS CAST - BLANK                                    BALLOTS CAST - BLANK                  Coronado 5                                             00 
00030010006000000000000000000000000000000000000000000000000000000000000000000000000000000000000000000          BALLOTS CAST - BLANK                                    BALLOTS CAST - BLANK                  Elgin 6                                                00 
00030010007000000000000000000000000000000000000000000000000000000000000000000000000000000000000000000          BALLOTS CAST - BLANK                                    BALLOTS CAST - BLANK                  Rio Rico 7                                             00 
00030010008000002000000000000000002000000000000000000000000000000000000000000000000000000000000000000          BALLOTS CAST - BLANK                                    BALLOTS CAST - BLANK                  Nogales 8                                              00 
00030010009000000000000000000000000000000000000000000000000000000000000000000000000000000000000000000          BALLOTS CAST - BLANK                                    BALLOTS CAST - BLANK                  Nogales 9                                              00 
00030010010000000000000000000000000000000000000000000000000000000000000000000000000000000000000000000          BALLOTS CAST - BLANK                                    BALLOTS CAST - BLANK                  Nogales 10                                             00 
00030010011000001000001000000000000000000000000000000000000000000000000000000000000000000000000000000          BALLOTS CAST - BLANK                                    BALLOTS CAST - BLANK                  Tubac 11                                               00 
00030010012000000000000000000000000000000000000000000000000000000000000000000000000000000000000000000          BALLOTS CAST - BLANK                                    BALLOTS CAST - BLANK                  Nogales 12                                             00 
00030010013000000000000000000000000000000000000000000000000000000000000000000000000000000000000000000          BALLOTS CAST - BLANK                                    BALLOTS CAST - BLANK                  Santa Cruz 13                                          00 
00030010014000000000000000000000000000000000000000000000000000000000000000000000000000000000000000000          BALLOTS CAST - BLANK                                    BALLOTS CAST - BLANK                  Patagonia 14                                           00 
00030010015000000000000000000000000000000000000000000000000000000000000000000000000000000000000000000          BALLOTS CAST - BLANK                                    BALLOTS CAST - BLANK                  Sonoita 15                                             00 
00030010016000000000000000000000000000000000000000000000000000000000000000000000000000000000000000000          BALLOTS CAST - BLANK                                    BALLOTS CAST - BLANK                  Nogales 16                                             00 
00030010017000001000000000000000001000000000000000000000000000000000000000000000000000000000000000000          BALLOTS CAST - BLANK                                    BALLOTS CAST - BLANK                  Calabasas 17                                           00 
00030010018000000000000000000000000000000000000000000000000000000000000000000000000000000000000000000          BALLOTS CAST - BLANK                                    BALLOTS CAST - BLANK                  Nogales 18                                             00 
00030010019000002000001000001000000000000000000000000000000000000000000000000000000000000000000000000          BALLOTS CAST - BLANK                                    BALLOTS CAST - BLANK                  Baca 19                                                00 
00030010020000000000000000000000000000000000000000000000000000000000000000000000000000000000000000000          BALLOTS CAST - BLANK                                    BALLOTS CAST - BLANK                  Nogales 20                                             00 
00030010021000000000000000000000000000000000000000000000000000000000000000000000000000000000000000000          BALLOTS CAST - BLANK                                    BALLOTS CAST - BLANK                  Peck Canyon 21                                         00 
00030010022000000000000000000000000000000000000000000000000000000000000000000000000000000000000000000          BALLOTS CAST - BLANK                                    BALLOTS CAST - BLANK                  Potrero 22                                             00 
00030010023000000000000000000000000000000000000000000000000000000000000000000000000000000000000000000          BALLOTS CAST - BLANK                                    BALLOTS CAST - BLANK                  Mountain 23                                            00 
00030010024000000000000000000000000000000000000000000000000000000000000000000000000000000000000000000          BALLOTS CAST - BLANK                                    BALLOTS CAST - BLANK                  Lake Patagonia 24                                      00 
03020010001000276000087000164000025000000000000000000000000000000000000000000000000000000000000000000DEM       Presidential Electors                                   CLINTON, KAINE                        Nogales 1                                              01 
03020010002000665000220000376000069000000000000000000000000000000000000000000000000000000000000000000DEM       Presidential Electors                                   CLINTON, KAINE                        Nogales 2                                              01 
03020010003000397000119000244000034000000000000000000000000000000000000000000000000000000000000000000DEM       Presidential Electors                                   CLINTON, KAINE                        Nogales 3                                              01 
03020010004000210000069000127000014000000000000000000000000000000000000000000000000000000000000000000DEM       Presidential Electors                                   CLINTON, KAINE                        Nogales 4                                              01 
03020010005000550000168000347000035000000000000000000000000000000000000000000000000000000000000000000DEM       Presidential Electors                                   CLINTON, KAINE                        Coronado 5                                             01 
03020010006000177000024000152000001000000000000000000000000000000000000000000000000000000000000000000DEM       Presidential Electors                                   CLINTON, KAINE                        Elgin 6                                                01 
03020010007001292000330000872000090000000000000000000000000000000000000000000000000000000000000000000DEM       Presidential Electors                                   CLINTON, KAINE                        Rio Rico 7                                             01 
03020010008001051000335000618000098000000000000000000000000000000000000000000000000000000000000000000DEM       Presidential Electors                                   CLINTON, KAINE                        Nogales 8                                              01 
03020010009000158000053000092000013000000000000000000000000000000000000000000000000000000000000000000DEM       Presidential Electors                                   CLINTON, KAINE                        Nogales 9                                              01 
03020010010000475000132000288000055000000000000000000000000000000000000000000000000000000000000000000DEM       Presidential Electors                                   CLINTON, KAINE                        Nogales 10                                             01 
03020010011000716000153000538000025000000000000000000000000000000000000000000000000000000000000000000DEM       Presidential Electors                                   CLINTON, KAINE                        Tubac 11                                               01 
03020010012000287000099000151000037000000000000000000000000000000000000000000000000000000000000000000DEM       Presidential Electors                                   CLINTON, KAINE                        Nogales 12                                             01 
03020010013000169000057000098000014000000000000000000000000000000000000000000000000000000000000000000DEM       Presidential Electors                                   CLINTON, KAINE                        Santa Cruz 13                                          01 
03020010014000398000113000271000014000000000000000000000000000000000000000000000000000000000000000000DEM       Presidential Electors                                   CLINTON, KAINE                        Patagonia 14                                           01 
03020010015000245000047000193000005000000000000000000000000000000000000000000000000000000000000000000DEM       Presidential Electors                                   CLINTON, KAINE                        Sonoita 15                                             01 
03020010016000213000077000104000032000000000000000000000000000000000000000000000000000000000000000000DEM       Presidential Electors                                   CLINTON, KAINE                        Nogales 16                                             01 
03020010017001313000399000795000119000000000000000000000000000000000000000000000000000000000000000000DEM       Presidential Electors                                   CLINTON, KAINE                        Calabasas 17                                           01 
03020010018000328000090000205000033000000000000000000000000000000000000000000000000000000000000000000DEM       Presidential Electors                                   CLINTON, KAINE                        Nogales 18                                             01 
03020010019001084000284000686000114000000000000000000000000000000000000000000000000000000000000000000DEM       Presidential Electors                                   CLINTON, KAINE                        Baca 19                                                01 
03020010020000521000177000292000052000000000000000000000000000000000000000000000000000000000000000000DEM       Presidential Electors                                   CLINTON, KAINE                        Nogales 20                                             01 
03020010021000816000271000448000097000000000000000000000000000000000000000000000000000000000000000000DEM       Presidential Electors                                   CLINTON, KAINE                        Peck Canyon 21                                         01 
03020010022000268000075000164000029000000000000000000000000000000000000000000000000000000000000000000DEM       Presidential Electors                                   CLINTON, KAINE                        Potrero 22                                             01 
03020010023000018000003000015000000000000000000000000000000000000000000000000000000000000000000000000DEM       Presidential Electors                                   CLINTON, KAINE                        Mountain 23                                            01 
03020010024000063000003000059000001000000000000000000000000000000000000000000000000000000000000000000DEM       Presidential Electors                                   CLINTON, KAINE                        Lake Patagonia 24                                      01 
03020020001000031000008000021000002000000000000000000000000000000000000000000000000000000000000000000REP       Presidential Electors                                   TRUMP, PENCE                          Nogales 1                                              01 
03020020002000091000021000064000006000000000000000000000000000000000000000000000000000000000000000000REP       Presidential Electors                                   TRUMP, PENCE                          Nogales 2                                              01 
03020020003000069000019000046000004000000000000000000000000000000000000000000000000000000000000000000REP       Presidential Electors                                   TRUMP, PENCE                          Nogales 3                                              01 
03020020004000039000012000025000002000000000000000000000000000000000000000000000000000000000000000000REP       Presidential Electors                                   TRUMP, PENCE                          Nogales 4                                              01 
03020020005000113000035000069000009000000000000000000000000000000000000000000000000000000000000000000REP       Presidential Electors                                   TRUMP, PENCE                          Coronado 5                                             01 
03020020006000296000086000201000009000000000000000000000000000000000000000000000000000000000000000000REP       Presidential Electors                                   TRUMP, PENCE                          Elgin 6                                                01 
03020020007000691000171000484000036000000000000000000000000000000000000000000000000000000000000000000REP       Presidential Electors                                   TRUMP, PENCE                          Rio Rico 7                                             01 
03020020008000093000033000058000002000000000000000000000000000000000000000000000000000000000000000000REP       Presidential Electors                                   TRUMP, PENCE                          Nogales 8                                              01 
03020020009000056000017000037000002000000000000000000000000000000000000000000000000000000000000000000REP       Presidential Electors                                   TRUMP, PENCE                          Nogales 9                                              01 
03020020010000083000024000050000009000000000000000000000000000000000000000000000000000000000000000000REP       Presidential Electors                                   TRUMP, PENCE                          Nogales 10                                             01 
03020020011000502000118000360000024000000000000000000000000000000000000000000000000000000000000000000REP       Presidential Electors                                   TRUMP, PENCE                          Tubac 11                                               01 
03020020012000036000010000021000005000000000000000000000000000000000000000000000000000000000000000000REP       Presidential Electors                                   TRUMP, PENCE                          Nogales 12                                             01 
03020020013000088000031000048000009000000000000000000000000000000000000000000000000000000000000000000REP       Presidential Electors                                   TRUMP, PENCE                          Santa Cruz 13                                          01 
03020020014000215000081000125000009000000000000000000000000000000000000000000000000000000000000000000REP       Presidential Electors                                   TRUMP, PENCE                          Patagonia 14                                           01 
03020020015000425000147000257000021000000000000000000000000000000000000000000000000000000000000000000REP       Presidential Electors                                   TRUMP, PENCE                          Sonoita 15                                             01 
03020020016000036000009000025000002000000000000000000000000000000000000000000000000000000000000000000REP       Presidential Electors                                   TRUMP, PENCE                          Nogales 16                                             01 
03020020017000318000087000200000031000000000000000000000000000000000000000000000000000000000000000000REP       Presidential Electors                                   TRUMP, PENCE                          Calabasas 17                                           01 
03020020018000093000037000050000006000000000000000000000000000000000000000000000000000000000000000000REP       Presidential Electors                                   TRUMP, PENCE                          Nogales 18                                             01 
03020020019000233000068000142000023000000000000000000000000000000000000000000000000000000000000000000REP       Presidential Electors                                   TRUMP, PENCE                          Baca 19                                                01 
03020020020000079000024000047000008000000000000000000000000000000000000000000000000000000000000000000REP       Presidential Electors                                   TRUMP, PENCE                          Nogales 20                                             01 
03020020021000211000050000138000023000000000000000000000000000000000000000000000000000000000000000000REP       Presidential Electors                                   TRUMP, PENCE                          Peck Canyon 21                                         01 
03020020022000027000007000016000004000000000000000000000000000000000000000000000000000000000000000000REP       Presidential Electors                                   TRUMP, PENCE                          Potrero 22                                             01 
03020020023000026000005000020000001000000000000000000000000000000000000000000000000000000000000000000REP       Presidential Electors                                   TRUMP, PENCE                          Mountain 23                                            01 
03020020024000046000012000034000000000000000000000000000000000000000000000000000000000000000000000000REP       Presidential Electors                                   TRUMP, PENCE                          Lake Patagonia 24                                      01 
03020030001000010000003000007000000000000000000000000000000000000000000000000000000000000000000000000LBT       Presidential Electors                                   JOHNSON, WELD                         Nogales 1                                              01 
03020030002000024000005000015000004000000000000000000000000000000000000000000000000000000000000000000LBT       Presidential Electors                                   JOHNSON, WELD                         Nogales 2                                              01 
03020030003000011000001000010000000000000000000000000000000000000000000000000000000000000000000000000LBT       Presidential Electors                                   JOHNSON, WELD                         Nogales 3                                              01 
03020030004000001000001000000000000000000000000000000000000000000000000000000000000000000000000000000LBT       Presidential Electors                                   JOHNSON, WELD                         Nogales 4                                              01 
03020030005000016000004000011000001000000000000000000000000000000000000000000000000000000000000000000LBT       Presidential Electors                                   JOHNSON, WELD                         Coronado 5                                             01 
03020030006000016000002000012000002000000000000000000000000000000000000000000000000000000000000000000LBT       Presidential Electors                                   JOHNSON, WELD                         Elgin 6                                                01 
03020030007000062000016000041000005000000000000000000000000000000000000000000000000000000000000000000LBT       Presidential Electors                                   JOHNSON, WELD                         Rio Rico 7                                             01 
03020030008000020000011000007000002000000000000000000000000000000000000000000000000000000000000000000LBT       Presidential Electors                                   JOHNSON, WELD                         Nogales 8                                              01 
03020030009000007000003000004000000000000000000000000000000000000000000000000000000000000000000000000LBT       Presidential Electors                                   JOHNSON, WELD                         Nogales 9                                              01 
03020030010000015000001000014000000000000000000000000000000000000000000000000000000000000000000000000LBT       Presidential Electors                                   JOHNSON, WELD                         Nogales 10                                             01 
03020030011000030000007000023000000000000000000000000000000000000000000000000000000000000000000000000LBT       Presidential Electors                                   JOHNSON, WELD                         Tubac 11                                               01 
03020030012000007000001000004000002000000000000000000000000000000000000000000000000000000000000000000LBT       Presidential Electors                                   JOHNSON, WELD                         Nogales 12                                             01 
03020030013000013000009000002000002000000000000000000000000000000000000000000000000000000000000000000LBT       Presidential Electors                                   JOHNSON, WELD                         Santa Cruz 13                                          01 
03020030014000023000007000015000001000000000000000000000000000000000000000000000000000000000000000000LBT       Presidential Electors                                   JOHNSON, WELD                         Patagonia 14                                           01 
03020030015000020000005000015000000000000000000000000000000000000000000000000000000000000000000000000LBT       Presidential Electors                                   JOHNSON, WELD                         Sonoita 15                                             01 
03020030016000004000000000004000000000000000000000000000000000000000000000000000000000000000000000000LBT       Presidential Electors                                   JOHNSON, WELD                         Nogales 16                                             01 
03020030017000050000009000036000005000000000000000000000000000000000000000000000000000000000000000000LBT       Presidential Electors                                   JOHNSON, WELD                         Calabasas 17                                           01 
03020030018000008000004000002000002000000000000000000000000000000000000000000000000000000000000000000LBT       Presidential Electors                                   JOHNSON, WELD                         Nogales 18                                             01 
03020030019000037000013000021000003000000000000000000000000000000000000000000000000000000000000000000LBT       Presidential Electors                                   JOHNSON, WELD                         Baca 19                                                01 
03020030020000015000004000011000000000000000000000000000000000000000000000000000000000000000000000000LBT       Presidential Electors                                   JOHNSON, WELD                         Nogales 20                                             01 
03020030021000031000012000012000007000000000000000000000000000000000000000000000000000000000000000000LBT       Presidential Electors                                   JOHNSON, WELD                         Peck Canyon 21                                         01 
03020030022000003000001000001000001000000000000000000000000000000000000000000000000000000000000000000LBT       Presidential Electors                                   JOHNSON, WELD                         Potrero 22                                             01 
03020030023000002000000000002000000000000000000000000000000000000000000000000000000000000000000000000LBT       Presidential Electors                                   JOHNSON, WELD                         Mountain 23                                            01 
03020030024000007000002000005000000000000000000000000000000000000000000000000000000000000000000000000LBT       Presidential Electors                                   JOHNSON, WELD                         Lake Patagonia 24                                      01 
03020040001000002000001000000000001000000000000000000000000000000000000000000000000000000000000000000GRN       Presidential Electors                                   STEIN, BARAKA                         Nogales 1                                              01 
03020040002000013000004000007000002000000000000000000000000000000000000000000000000000000000000000000GRN       Presidential Electors                                   STEIN, BARAKA                         Nogales 2                                              01 
03020040003000002000001000000000001000000000000000000000000000000000000000000000000000000000000000000GRN       Presidential Electors                                   STEIN, BARAKA                         Nogales 3                                              01 
03020040004000005000003000002000000000000000000000000000000000000000000000000000000000000000000000000GRN       Presidential Electors                                   STEIN, BARAKA                         Nogales 4                                              01 
03020040005000006000002000004000000000000000000000000000000000000000000000000000000000000000000000000GRN       Presidential Electors                                   STEIN, BARAKA                         Coronado 5                                             01 
03020040006000001000000000001000000000000000000000000000000000000000000000000000000000000000000000000GRN       Presidential Electors                                   STEIN, BARAKA                         Elgin 6                                                01 
03020040007000047000004000040000003000000000000000000000000000000000000000000000000000000000000000000GRN       Presidential Electors                                   STEIN, BARAKA                         Rio Rico 7                                             01 
03020040008000014000004000009000001000000000000000000000000000000000000000000000000000000000000000000GRN       Presidential Electors                                   STEIN, BARAKA                         Nogales 8                                              01 
03020040009000000000000000000000000000000000000000000000000000000000000000000000000000000000000000000GRN       Presidential Electors                                   STEIN, BARAKA                         Nogales 9                                              01 
03020040010000008000001000006000001000000000000000000000000000000000000000000000000000000000000000000GRN       Presidential Electors                                   STEIN, BARAKA                         Nogales 10                                             01 
03020040011000014000001000012000001000000000000000000000000000000000000000000000000000000000000000000GRN       Presidential Electors                                   STEIN, BARAKA                         Tubac 11                                               01 
03020040012000006000002000003000001000000000000000000000000000000000000000000000000000000000000000000GRN       Presidential Electors                                   STEIN, BARAKA                         Nogales 12                                             01 
03020040013000004000000000004000000000000000000000000000000000000000000000000000000000000000000000000GRN       Presidential Electors                                   STEIN, BARAKA                         Santa Cruz 13                                          01 
03020040014000014000003000010000001000000000000000000000000000000000000000000000000000000000000000000GRN       Presidential Electors                                   STEIN, BARAKA                         Patagonia 14                                           01 
03020040015000008000002000006000000000000000000000000000000000000000000000000000000000000000000000000GRN       Presidential Electors                                   STEIN, BARAKA                         Sonoita 15                                             01 
03020040016000003000000000003000000000000000000000000000000000000000000000000000000000000000000000000GRN       Presidential Electors                                   STEIN, BARAKA                         Nogales 16                                             01 
03020040017000028000008000015000005000000000000000000000000000000000000000000000000000000000000000000GRN       Presidential Electors                                   STEIN, BARAKA                         Calabasas 17                                           01 
03020040018000008000002000004000002000000000000000000000000000000000000000000000000000000000000000000GRN       Presidential Electors                                   STEIN, BARAKA                         Nogales 18                                             01 
03020040019000017000008000006000003000000000000000000000000000000000000000000000000000000000000000000GRN       Presidential Electors                                   STEIN, BARAKA                         Baca 19                                                01 
03020040020000007000004000003000000000000000000000000000000000000000000000000000000000000000000000000GRN       Presidential Electors                                   STEIN, BARAKA                         Nogales 20                                             01 
03020040021000012000004000007000001000000000000000000000000000000000000000000000000000000000000000000GRN       Presidential Electors                                   STEIN, BARAKA                         Peck Canyon 21                                         01 
03020040022000002000000000001000001000000000000000000000000000000000000000000000000000000000000000000GRN       Presidential Electors                                   STEIN, BARAKA                         Potrero 22                                             01 
03020040023000000000000000000000000000000000000000000000000000000000000000000000000000000000000000000GRN       Presidential Electors                                   STEIN, BARAKA                         Mountain 23                                            01 
03020040024000000000000000000000000000000000000000000000000000000000000000000000000000000000000000000GRN       Presidential Electors                                   STEIN, BARAKA                         Lake Patagonia 24                                      01 
03020050001000002000000000001000001000000000000000000000000000000000000000000000000000000000000000000NON       Presidential Electors                                   WRITE-IN                              Nogales 1                                              01 
03020050002000012000003000008000001000000000000000000000000000000000000000000000000000000000000000000NON       Presidential Electors                                   WRITE-IN                              Nogales 2                                              01 
03020050003000003000003000000000000000000000000000000000000000000000000000000000000000000000000000000NON       Presidential Electors                                   WRITE-IN                              Nogales 3                                              01 
03020050004000001000001000000000000000000000000000000000000000000000000000000000000000000000000000000NON       Presidential Electors                                   WRITE-IN                              Nogales 4                                              01 
03020050005000008000002000006000000000000000000000000000000000000000000000000000000000000000000000000NON       Presidential Electors                                   WRITE-IN                              Coronado 5                                             01 
03020050006000007000001000006000000000000000000000000000000000000000000000000000000000000000000000000NON       Presidential Electors                                   WRITE-IN                              Elgin 6                                                01 
03020050007000035000013000019000003000000000000000000000000000000000000000000000000000000000000000000NON       Presidential Electors                                   WRITE-IN                              Rio Rico 7                                             01 
03020050008000016000005000010000001000000000000000000000000000000000000000000000000000000000000000000NON       Presidential Electors                                   WRITE-IN                              Nogales 8                                              01 
03020050009000001000001000000000000000000000000000000000000000000000000000000000000000000000000000000NON       Presidential Electors                                   WRITE-IN                              Nogales 9                                              01 
03020050010000006000002000002000002000000000000000000000000000000000000000000000000000000000000000000NON       Presidential Electors                                   WRITE-IN                              Nogales 10                                             01 
03020050011000013000005000008000000000000000000000000000000000000000000000000000000000000000000000000NON       Presidential Electors                                   WRITE-IN                              Tubac 11                                               01 
03020050012000001000000000001000000000000000000000000000000000000000000000000000000000000000000000000NON       Presidential Electors                                   WRITE-IN                              Nogales 12                                             01 
03020050013000003000001000002000000000000000000000000000000000000000000000000000000000000000000000000NON       Presidential Electors                                   WRITE-IN                              Santa Cruz 13                                          01 
03020050014000005000000000004000001000000000000000000000000000000000000000000000000000000000000000000NON       Presidential Electors                                   WRITE-IN                              Patagonia 14                                           01 
03020050015000009000007000002000000000000000000000000000000000000000000000000000000000000000000000000NON       Presidential Electors                                   WRITE-IN                              Sonoita 15                                             01 
03020050016000004000001000002000001000000000000000000000000000000000000000000000000000000000000000000NON       Presidential Electors                                   WRITE-IN                              Nogales 16                                             01 
03020050017000021000009000011000001000000000000000000000000000000000000000000000000000000000000000000NON       Presidential Electors                                   WRITE-IN                              Calabasas 17                                           01 
03020050018000001000000000001000000000000000000000000000000000000000000000000000000000000000000000000NON       Presidential Electors                                   WRITE-IN                              Nogales 18                                             01 
03020050019000018000003000013000002000000000000000000000000000000000000000000000000000000000000000000NON       Presidential Electors                                   WRITE-IN                              Baca 19                                                01 
03020050020000006000004000001000001000000000000000000000000000000000000000000000000000000000000000000NON       Presidential Electors                                   WRITE-IN                              Nogales 20                                             01 
03020050021000018000004000013000001000000000000000000000000000000000000000000000000000000000000000000NON       Presidential Electors                                   WRITE-IN                              Peck Canyon 21                                         01 
03020050022000000000000000000000000000000000000000000000000000000000000000000000000000000000000000000NON       Presidential Electors                                   WRITE-IN                              Potrero 22                                             01 
03020050023000000000000000000000000000000000000000000000000000000000000000000000000000000000000000000NON       Presidential Electors                                   WRITE-IN                              Mountain 23                                            01 
03020050024000003000000000003000000000000000000000000000000000000000000000000000000000000000000000000NON       Presidential Electors                                   WRITE-IN                              Lake Patagonia 24                                      01 
03020060001000000000000000000000000000000000000000000000000000000000000000000000000000000000000000000          Presidential Electors                                   OVER VOTES                            Nogales 1                                              01 
03020060002000009000004000003000002000000000000000000000000000000000000000000000000000000000000000000          Presidential Electors                                   OVER VOTES                            Nogales 2                                              01 
03020060003000001000000000001000000000000000000000000000000000000000000000000000000000000000000000000          Presidential Electors                                   OVER VOTES                            Nogales 3                                              01 
03020060004000001000000000001000000000000000000000000000000000000000000000000000000000000000000000000          Presidential Electors                                   OVER VOTES                            Nogales 4                                              01 
03020060005000002000001000001000000000000000000000000000000000000000000000000000000000000000000000000          Presidential Electors                                   OVER VOTES                            Coronado 5                                             01 
03020060006000000000000000000000000000000000000000000000000000000000000000000000000000000000000000000          Presidential Electors                                   OVER VOTES                            Elgin 6                                                01 
03020060007000014000008000005000001000000000000000000000000000000000000000000000000000000000000000000          Presidential Electors                                   OVER VOTES                            Rio Rico 7                                             01 
03020060008000008000006000002000000000000000000000000000000000000000000000000000000000000000000000000          Presidential Electors                                   OVER VOTES                            Nogales 8                                              01 
03020060009000000000000000000000000000000000000000000000000000000000000000000000000000000000000000000          Presidential Electors                                   OVER VOTES                            Nogales 9                                              01 
03020060010000004000000000003000001000000000000000000000000000000000000000000000000000000000000000000          Presidential Electors                                   OVER VOTES                            Nogales 10                                             01 
03020060011000003000001000000000002000000000000000000000000000000000000000000000000000000000000000000          Presidential Electors                                   OVER VOTES                            Tubac 11                                               01 
03020060012000000000000000000000000000000000000000000000000000000000000000000000000000000000000000000          Presidential Electors                                   OVER VOTES                            Nogales 12                                             01 
03020060013000002000001000001000000000000000000000000000000000000000000000000000000000000000000000000          Presidential Electors                                   OVER VOTES                            Santa Cruz 13                                          01 
03020060014000002000001000001000000000000000000000000000000000000000000000000000000000000000000000000          Presidential Electors                                   OVER VOTES                            Patagonia 14                                           01 
03020060015000002000001000000000001000000000000000000000000000000000000000000000000000000000000000000          Presidential Electors                                   OVER VOTES                            Sonoita 15                                             01 
03020060016000001000000000000000001000000000000000000000000000000000000000000000000000000000000000000          Presidential Electors                                   OVER VOTES                            Nogales 16                                             01 
03020060017000010000005000004000001000000000000000000000000000000000000000000000000000000000000000000          Presidential Electors                                   OVER VOTES                            Calabasas 17                                           01 
03020060018000004000002000002000000000000000000000000000000000000000000000000000000000000000000000000          Presidential Electors                                   OVER VOTES                            Nogales 18                                             01 
03020060019000009000003000004000002000000000000000000000000000000000000000000000000000000000000000000          Presidential Electors                                   OVER VOTES                            Baca 19                                                01 
03020060020000007000005000001000001000000000000000000000000000000000000000000000000000000000000000000          Presidential Electors                                   OVER VOTES                            Nogales 20                                             01 
03020060021000008000003000002000003000000000000000000000000000000000000000000000000000000000000000000          Presidential Electors                                   OVER VOTES                            Peck Canyon 21                                         01 
03020060022000001000000000001000000000000000000000000000000000000000000000000000000000000000000000000          Presidential Electors                                   OVER VOTES                            Potrero 22                                             01 
03020060023000000000000000000000000000000000000000000000000000000000000000000000000000000000000000000          Presidential Electors                                   OVER VOTES                            Mountain 23                                            01 
03020060024000000000000000000000000000000000000000000000000000000000000000000000000000000000000000000          Presidential Electors                                   OVER VOTES                            Lake Patagonia 24                                      01 
03020070001000008000000000008000000000000000000000000000000000000000000000000000000000000000000000000          Presidential Electors                                   UNDER VOTES                           Nogales 1                                              01 
03020070002000013000003000009000001000000000000000000000000000000000000000000000000000000000000000000          Presidential Electors                                   UNDER VOTES                           Nogales 2                                              01 
03020070003000013000002000010000001000000000000000000000000000000000000000000000000000000000000000000          Presidential Electors                                   UNDER VOTES                           Nogales 3                                              01 
03020070004000006000001000003000002000000000000000000000000000000000000000000000000000000000000000000          Presidential Electors                                   UNDER VOTES                           Nogales 4                                              01 
03020070005000004000000000002000002000000000000000000000000000000000000000000000000000000000000000000          Presidential Electors                                   UNDER VOTES                           Coronado 5                                             01 
03020070006000006000002000004000000000000000000000000000000000000000000000000000000000000000000000000          Presidential Electors                                   UNDER VOTES                           Elgin 6                                                01 
03020070007000022000004000018000000000000000000000000000000000000000000000000000000000000000000000000          Presidential Electors                                   UNDER VOTES                           Rio Rico 7                                             01 
03020070008000024000007000012000005000000000000000000000000000000000000000000000000000000000000000000          Presidential Electors                                   UNDER VOTES                           Nogales 8                                              01 
03020070009000003000003000000000000000000000000000000000000000000000000000000000000000000000000000000          Presidential Electors                                   UNDER VOTES                           Nogales 9                                              01 
03020070010000011000003000008000000000000000000000000000000000000000000000000000000000000000000000000          Presidential Electors                                   UNDER VOTES                           Nogales 10                                             01 
03020070011000016000006000010000000000000000000000000000000000000000000000000000000000000000000000000          Presidential Electors                                   UNDER VOTES                           Tubac 11                                               01 
03020070012000008000003000005000000000000000000000000000000000000000000000000000000000000000000000000          Presidential Electors                                   UNDER VOTES                           Nogales 12                                             01 
03020070013000008000005000002000001000000000000000000000000000000000000000000000000000000000000000000          Presidential Electors                                   UNDER VOTES                           Santa Cruz 13                                          01 
03020070014000015000007000008000000000000000000000000000000000000000000000000000000000000000000000000          Presidential Electors                                   UNDER VOTES                           Patagonia 14                                           01 
03020070015000008000004000003000001000000000000000000000000000000000000000000000000000000000000000000          Presidential Electors                                   UNDER VOTES                           Sonoita 15                                             01 
03020070016000009000005000004000000000000000000000000000000000000000000000000000000000000000000000000          Presidential Electors                                   UNDER VOTES                           Nogales 16                                             01 
03020070017000021000007000010000004000000000000000000000000000000000000000000000000000000000000000000          Presidential Electors                                   UNDER VOTES                           Calabasas 17                                           01 
03020070018000006000001000005000000000000000000000000000000000000000000000000000000000000000000000000          Presidential Electors                                   UNDER VOTES                           Nogales 18                                             01 
03020070019000018000005000011000002000000000000000000000000000000000000000000000000000000000000000000          Presidential Electors                                   UNDER VOTES                           Baca 19                                                01 
03020070020000013000002000008000003000000000000000000000000000000000000000000000000000000000000000000          Presidential Electors                                   UNDER VOTES                           Nogales 20                                             01 
03020070021000008000004000002000002000000000000000000000000000000000000000000000000000000000000000000          Presidential Electors                                   UNDER VOTES                           Peck Canyon 21                                         01 
03020070022000008000004000002000002000000000000000000000000000000000000000000000000000000000000000000          Presidential Electors                                   UNDER VOTES                           Potrero 22                                             01 
03020070023000000000000000000000000000000000000000000000000000000000000000000000000000000000000000000          Presidential Electors                                   UNDER VOTES                           Mountain 23                                            01 
03020070024000000000000000000000000000000000000000000000000000000000000000000000000000000000000000000          Presidential Electors                                   UNDER VOTES                           Lake Patagonia 24                                      01 
03030010001000224000071000136000017000000000000000000000000000000000000000000000000000000000000000000DEM       U.S. Senator                                            KIRKPATRICK, ANN                      Nogales 1                                              01 
03030010002000554000172000322000060000000000000000000000000000000000000000000000000000000000000000000DEM       U.S. Senator                                            KIRKPATRICK, ANN                      Nogales 2                                              01 
03030010003000326000096000201000029000000000000000000000000000000000000000000000000000000000000000000DEM       U.S. Senator                                            KIRKPATRICK, ANN                      Nogales 3                                              01 
03030010004000172000057000106000009000000000000000000000000000000000000000000000000000000000000000000DEM       U.S. Senator                                            KIRKPATRICK, ANN                      Nogales 4                                              01 
03030010005000412000114000274000024000000000000000000000000000000000000000000000000000000000000000000DEM       U.S. Senator                                            KIRKPATRICK, ANN                      Coronado 5                                             01 
03030010006000169000025000142000002000000000000000000000000000000000000000000000000000000000000000000DEM       U.S. Senator                                            KIRKPATRICK, ANN                      Elgin 6                                                01 
03030010007001099000284000751000064000000000000000000000000000000000000000000000000000000000000000000DEM       U.S. Senator                                            KIRKPATRICK, ANN                      Rio Rico 7                                             01 
03030010008000832000275000487000070000000000000000000000000000000000000000000000000000000000000000000DEM       U.S. Senator                                            KIRKPATRICK, ANN                      Nogales 8                                              01 
03030010009000128000042000074000012000000000000000000000000000000000000000000000000000000000000000000DEM       U.S. Senator                                            KIRKPATRICK, ANN                      Nogales 9                                              01 
03030010010000393000106000241000046000000000000000000000000000000000000000000000000000000000000000000DEM       U.S. Senator                                            KIRKPATRICK, ANN                      Nogales 10                                             01 
03030010011000644000128000496000020000000000000000000000000000000000000000000000000000000000000000000DEM       U.S. Senator                                            KIRKPATRICK, ANN                      Tubac 11                                               01 
03030010012000226000078000120000028000000000000000000000000000000000000000000000000000000000000000000DEM       U.S. Senator                                            KIRKPATRICK, ANN                      Nogales 12                                             01 
03030010013000157000060000081000016000000000000000000000000000000000000000000000000000000000000000000DEM       U.S. Senator                                            KIRKPATRICK, ANN                      Santa Cruz 13                                          01 
03030010014000389000115000262000012000000000000000000000000000000000000000000000000000000000000000000DEM       U.S. Senator                                            KIRKPATRICK, ANN                      Patagonia 14                                           01 
03030010015000254000046000202000006000000000000000000000000000000000000000000000000000000000000000000DEM       U.S. Senator                                            KIRKPATRICK, ANN                      Sonoita 15                                             01 
03030010016000168000048000096000024000000000000000000000000000000000000000000000000000000000000000000DEM       U.S. Senator                                            KIRKPATRICK, ANN                      Nogales 16                                             01 
03030010017001089000328000672000089000000000000000000000000000000000000000000000000000000000000000000DEM       U.S. Senator                                            KIRKPATRICK, ANN                      Calabasas 17                                           01 
03030010018000274000073000170000031000000000000000000000000000000000000000000000000000000000000000000DEM       U.S. Senator                                            KIRKPATRICK, ANN                      Nogales 18                                             01 
03030010019000870000224000550000096000000000000000000000000000000000000000000000000000000000000000000DEM       U.S. Senator                                            KIRKPATRICK, ANN                      Baca 19                                                01 
03030010020000429000146000244000039000000000000000000000000000000000000000000000000000000000000000000DEM       U.S. Senator                                            KIRKPATRICK, ANN                      Nogales 20                                             01 
03030010021000671000221000373000077000000000000000000000000000000000000000000000000000000000000000000DEM       U.S. Senator                                            KIRKPATRICK, ANN                      Peck Canyon 21                                         01 
03030010022000194000052000121000021000000000000000000000000000000000000000000000000000000000000000000DEM       U.S. Senator                                            KIRKPATRICK, ANN                      Potrero 22                                             01 
03030010023000016000002000014000000000000000000000000000000000000000000000000000000000000000000000000DEM       U.S. Senator                                            KIRKPATRICK, ANN                      Mountain 23                                            01 
03030010024000055000003000052000000000000000000000000000000000000000000000000000000000000000000000000DEM       U.S. Senator                                            KIRKPATRICK, ANN                      Lake Patagonia 24                                      01 
03030020001000084000020000056000008000000000000000000000000000000000000000000000000000000000000000000REP       U.S. Senator                                            MCCAIN, JOHN                          Nogales 1                                              01 
03030020002000200000061000122000017000000000000000000000000000000000000000000000000000000000000000000REP       U.S. Senator                                            MCCAIN, JOHN                          Nogales 2                                              01 
03030020003000124000039000077000008000000000000000000000000000000000000000000000000000000000000000000REP       U.S. Senator                                            MCCAIN, JOHN                          Nogales 3                                              01 
03030020004000069000021000043000005000000000000000000000000000000000000000000000000000000000000000000REP       U.S. Senator                                            MCCAIN, JOHN                          Nogales 4                                              01 
03030020005000245000086000141000018000000000000000000000000000000000000000000000000000000000000000000REP       U.S. Senator                                            MCCAIN, JOHN                          Coronado 5                                             01 
03030020006000284000076000198000010000000000000000000000000000000000000000000000000000000000000000000REP       U.S. Senator                                            MCCAIN, JOHN                          Elgin 6                                                01 
03030020007000859000226000569000064000000000000000000000000000000000000000000000000000000000000000000REP       U.S. Senator                                            MCCAIN, JOHN                          Rio Rico 7                                             01 
03030020008000305000094000185000026000000000000000000000000000000000000000000000000000000000000000000REP       U.S. Senator                                            MCCAIN, JOHN                          Nogales 8                                              01 
03030020009000085000028000054000003000000000000000000000000000000000000000000000000000000000000000000REP       U.S. Senator                                            MCCAIN, JOHN                          Nogales 9                                              01 
03030020010000166000048000100000018000000000000000000000000000000000000000000000000000000000000000000REP       U.S. Senator                                            MCCAIN, JOHN                          Nogales 10                                             01 
03030020011000560000130000402000028000000000000000000000000000000000000000000000000000000000000000000REP       U.S. Senator                                            MCCAIN, JOHN                          Tubac 11                                               01 
03030020012000088000026000051000011000000000000000000000000000000000000000000000000000000000000000000REP       U.S. Senator                                            MCCAIN, JOHN                          Nogales 12                                             01 
03030020013000110000040000062000008000000000000000000000000000000000000000000000000000000000000000000REP       U.S. Senator                                            MCCAIN, JOHN                          Santa Cruz 13                                          01 
03030020014000224000075000140000009000000000000000000000000000000000000000000000000000000000000000000REP       U.S. Senator                                            MCCAIN, JOHN                          Patagonia 14                                           01 
03030020015000377000143000216000018000000000000000000000000000000000000000000000000000000000000000000REP       U.S. Senator                                            MCCAIN, JOHN                          Sonoita 15                                             01 
03030020016000072000028000036000008000000000000000000000000000000000000000000000000000000000000000000REP       U.S. Senator                                            MCCAIN, JOHN                          Nogales 16                                             01 
03030020017000551000159000329000063000000000000000000000000000000000000000000000000000000000000000000REP       U.S. Senator                                            MCCAIN, JOHN                          Calabasas 17                                           01 
03030020018000143000048000085000010000000000000000000000000000000000000000000000000000000000000000000REP       U.S. Senator                                            MCCAIN, JOHN                          Nogales 18                                             01 
03030020019000446000125000277000044000000000000000000000000000000000000000000000000000000000000000000REP       U.S. Senator                                            MCCAIN, JOHN                          Baca 19                                                01 
03030020020000160000053000091000016000000000000000000000000000000000000000000000000000000000000000000REP       U.S. Senator                                            MCCAIN, JOHN                          Nogales 20                                             01 
03030020021000334000095000194000045000000000000000000000000000000000000000000000000000000000000000000REP       U.S. Senator                                            MCCAIN, JOHN                          Peck Canyon 21                                         01 
03030020022000078000021000046000011000000000000000000000000000000000000000000000000000000000000000000REP       U.S. Senator                                            MCCAIN, JOHN                          Potrero 22                                             01 
03030020023000022000005000016000001000000000000000000000000000000000000000000000000000000000000000000REP       U.S. Senator                                            MCCAIN, JOHN                          Mountain 23                                            01 
03030020024000049000013000035000001000000000000000000000000000000000000000000000000000000000000000000REP       U.S. Senator                                            MCCAIN, JOHN                          Lake Patagonia 24                                      01 
03030030001000008000003000003000002000000000000000000000000000000000000000000000000000000000000000000GRN       U.S. Senator                                            SWING, GARY                           Nogales 1                                              01 
03030030002000027000011000012000004000000000000000000000000000000000000000000000000000000000000000000GRN       U.S. Senator                                            SWING, GARY                           Nogales 2                                              01 
03030030003000015000001000014000000000000000000000000000000000000000000000000000000000000000000000000GRN       U.S. Senator                                            SWING, GARY                           Nogales 3                                              01 
03030030004000010000005000005000000000000000000000000000000000000000000000000000000000000000000000000GRN       U.S. Senator                                            SWING, GARY                           Nogales 4                                              01 
03030030005000018000005000012000001000000000000000000000000000000000000000000000000000000000000000000GRN       U.S. Senator                                            SWING, GARY                           Coronado 5                                             01 
03030030006000028000008000020000000000000000000000000000000000000000000000000000000000000000000000000GRN       U.S. Senator                                            SWING, GARY                           Elgin 6                                                01 
03030030007000120000015000100000005000000000000000000000000000000000000000000000000000000000000000000GRN       U.S. Senator                                            SWING, GARY                           Rio Rico 7                                             01 
03030030008000028000010000015000003000000000000000000000000000000000000000000000000000000000000000000GRN       U.S. Senator                                            SWING, GARY                           Nogales 8                                              01 
03030030009000003000001000002000000000000000000000000000000000000000000000000000000000000000000000000GRN       U.S. Senator                                            SWING, GARY                           Nogales 9                                              01 
03030030010000016000000000016000000000000000000000000000000000000000000000000000000000000000000000000GRN       U.S. Senator                                            SWING, GARY                           Nogales 10                                             01 
03030030011000035000008000026000001000000000000000000000000000000000000000000000000000000000000000000GRN       U.S. Senator                                            SWING, GARY                           Tubac 11                                               01 
03030030012000009000005000003000001000000000000000000000000000000000000000000000000000000000000000000GRN       U.S. Senator                                            SWING, GARY                           Nogales 12                                             01 
03030030013000009000001000008000000000000000000000000000000000000000000000000000000000000000000000000GRN       U.S. Senator                                            SWING, GARY                           Santa Cruz 13                                          01 
03030030014000032000016000013000003000000000000000000000000000000000000000000000000000000000000000000GRN       U.S. Senator                                            SWING, GARY                           Patagonia 14                                           01 
03030030015000032000010000021000001000000000000000000000000000000000000000000000000000000000000000000GRN       U.S. Senator                                            SWING, GARY                           Sonoita 15                                             01 
03030030016000008000005000002000001000000000000000000000000000000000000000000000000000000000000000000GRN       U.S. Senator                                            SWING, GARY                           Nogales 16                                             01 
03030030017000054000017000032000005000000000000000000000000000000000000000000000000000000000000000000GRN       U.S. Senator                                            SWING, GARY                           Calabasas 17                                           01 
03030030018000016000009000006000001000000000000000000000000000000000000000000000000000000000000000000GRN       U.S. Senator                                            SWING, GARY                           Nogales 18                                             01 
03030030019000040000009000025000006000000000000000000000000000000000000000000000000000000000000000000GRN       U.S. Senator                                            SWING, GARY                           Baca 19                                                01 
03030030020000017000006000009000002000000000000000000000000000000000000000000000000000000000000000000GRN       U.S. Senator                                            SWING, GARY                           Nogales 20                                             01 
03030030021000042000010000027000005000000000000000000000000000000000000000000000000000000000000000000GRN       U.S. Senator                                            SWING, GARY                           Peck Canyon 21                                         01 
03030030022000008000004000002000002000000000000000000000000000000000000000000000000000000000000000000GRN       U.S. Senator                                            SWING, GARY                           Potrero 22                                             01 
03030030023000003000001000002000000000000000000000000000000000000000000000000000000000000000000000000GRN       U.S. Senator                                            SWING, GARY                           Mountain 23                                            01 
03030030024000011000001000010000000000000000000000000000000000000000000000000000000000000000000000000GRN       U.S. Senator                                            SWING, GARY                           Lake Patagonia 24                                      01 
03030040001000000000000000000000000000000000000000000000000000000000000000000000000000000000000000000NON       U.S. Senator                                            WRITE-IN                              Nogales 1                                              01 
03030040002000000000000000000000000000000000000000000000000000000000000000000000000000000000000000000NON       U.S. Senator                                            WRITE-IN                              Nogales 2                                              01 
03030040003000001000000000001000000000000000000000000000000000000000000000000000000000000000000000000NON       U.S. Senator                                            WRITE-IN                              Nogales 3                                              01 
03030040004000000000000000000000000000000000000000000000000000000000000000000000000000000000000000000NON       U.S. Senator                                            WRITE-IN                              Nogales 4                                              01 
03030040005000001000000000001000000000000000000000000000000000000000000000000000000000000000000000000NON       U.S. Senator                                            WRITE-IN                              Coronado 5                                             01 
03030040006000005000001000004000000000000000000000000000000000000000000000000000000000000000000000000NON       U.S. Senator                                            WRITE-IN                              Elgin 6                                                01 
03030040007000004000001000003000000000000000000000000000000000000000000000000000000000000000000000000NON       U.S. Senator                                            WRITE-IN                              Rio Rico 7                                             01 
03030040008000002000000000002000000000000000000000000000000000000000000000000000000000000000000000000NON       U.S. Senator                                            WRITE-IN                              Nogales 8                                              01 
03030040009000000000000000000000000000000000000000000000000000000000000000000000000000000000000000000NON       U.S. Senator                                            WRITE-IN                              Nogales 9                                              01 
03030040010000000000000000000000000000000000000000000000000000000000000000000000000000000000000000000NON       U.S. Senator                                            WRITE-IN                              Nogales 10                                             01 
03030040011000008000005000002000001000000000000000000000000000000000000000000000000000000000000000000NON       U.S. Senator                                            WRITE-IN                              Tubac 11                                               01 
03030040012000000000000000000000000000000000000000000000000000000000000000000000000000000000000000000NON       U.S. Senator                                            WRITE-IN                              Nogales 12                                             01 
03030040013000000000000000000000000000000000000000000000000000000000000000000000000000000000000000000NON       U.S. Senator                                            WRITE-IN                              Santa Cruz 13                                          01 
03030040014000001000000000001000000000000000000000000000000000000000000000000000000000000000000000000NON       U.S. Senator                                            WRITE-IN                              Patagonia 14                                           01 
03030040015000021000003000016000002000000000000000000000000000000000000000000000000000000000000000000NON       U.S. Senator                                            WRITE-IN                              Sonoita 15                                             01 
03030040016000002000000000002000000000000000000000000000000000000000000000000000000000000000000000000NON       U.S. Senator                                            WRITE-IN                              Nogales 16                                             01 
03030040017000004000000000003000001000000000000000000000000000000000000000000000000000000000000000000NON       U.S. Senator                                            WRITE-IN                              Calabasas 17                                           01 
03030040018000000000000000000000000000000000000000000000000000000000000000000000000000000000000000000NON       U.S. Senator                                            WRITE-IN                              Nogales 18                                             01 
03030040019000005000002000003000000000000000000000000000000000000000000000000000000000000000000000000NON       U.S. Senator                                            WRITE-IN                              Baca 19                                                01 
03030040020000001000000000001000000000000000000000000000000000000000000000000000000000000000000000000NON       U.S. Senator                                            WRITE-IN                              Nogales 20                                             01 
03030040021000005000002000003000000000000000000000000000000000000000000000000000000000000000000000000NON       U.S. Senator                                            WRITE-IN                              Peck Canyon 21                                         01 
03030040022000000000000000000000000000000000000000000000000000000000000000000000000000000000000000000NON       U.S. Senator                                            WRITE-IN                              Potrero 22                                             01 
03030040023000002000000000002000000000000000000000000000000000000000000000000000000000000000000000000NON       U.S. Senator                                            WRITE-IN                              Mountain 23                                            01 
03030040024000000000000000000000000000000000000000000000000000000000000000000000000000000000000000000NON       U.S. Senator                                            WRITE-IN                              Lake Patagonia 24                                      01 
03030050001000002000001000000000001000000000000000000000000000000000000000000000000000000000000000000          U.S. Senator                                            OVER VOTES                            Nogales 1                                              01 
03030050002000000000000000000000000000000000000000000000000000000000000000000000000000000000000000000          U.S. Senator                                            OVER VOTES                            Nogales 2                                              01 
03030050003000001000000000001000000000000000000000000000000000000000000000000000000000000000000000000          U.S. Senator                                            OVER VOTES                            Nogales 3                                              01 
03030050004000000000000000000000000000000000000000000000000000000000000000000000000000000000000000000          U.S. Senator                                            OVER VOTES                            Nogales 4                                              01 
03030050005000001000000000001000000000000000000000000000000000000000000000000000000000000000000000000          U.S. Senator                                            OVER VOTES                            Coronado 5                                             01 
03030050006000000000000000000000000000000000000000000000000000000000000000000000000000000000000000000          U.S. Senator                                            OVER VOTES                            Elgin 6                                                01 
03030050007000001000000000000000001000000000000000000000000000000000000000000000000000000000000000000          U.S. Senator                                            OVER VOTES                            Rio Rico 7                                             01 
03030050008000002000002000000000000000000000000000000000000000000000000000000000000000000000000000000          U.S. Senator                                            OVER VOTES                            Nogales 8                                              01 
03030050009000000000000000000000000000000000000000000000000000000000000000000000000000000000000000000          U.S. Senator                                            OVER VOTES                            Nogales 9                                              01 
03030050010000000000000000000000000000000000000000000000000000000000000000000000000000000000000000000          U.S. Senator                                            OVER VOTES                            Nogales 10                                             01 
03030050011000000000000000000000000000000000000000000000000000000000000000000000000000000000000000000          U.S. Senator                                            OVER VOTES                            Tubac 11                                               01 
03030050012000001000000000001000000000000000000000000000000000000000000000000000000000000000000000000          U.S. Senator                                            OVER VOTES                            Nogales 12                                             01 
03030050013000000000000000000000000000000000000000000000000000000000000000000000000000000000000000000          U.S. Senator                                            OVER VOTES                            Santa Cruz 13                                          01 
03030050014000000000000000000000000000000000000000000000000000000000000000000000000000000000000000000          U.S. Senator                                            OVER VOTES                            Patagonia 14                                           01 
03030050015000000000000000000000000000000000000000000000000000000000000000000000000000000000000000000          U.S. Senator                                            OVER VOTES                            Sonoita 15                                             01 
03030050016000002000002000000000000000000000000000000000000000000000000000000000000000000000000000000          U.S. Senator                                            OVER VOTES                            Nogales 16                                             01 
03030050017000003000001000002000000000000000000000000000000000000000000000000000000000000000000000000          U.S. Senator                                            OVER VOTES                            Calabasas 17                                           01 
03030050018000000000000000000000000000000000000000000000000000000000000000000000000000000000000000000          U.S. Senator                                            OVER VOTES                            Nogales 18                                             01 
03030050019000001000001000000000000000000000000000000000000000000000000000000000000000000000000000000          U.S. Senator                                            OVER VOTES                            Baca 19                                                01 
03030050020000004000002000002000000000000000000000000000000000000000000000000000000000000000000000000          U.S. Senator                                            OVER VOTES                            Nogales 20                                             01 
03030050021000002000001000001000000000000000000000000000000000000000000000000000000000000000000000000          U.S. Senator                                            OVER VOTES                            Peck Canyon 21                                         01 
03030050022000001000001000000000000000000000000000000000000000000000000000000000000000000000000000000          U.S. Senator                                            OVER VOTES                            Potrero 22                                             01 
03030050023000000000000000000000000000000000000000000000000000000000000000000000000000000000000000000          U.S. Senator                                            OVER VOTES                            Mountain 23                                            01 
03030050024000000000000000000000000000000000000000000000000000000000000000000000000000000000000000000          U.S. Senator                                            OVER VOTES                            Lake Patagonia 24                                      01 
03030060001000011000004000006000001000000000000000000000000000000000000000000000000000000000000000000          U.S. Senator                                            UNDER VOTES                           Nogales 1                                              01 
03030060002000046000016000026000004000000000000000000000000000000000000000000000000000000000000000000          U.S. Senator                                            UNDER VOTES                           Nogales 2                                              01 
03030060003000029000009000017000003000000000000000000000000000000000000000000000000000000000000000000          U.S. Senator                                            UNDER VOTES                           Nogales 3                                              01 
03030060004000012000004000004000004000000000000000000000000000000000000000000000000000000000000000000          U.S. Senator                                            UNDER VOTES                           Nogales 4                                              01 
03030060005000022000007000011000004000000000000000000000000000000000000000000000000000000000000000000          U.S. Senator                                            UNDER VOTES                           Coronado 5                                             01 
03030060006000017000005000012000000000000000000000000000000000000000000000000000000000000000000000000          U.S. Senator                                            UNDER VOTES                           Elgin 6                                                01 
03030060007000080000020000056000004000000000000000000000000000000000000000000000000000000000000000000          U.S. Senator                                            UNDER VOTES                           Rio Rico 7                                             01 
03030060008000057000020000027000010000000000000000000000000000000000000000000000000000000000000000000          U.S. Senator                                            UNDER VOTES                           Nogales 8                                              01 
03030060009000009000006000003000000000000000000000000000000000000000000000000000000000000000000000000          U.S. Senator                                            UNDER VOTES                           Nogales 9                                              01 
03030060010000027000009000014000004000000000000000000000000000000000000000000000000000000000000000000          U.S. Senator                                            UNDER VOTES                           Nogales 10                                             01 
03030060011000047000020000025000002000000000000000000000000000000000000000000000000000000000000000000          U.S. Senator                                            UNDER VOTES                           Tubac 11                                               01 
03030060012000021000006000010000005000000000000000000000000000000000000000000000000000000000000000000          U.S. Senator                                            UNDER VOTES                           Nogales 12                                             01 
03030060013000011000003000006000002000000000000000000000000000000000000000000000000000000000000000000          U.S. Senator                                            UNDER VOTES                           Santa Cruz 13                                          01 
03030060014000026000006000018000002000000000000000000000000000000000000000000000000000000000000000000          U.S. Senator                                            UNDER VOTES                           Patagonia 14                                           01 
03030060015000033000011000021000001000000000000000000000000000000000000000000000000000000000000000000          U.S. Senator                                            UNDER VOTES                           Sonoita 15                                             01 
03030060016000018000009000006000003000000000000000000000000000000000000000000000000000000000000000000          U.S. Senator                                            UNDER VOTES                           Nogales 16                                             01 
03030060017000060000019000033000008000000000000000000000000000000000000000000000000000000000000000000          U.S. Senator                                            UNDER VOTES                           Calabasas 17                                           01 
